{
  "contractName": "SibbayHealthToken",
  "abi": [
    {
      "constant": true,
      "inputs": [],
      "name": "name",
      "outputs": [
        {
          "name": "",
          "type": "string"
        }
      ],
      "payable": false,
      "stateMutability": "view",
      "type": "function"
    },
    {
      "constant": false,
      "inputs": [
        {
          "name": "who",
          "type": "address"
        }
      ],
      "name": "delAdministrator",
      "outputs": [],
      "payable": false,
      "stateMutability": "nonpayable",
      "type": "function"
    },
    {
      "constant": true,
      "inputs": [],
      "name": "totalSupply",
      "outputs": [
        {
          "name": "",
          "type": "uint256"
        }
      ],
      "payable": false,
      "stateMutability": "view",
      "type": "function"
    },
    {
      "constant": true,
      "inputs": [
        {
          "name": "",
          "type": "address"
        }
      ],
      "name": "adminList",
      "outputs": [
        {
          "name": "",
          "type": "bool"
        }
      ],
      "payable": false,
      "stateMutability": "view",
      "type": "function"
    },
    {
      "constant": true,
      "inputs": [],
      "name": "INITIAL_SUPPLY",
      "outputs": [
        {
          "name": "",
          "type": "uint256"
        }
      ],
      "payable": false,
      "stateMutability": "view",
      "type": "function"
    },
    {
      "constant": true,
      "inputs": [],
      "name": "decimals",
      "outputs": [
        {
          "name": "",
          "type": "uint8"
        }
      ],
      "payable": false,
      "stateMutability": "view",
      "type": "function"
    },
    {
      "constant": false,
      "inputs": [],
      "name": "unpause",
      "outputs": [],
      "payable": false,
      "stateMutability": "nonpayable",
      "type": "function"
    },
    {
      "constant": true,
      "inputs": [],
      "name": "sellPrice",
      "outputs": [
        {
          "name": "",
          "type": "uint256"
        }
      ],
      "payable": false,
      "stateMutability": "view",
      "type": "function"
    },
    {
      "constant": true,
      "inputs": [],
      "name": "paused",
      "outputs": [
        {
          "name": "",
          "type": "bool"
        }
      ],
      "payable": false,
      "stateMutability": "view",
      "type": "function"
    },
    {
      "constant": true,
      "inputs": [
        {
          "name": "",
          "type": "address"
        }
      ],
      "name": "accounts",
      "outputs": [
        {
          "name": "availableBalances",
          "type": "uint256"
        },
        {
          "name": "start_date",
          "type": "uint32"
        },
        {
          "name": "end_date",
          "type": "uint32"
        }
      ],
      "payable": false,
      "stateMutability": "view",
      "type": "function"
    },
    {
      "constant": true,
      "inputs": [
        {
          "name": "",
          "type": "address"
        }
      ],
      "name": "frozenList",
      "outputs": [
        {
          "name": "",
          "type": "bool"
        }
      ],
      "payable": false,
      "stateMutability": "view",
      "type": "function"
    },
    {
      "constant": true,
      "inputs": [
        {
          "name": "_owner",
          "type": "address"
        }
      ],
      "name": "balanceOf",
      "outputs": [
        {
          "name": "",
          "type": "uint256"
        }
      ],
      "payable": false,
      "stateMutability": "view",
      "type": "function"
    },
    {
      "constant": false,
      "inputs": [],
      "name": "renounceOwnership",
      "outputs": [],
      "payable": false,
      "stateMutability": "nonpayable",
      "type": "function"
    },
    {
      "constant": true,
      "inputs": [],
      "name": "buySellFlag",
      "outputs": [
        {
          "name": "",
          "type": "bool"
        }
      ],
      "payable": false,
      "stateMutability": "view",
      "type": "function"
    },
    {
      "constant": false,
      "inputs": [],
      "name": "pause",
      "outputs": [],
      "payable": false,
      "stateMutability": "nonpayable",
      "type": "function"
    },
    {
      "constant": true,
      "inputs": [],
      "name": "buyPrice",
      "outputs": [
        {
          "name": "",
          "type": "uint256"
        }
      ],
      "payable": false,
      "stateMutability": "view",
      "type": "function"
    },
    {
      "constant": true,
      "inputs": [],
      "name": "owner",
      "outputs": [
        {
          "name": "",
          "type": "address"
        }
      ],
      "payable": false,
      "stateMutability": "view",
      "type": "function"
    },
    {
      "constant": true,
      "inputs": [],
      "name": "symbol",
      "outputs": [
        {
          "name": "",
          "type": "string"
        }
      ],
      "payable": false,
      "stateMutability": "view",
      "type": "function"
    },
    {
      "constant": false,
      "inputs": [
        {
          "name": "who",
          "type": "address"
        }
      ],
      "name": "unfroze",
      "outputs": [],
      "payable": false,
      "stateMutability": "nonpayable",
      "type": "function"
    },
    {
      "constant": false,
      "inputs": [
        {
          "name": "who",
          "type": "address"
        }
      ],
      "name": "addAdministrator",
      "outputs": [],
      "payable": false,
      "stateMutability": "nonpayable",
      "type": "function"
    },
    {
      "constant": false,
      "inputs": [
        {
          "name": "who",
          "type": "address"
        }
      ],
      "name": "froze",
      "outputs": [],
      "payable": false,
      "stateMutability": "nonpayable",
      "type": "function"
    },
    {
      "constant": true,
      "inputs": [],
      "name": "fundAccount",
      "outputs": [
        {
          "name": "",
          "type": "address"
        }
      ],
      "payable": false,
      "stateMutability": "view",
      "type": "function"
    },
    {
      "constant": true,
      "inputs": [
        {
          "name": "_owner",
          "type": "address"
        },
        {
          "name": "_spender",
          "type": "address"
        }
      ],
      "name": "allowance",
      "outputs": [
        {
          "name": "",
          "type": "uint256"
        }
      ],
      "payable": false,
      "stateMutability": "view",
      "type": "function"
    },
    {
      "constant": false,
      "inputs": [
        {
          "name": "newOwner",
          "type": "address"
        }
      ],
      "name": "transferOwnership",
      "outputs": [],
      "payable": false,
      "stateMutability": "nonpayable",
      "type": "function"
    },
    {
      "inputs": [],
      "payable": false,
      "stateMutability": "nonpayable",
      "type": "constructor"
    },
    {
      "payable": true,
      "stateMutability": "payable",
      "type": "fallback"
    },
    {
      "anonymous": false,
      "inputs": [
        {
          "indexed": true,
          "name": "from",
          "type": "address"
        },
        {
          "indexed": true,
          "name": "to",
          "type": "address"
        },
        {
          "indexed": false,
          "name": "tokenValue",
          "type": "uint256"
        },
        {
          "indexed": false,
          "name": "etherValue",
          "type": "uint256"
        }
      ],
      "name": "TransferEther",
      "type": "event"
    },
    {
      "anonymous": false,
      "inputs": [
        {
          "indexed": true,
          "name": "admin",
          "type": "address"
        },
        {
          "indexed": false,
          "name": "price",
          "type": "uint256"
        }
      ],
      "name": "SetSellPrice",
      "type": "event"
    },
    {
      "anonymous": false,
      "inputs": [
        {
          "indexed": true,
          "name": "admin",
          "type": "address"
        },
        {
          "indexed": false,
          "name": "price",
          "type": "uint256"
        }
      ],
      "name": "SetBuyPrice",
      "type": "event"
    },
    {
      "anonymous": false,
      "inputs": [
        {
          "indexed": true,
          "name": "who",
          "type": "address"
        },
        {
          "indexed": false,
          "name": "etherValue",
          "type": "uint256"
        },
        {
          "indexed": false,
          "name": "tokenValue",
          "type": "uint256"
        }
      ],
      "name": "Buy",
      "type": "event"
    },
    {
      "anonymous": false,
      "inputs": [
        {
          "indexed": true,
          "name": "fund",
          "type": "address"
        }
      ],
      "name": "SetFundAccount",
      "type": "event"
    },
    {
      "anonymous": false,
      "inputs": [],
      "name": "Pause",
      "type": "event"
    },
    {
      "anonymous": false,
      "inputs": [],
      "name": "Unpause",
      "type": "event"
    },
    {
      "anonymous": false,
      "inputs": [
        {
          "indexed": true,
          "name": "admin",
          "type": "address"
        },
        {
          "indexed": true,
          "name": "who",
          "type": "address"
        }
      ],
      "name": "Froze",
      "type": "event"
    },
    {
      "anonymous": false,
      "inputs": [
        {
          "indexed": true,
          "name": "admin",
          "type": "address"
        },
        {
          "indexed": true,
          "name": "who",
          "type": "address"
        }
      ],
      "name": "Unfroze",
      "type": "event"
    },
    {
      "anonymous": false,
      "inputs": [
        {
          "indexed": true,
          "name": "admin",
          "type": "address"
        }
      ],
      "name": "AddAdministrator",
      "type": "event"
    },
    {
      "anonymous": false,
      "inputs": [
        {
          "indexed": true,
          "name": "admin",
          "type": "address"
        }
      ],
      "name": "DelAdministrator",
      "type": "event"
    },
    {
      "anonymous": false,
      "inputs": [
        {
          "indexed": true,
          "name": "previousOwner",
          "type": "address"
        }
      ],
      "name": "OwnershipRenounced",
      "type": "event"
    },
    {
      "anonymous": false,
      "inputs": [
        {
          "indexed": true,
          "name": "previousOwner",
          "type": "address"
        },
        {
          "indexed": true,
          "name": "newOwner",
          "type": "address"
        }
      ],
      "name": "OwnershipTransferred",
      "type": "event"
    },
    {
      "anonymous": false,
      "inputs": [
        {
          "indexed": true,
          "name": "spender",
          "type": "address"
        },
        {
          "indexed": true,
          "name": "from",
          "type": "address"
        },
        {
          "indexed": true,
          "name": "to",
          "type": "address"
        },
        {
          "indexed": false,
          "name": "value",
          "type": "uint256"
        }
      ],
      "name": "TransferFrom",
      "type": "event"
    },
    {
      "anonymous": false,
      "inputs": [
        {
          "indexed": true,
          "name": "owner",
          "type": "address"
        },
        {
          "indexed": true,
          "name": "spender",
          "type": "address"
        },
        {
          "indexed": false,
          "name": "value",
          "type": "uint256"
        }
      ],
      "name": "Approval",
      "type": "event"
    },
    {
      "anonymous": false,
      "inputs": [
        {
          "indexed": true,
          "name": "from",
          "type": "address"
        },
        {
          "indexed": true,
          "name": "to",
          "type": "address"
        },
        {
          "indexed": false,
          "name": "value",
          "type": "uint256"
        }
      ],
      "name": "Transfer",
      "type": "event"
    },
    {
      "constant": false,
      "inputs": [],
      "name": "withdraw",
      "outputs": [],
      "payable": false,
      "stateMutability": "nonpayable",
      "type": "function"
    },
    {
      "constant": false,
      "inputs": [
        {
          "name": "_to",
          "type": "address"
        },
        {
          "name": "_value",
          "type": "uint256"
        }
      ],
      "name": "transfer",
      "outputs": [
        {
          "name": "",
          "type": "bool"
        }
      ],
      "payable": false,
      "stateMutability": "nonpayable",
      "type": "function"
    },
    {
      "constant": false,
      "inputs": [
        {
          "name": "_from",
          "type": "address"
        },
        {
          "name": "_to",
          "type": "address"
        },
        {
          "name": "_value",
          "type": "uint256"
        }
      ],
      "name": "transferFrom",
      "outputs": [
        {
          "name": "",
          "type": "bool"
        }
      ],
      "payable": false,
      "stateMutability": "nonpayable",
      "type": "function"
    },
    {
      "constant": false,
      "inputs": [
        {
          "name": "_spender",
          "type": "address"
        },
        {
          "name": "_value",
          "type": "uint256"
        }
      ],
      "name": "approve",
      "outputs": [
        {
          "name": "",
          "type": "bool"
        }
      ],
      "payable": false,
      "stateMutability": "nonpayable",
      "type": "function"
    },
    {
      "constant": false,
      "inputs": [
        {
          "name": "_spender",
          "type": "address"
        },
        {
          "name": "_addedValue",
          "type": "uint256"
        }
      ],
      "name": "increaseApproval",
      "outputs": [
        {
          "name": "success",
          "type": "bool"
        }
      ],
      "payable": false,
      "stateMutability": "nonpayable",
      "type": "function"
    },
    {
      "constant": false,
      "inputs": [
        {
          "name": "_spender",
          "type": "address"
        },
        {
          "name": "_subtractedValue",
          "type": "uint256"
        }
      ],
      "name": "decreaseApproval",
      "outputs": [
        {
          "name": "success",
          "type": "bool"
        }
      ],
      "payable": false,
      "stateMutability": "nonpayable",
      "type": "function"
    },
    {
      "constant": false,
      "inputs": [
        {
          "name": "_receivers",
          "type": "address[]"
        },
        {
          "name": "_values",
          "type": "uint256[]"
        }
      ],
      "name": "batchTransfer",
      "outputs": [],
      "payable": false,
      "stateMutability": "nonpayable",
      "type": "function"
    },
    {
      "constant": false,
      "inputs": [
        {
          "name": "_from",
          "type": "address"
        },
        {
          "name": "_receivers",
          "type": "address[]"
        },
        {
          "name": "_values",
          "type": "uint256[]"
        }
      ],
      "name": "batchTransferFrom",
      "outputs": [],
      "payable": false,
      "stateMutability": "nonpayable",
      "type": "function"
    },
    {
      "constant": false,
      "inputs": [
        {
          "name": "_receiver",
          "type": "address"
        },
        {
          "name": "_values",
          "type": "uint256[]"
        },
        {
          "name": "_dates",
          "type": "uint32[]"
        }
      ],
      "name": "transferByDate",
      "outputs": [],
      "payable": false,
      "stateMutability": "nonpayable",
      "type": "function"
    },
    {
      "constant": false,
      "inputs": [
        {
          "name": "_from",
          "type": "address"
        },
        {
          "name": "_receiver",
          "type": "address"
        },
        {
          "name": "_values",
          "type": "uint256[]"
        },
        {
          "name": "_dates",
          "type": "uint32[]"
        }
      ],
      "name": "transferFromByDate",
      "outputs": [],
      "payable": false,
      "stateMutability": "nonpayable",
      "type": "function"
    },
    {
      "constant": false,
      "inputs": [],
      "name": "buy",
      "outputs": [],
      "payable": true,
      "stateMutability": "payable",
      "type": "function"
    },
    {
      "constant": false,
      "inputs": [
        {
          "name": "_value",
          "type": "uint256"
        }
      ],
      "name": "sell",
      "outputs": [],
      "payable": false,
      "stateMutability": "nonpayable",
      "type": "function"
    },
    {
      "constant": false,
      "inputs": [
        {
          "name": "price",
          "type": "uint256"
        }
      ],
      "name": "setSellPrice",
      "outputs": [],
      "payable": false,
      "stateMutability": "nonpayable",
      "type": "function"
    },
    {
      "constant": false,
      "inputs": [
        {
          "name": "price",
          "type": "uint256"
        }
      ],
      "name": "setBuyPrice",
      "outputs": [],
      "payable": false,
      "stateMutability": "nonpayable",
      "type": "function"
    },
    {
      "constant": false,
      "inputs": [
        {
          "name": "fund",
          "type": "address"
        }
      ],
      "name": "setFundAccount",
      "outputs": [],
      "payable": false,
      "stateMutability": "nonpayable",
      "type": "function"
    },
    {
      "constant": false,
      "inputs": [],
      "name": "openBuySell",
      "outputs": [],
      "payable": false,
      "stateMutability": "nonpayable",
      "type": "function"
    },
    {
      "constant": false,
      "inputs": [],
      "name": "closeBuySell",
      "outputs": [],
      "payable": false,
      "stateMutability": "nonpayable",
      "type": "function"
    },
    {
      "constant": true,
      "inputs": [
        {
          "name": "_who",
          "type": "address"
        }
      ],
      "name": "getAvailableBalances",
      "outputs": [
        {
          "name": "",
          "type": "uint256"
        }
      ],
      "payable": false,
      "stateMutability": "view",
      "type": "function"
    }
  ],
  "bytecode": "0x60806040526000600360146101000a81548160ff02191690831515021790555034801561002b57600080fd5b5033600360006101000a81548173ffffffffffffffffffffffffffffffffffffffff021916908373ffffffffffffffffffffffffffffffffffffffff160217905550600160056000600360009054906101000a900473ffffffffffffffffffffffffffffffffffffffff1673ffffffffffffffffffffffffffffffffffffffff1673ffffffffffffffffffffffffffffffffffffffff16815260200190815260200160002060006101000a81548160ff021916908315150217905550601260ff16600a0a633b9aca0002600181905550601260ff16600a0a633b9aca00026000803373ffffffffffffffffffffffffffffffffffffffff1673ffffffffffffffffffffffffffffffffffffffff16815260200190815260200160002081905550601260ff16600a0a633b9aca0002600660003373ffffffffffffffffffffffffffffffffffffffff1673ffffffffffffffffffffffffffffffffffffffff168152602001908152602001600020600001819055503373ffffffffffffffffffffffffffffffffffffffff1660007fddf252ad1be2c89b69c2b068fc378daa952ba7f163c4a11628f55a4df523b3ef601260ff16600a0a633b9aca00026040518082815260200191505060405180910390a3600060078190555060006008819055506000600960006101000a81548173ffffffffffffffffffffffffffffffffffffffff021916908373ffffffffffffffffffffffffffffffffffffffff1602179055506000600960146101000a81548160ff021916908315150217905550615562806102786000396000f300608060405260043610610204576000357c0100000000000000000000000000000000000000000000000000000000900463ffffffff16806306fdde0314610206578063095ea7b31461029657806315dfaccd146102fb57806318160ddd1461033e57806323b872dd1461036957806327304dfd146103ee5780632ff2e9dc14610449578063313ce567146104745780633ccfd60b146104a55780633f4ba83a146104bc5780634885b254146104d35780634b7503341461059c5780635c975abb146105c75780635e5c06e2146105f657806363ae8d6c1461067357806366188463146106a057806369ea5cda146107055780636a8269b41461071c5780636b1bfd331461077757806370a08231146107ba578063715018a6146108115780637ab2af09146108285780638456cb59146108575780638620410b1461086e57806388d695b21461089957806389904c33146109425780638da5cb5b1461099957806395d89b41146109f0578063a6f2ae3a14610a80578063a9059cbb14610a8a578063b5632cec14610aef578063c505812e14610b32578063c999117614610bfb578063d6b5082f14610c3e578063d73dd62314610c81578063d9a8748c14610ce6578063dd62ed3e14610d3d578063e329221e14610db4578063e4849b3214610e9d578063f2fde38b14610eca578063f87589a214610f0d578063fc6634b914610f24575b005b34801561021257600080fd5b5061021b610f51565b6040518080602001828103825283818151815260200191508051906020019080838360005b8381101561025b578082015181840152602081019050610240565b50505050905090810190601f1680156102885780820380516001836020036101000a031916815260200191505b509250505060405180910390f35b3480156102a257600080fd5b506102e1600480360381019080803573ffffffffffffffffffffffffffffffffffffffff16906020019092919080359060200190929190505050610f8a565b604051808215151515815260200191505060405180910390f35b34801561030757600080fd5b5061033c600480360381019080803573ffffffffffffffffffffffffffffffffffffffff169060200190929190505050611070565b005b34801561034a57600080fd5b50610353611161565b6040518082815260200191505060405180910390f35b34801561037557600080fd5b506103d4600480360381019080803573ffffffffffffffffffffffffffffffffffffffff169060200190929190803573ffffffffffffffffffffffffffffffffffffffff1690602001909291908035906020019092919050505061116b565b604051808215151515815260200191505060405180910390f35b3480156103fa57600080fd5b5061042f600480360381019080803573ffffffffffffffffffffffffffffffffffffffff16906020019092919050505061149c565b604051808215151515815260200191505060405180910390f35b34801561045557600080fd5b5061045e6114bc565b6040518082815260200191505060405180910390f35b34801561048057600080fd5b506104896114cd565b604051808260ff1660ff16815260200191505060405180910390f35b3480156104b157600080fd5b506104ba6114d2565b005b3480156104c857600080fd5b506104d16115b6565b005b3480156104df57600080fd5b5061059a600480360381019080803573ffffffffffffffffffffffffffffffffffffffff1690602001909291908035906020019082018035906020019080806020026020016040519081016040528093929190818152602001838360200280828437820191505050505050919291929080359060200190820180359060200190808060200260200160405190810160405280939291908181526020018383602002808284378201915050505050509192919290505050611676565b005b3480156105a857600080fd5b506105b1611b3c565b6040518082815260200191505060405180910390f35b3480156105d357600080fd5b506105dc611b42565b604051808215151515815260200191505060405180910390f35b34801561060257600080fd5b50610637600480360381019080803573ffffffffffffffffffffffffffffffffffffffff169060200190929190505050611b55565b604051808481526020018363ffffffff1663ffffffff1681526020018263ffffffff1663ffffffff168152602001935050505060405180910390f35b34801561067f57600080fd5b5061069e60048036038101908080359060200190929190505050611b9f565b005b3480156106ac57600080fd5b506106eb600480360381019080803573ffffffffffffffffffffffffffffffffffffffff16906020019092919080359060200190929190505050611c60565b604051808215151515815260200191505060405180910390f35b34801561071157600080fd5b5061071a611d46565b005b34801561072857600080fd5b5061075d600480360381019080803573ffffffffffffffffffffffffffffffffffffffff169060200190929190505050611e5b565b604051808215151515815260200191505060405180910390f35b34801561078357600080fd5b506107b8600480360381019080803573ffffffffffffffffffffffffffffffffffffffff169060200190929190505050611e7b565b005b3480156107c657600080fd5b506107fb600480360381019080803573ffffffffffffffffffffffffffffffffffffffff169060200190929190505050611f9a565b6040518082815260200191505060405180910390f35b34801561081d57600080fd5b50610826611fe2565b005b34801561083457600080fd5b5061083d6120e7565b604051808215151515815260200191505060405180910390f35b34801561086357600080fd5b5061086c6120fa565b005b34801561087a57600080fd5b506108836121bb565b6040518082815260200191505060405180910390f35b3480156108a557600080fd5b5061094060048036038101908080359060200190820180359060200190808060200260200160405190810160405280939291908181526020018383602002808284378201915050505050509192919290803590602001908201803590602001908080602002602001604051908101604052809392919081815260200183836020028082843782019150505050505091929192905050506121c1565b005b34801561094e57600080fd5b50610983600480360381019080803573ffffffffffffffffffffffffffffffffffffffff169060200190929190505050612491565b6040518082815260200191505060405180910390f35b3480156109a557600080fd5b506109ae6124dd565b604051808273ffffffffffffffffffffffffffffffffffffffff1673ffffffffffffffffffffffffffffffffffffffff16815260200191505060405180910390f35b3480156109fc57600080fd5b50610a05612503565b6040518080602001828103825283818151815260200191508051906020019080838360005b83811015610a45578082015181840152602081019050610a2a565b50505050905090810190601f168015610a725780820380516001836020036101000a031916815260200191505b509250505060405180910390f35b610a8861253c565b005b348015610a9657600080fd5b50610ad5600480360381019080803573ffffffffffffffffffffffffffffffffffffffff16906020019092919080359060200190929190505050612735565b604051808215151515815260200191505060405180910390f35b348015610afb57600080fd5b50610b30600480360381019080803573ffffffffffffffffffffffffffffffffffffffff169060200190929190505050612856565b005b348015610b3e57600080fd5b50610bf9600480360381019080803573ffffffffffffffffffffffffffffffffffffffff169060200190929190803590602001908201803590602001908080602002602001604051908101604052809392919081815260200183836020028082843782019150505050505091929192908035906020019082018035906020019080806020026020016040519081016040528093929190818152602001838360200280828437820191505050505050919291929050505061295c565b005b348015610c0757600080fd5b50610c3c600480360381019080803573ffffffffffffffffffffffffffffffffffffffff169060200190929190505050612baf565b005b348015610c4a57600080fd5b50610c7f600480360381019080803573ffffffffffffffffffffffffffffffffffffffff169060200190929190505050612ca9565b005b348015610c8d57600080fd5b50610ccc600480360381019080803573ffffffffffffffffffffffffffffffffffffffff16906020019092919080359060200190929190505050612db8565b604051808215151515815260200191505060405180910390f35b348015610cf257600080fd5b50610cfb612e9e565b604051808273ffffffffffffffffffffffffffffffffffffffff1673ffffffffffffffffffffffffffffffffffffffff16815260200191505060405180910390f35b348015610d4957600080fd5b50610d9e600480360381019080803573ffffffffffffffffffffffffffffffffffffffff169060200190929190803573ffffffffffffffffffffffffffffffffffffffff169060200190929190505050612ec4565b6040518082815260200191505060405180910390f35b348015610dc057600080fd5b50610e9b600480360381019080803573ffffffffffffffffffffffffffffffffffffffff169060200190929190803573ffffffffffffffffffffffffffffffffffffffff1690602001909291908035906020019082018035906020019080806020026020016040519081016040528093929190818152602001838360200280828437820191505050505050919291929080359060200190820180359060200190808060200260200160405190810160405280939291908181526020018383602002808284378201915050505050509192919290505050612f4b565b005b348015610ea957600080fd5b50610ec860048036038101908080359060200190929190505050613394565b005b348015610ed657600080fd5b50610f0b600480360381019080803573ffffffffffffffffffffffffffffffffffffffff1690602001909291905050506134b4565b005b348015610f1957600080fd5b50610f2261360c565b005b348015610f3057600080fd5b50610f4f600480360381019080803590602001909291905050506136a0565b005b6040805190810160405280601381526020017f536962626179204865616c746820546f6b656e0000000000000000000000000081525081565b6000600360149054906101000a900460ff16151515610fa857600080fd5b33600460008273ffffffffffffffffffffffffffffffffffffffff1673ffffffffffffffffffffffffffffffffffffffff16815260200190815260200160002060009054906101000a900460ff1615151561100257600080fd5b83600460008273ffffffffffffffffffffffffffffffffffffffff1673ffffffffffffffffffffffffffffffffffffffff16815260200190815260200160002060009054906101000a900460ff1615151561105c57600080fd5b6110668585613761565b9250505092915050565b600360009054906101000a900473ffffffffffffffffffffffffffffffffffffffff1673ffffffffffffffffffffffffffffffffffffffff163373ffffffffffffffffffffffffffffffffffffffff161415156110cc57600080fd5b600560008273ffffffffffffffffffffffffffffffffffffffff1673ffffffffffffffffffffffffffffffffffffffff16815260200190815260200160002060006101000a81549060ff02191690558073ffffffffffffffffffffffffffffffffffffffff167fa5afe14290b6481c42b0941584b7c9093cc3d4cf9dc885904881f063e012e31360405160405180910390a250565b6000600154905090565b6000600360149054906101000a900460ff1615151561118957600080fd5b33600460008273ffffffffffffffffffffffffffffffffffffffff1673ffffffffffffffffffffffffffffffffffffffff16815260200190815260200160002060009054906101000a900460ff161515156111e357600080fd5b84600460008273ffffffffffffffffffffffffffffffffffffffff1673ffffffffffffffffffffffffffffffffffffffff16815260200190815260200160002060009054906101000a900460ff1615151561123d57600080fd5b600960009054906101000a900473ffffffffffffffffffffffffffffffffffffffff1673ffffffffffffffffffffffffffffffffffffffff168573ffffffffffffffffffffffffffffffffffffffff161415151561129a57600080fd5b600073ffffffffffffffffffffffffffffffffffffffff168573ffffffffffffffffffffffffffffffffffffffff16141515156112d657600080fd5b6112df86613853565b600260008773ffffffffffffffffffffffffffffffffffffffff1673ffffffffffffffffffffffffffffffffffffffff16815260200190815260200160002060003373ffffffffffffffffffffffffffffffffffffffff1673ffffffffffffffffffffffffffffffffffffffff16815260200190815260200160002054841115151561136a57600080fd5b611375868686613d32565b611380868686613ebe565b61140f84600260008973ffffffffffffffffffffffffffffffffffffffff1673ffffffffffffffffffffffffffffffffffffffff16815260200190815260200160002060003373ffffffffffffffffffffffffffffffffffffffff1673ffffffffffffffffffffffffffffffffffffffff1681526020019081526020016000205461415190919063ffffffff16565b600260008873ffffffffffffffffffffffffffffffffffffffff1673ffffffffffffffffffffffffffffffffffffffff16815260200190815260200160002060003373ffffffffffffffffffffffffffffffffffffffff1673ffffffffffffffffffffffffffffffffffffffff168152602001908152602001600020819055506001925050509392505050565b60056020528060005260406000206000915054906101000a900460ff1681565b601260ff16600a0a633b9aca000281565b601281565b6000600360009054906101000a900473ffffffffffffffffffffffffffffffffffffffff1673ffffffffffffffffffffffffffffffffffffffff163373ffffffffffffffffffffffffffffffffffffffff1614151561153057600080fd5b3073ffffffffffffffffffffffffffffffffffffffff16319050600360009054906101000a900473ffffffffffffffffffffffffffffffffffffffff1673ffffffffffffffffffffffffffffffffffffffff166108fc829081150290604051600060405180830381858888f193505050501580156115b2573d6000803e3d6000fd5b5050565b600360009054906101000a900473ffffffffffffffffffffffffffffffffffffffff1673ffffffffffffffffffffffffffffffffffffffff163373ffffffffffffffffffffffffffffffffffffffff1614151561161257600080fd5b600360149054906101000a900460ff16151561162d57600080fd5b6000600360146101000a81548160ff0219169083151502179055507f7805862f689e2f13df9f062ff482ad3ad112aca9e0847911ed832e158c525b3360405160405180910390a1565b600080600360149054906101000a900460ff1615151561169557600080fd5b33600460008273ffffffffffffffffffffffffffffffffffffffff1673ffffffffffffffffffffffffffffffffffffffff16815260200190815260200160002060009054906101000a900460ff161515156116ef57600080fd5b85600460008273ffffffffffffffffffffffffffffffffffffffff1673ffffffffffffffffffffffffffffffffffffffff16815260200190815260200160002060009054906101000a900460ff1615151561174957600080fd5b6000865111801561175b575084518651145b151561176657600080fd5b61176f87613853565b6000935060009250600093505b84518463ffffffff1610156117ca576117bb858563ffffffff168151811015156117a257fe5b906020019060200201518461416a90919063ffffffff16565b9250838060010194505061177c565b600660008873ffffffffffffffffffffffffffffffffffffffff1673ffffffffffffffffffffffffffffffffffffffff16815260200190815260200160002060000154831115151561181b57600080fd5b600260008873ffffffffffffffffffffffffffffffffffffffff1673ffffffffffffffffffffffffffffffffffffffff16815260200190815260200160002060003373ffffffffffffffffffffffffffffffffffffffff1673ffffffffffffffffffffffffffffffffffffffff1681526020019081526020016000205483111515156118a657600080fd5b600093505b85518463ffffffff161015611a2457600960009054906101000a900473ffffffffffffffffffffffffffffffffffffffff1673ffffffffffffffffffffffffffffffffffffffff16868563ffffffff1681518110151561190757fe5b9060200190602002015173ffffffffffffffffffffffffffffffffffffffff161415151561193457600080fd5b600073ffffffffffffffffffffffffffffffffffffffff16868563ffffffff1681518110151561196057fe5b9060200190602002015173ffffffffffffffffffffffffffffffffffffffff161415151561198d57600080fd5b6119d287878663ffffffff168151811015156119a557fe5b90602001906020020151878763ffffffff168151811015156119c357fe5b90602001906020020151613d32565b611a1787878663ffffffff168151811015156119ea57fe5b90602001906020020151878763ffffffff16815181101515611a0857fe5b90602001906020020151613ebe565b83806001019450506118ab565b611ab383600260008a73ffffffffffffffffffffffffffffffffffffffff1673ffffffffffffffffffffffffffffffffffffffff16815260200190815260200160002060003373ffffffffffffffffffffffffffffffffffffffff1673ffffffffffffffffffffffffffffffffffffffff1681526020019081526020016000205461415190919063ffffffff16565b600260008973ffffffffffffffffffffffffffffffffffffffff1673ffffffffffffffffffffffffffffffffffffffff16815260200190815260200160002060003373ffffffffffffffffffffffffffffffffffffffff1673ffffffffffffffffffffffffffffffffffffffff1681526020019081526020016000208190555050505050505050565b60075481565b600360149054906101000a900460ff1681565b60066020528060005260406000206000915090508060000154908060020160009054906101000a900463ffffffff16908060020160049054906101000a900463ffffffff16905083565b33600560008273ffffffffffffffffffffffffffffffffffffffff1673ffffffffffffffffffffffffffffffffffffffff16815260200190815260200160002060009054906101000a900460ff161515611bf857600080fd5b600082111515611c0757600080fd5b816008819055503373ffffffffffffffffffffffffffffffffffffffff167f8d10f638f8d24cb1079a79c932f23795987d49aebc819317bc4b18a084d02809836040518082815260200191505060405180910390a25050565b6000600360149054906101000a900460ff16151515611c7e57600080fd5b33600460008273ffffffffffffffffffffffffffffffffffffffff1673ffffffffffffffffffffffffffffffffffffffff16815260200190815260200160002060009054906101000a900460ff16151515611cd857600080fd5b83600460008273ffffffffffffffffffffffffffffffffffffffff1673ffffffffffffffffffffffffffffffffffffffff16815260200190815260200160002060009054906101000a900460ff16151515611d3257600080fd5b611d3c8585614186565b9250505092915050565b600960149054906101000a900460ff16151515611d6257600080fd5b600360009054906101000a900473ffffffffffffffffffffffffffffffffffffffff1673ffffffffffffffffffffffffffffffffffffffff163373ffffffffffffffffffffffffffffffffffffffff16141515611dbe57600080fd5b600073ffffffffffffffffffffffffffffffffffffffff16600960009054906101000a900473ffffffffffffffffffffffffffffffffffffffff1673ffffffffffffffffffffffffffffffffffffffff1614151515611e1c57600080fd5b6000600754111515611e2d57600080fd5b6000600854111515611e3e57600080fd5b6001600960146101000a81548160ff021916908315150217905550565b60046020528060005260406000206000915054906101000a900460ff1681565b600360009054906101000a900473ffffffffffffffffffffffffffffffffffffffff1673ffffffffffffffffffffffffffffffffffffffff163373ffffffffffffffffffffffffffffffffffffffff16141515611ed757600080fd5b600073ffffffffffffffffffffffffffffffffffffffff168173ffffffffffffffffffffffffffffffffffffffff1614151515611f1357600080fd5b80600960006101000a81548173ffffffffffffffffffffffffffffffffffffffff021916908373ffffffffffffffffffffffffffffffffffffffff1602179055508073ffffffffffffffffffffffffffffffffffffffff167fdd7881875c2171524331608073ba5fba2a6ff96cf8341d25f9ea84b5c003669060405160405180910390a250565b60008060008373ffffffffffffffffffffffffffffffffffffffff1673ffffffffffffffffffffffffffffffffffffffff168152602001908152602001600020549050919050565b600360009054906101000a900473ffffffffffffffffffffffffffffffffffffffff1673ffffffffffffffffffffffffffffffffffffffff163373ffffffffffffffffffffffffffffffffffffffff1614151561203e57600080fd5b600360009054906101000a900473ffffffffffffffffffffffffffffffffffffffff1673ffffffffffffffffffffffffffffffffffffffff167ff8df31144d9c2f0f6b59d69b8b98abd5459d07f2742c4df920b25aae33c6482060405160405180910390a26000600360006101000a81548173ffffffffffffffffffffffffffffffffffffffff021916908373ffffffffffffffffffffffffffffffffffffffff160217905550565b600960149054906101000a900460ff1681565b600360009054906101000a900473ffffffffffffffffffffffffffffffffffffffff1673ffffffffffffffffffffffffffffffffffffffff163373ffffffffffffffffffffffffffffffffffffffff1614151561215657600080fd5b600360149054906101000a900460ff1615151561217257600080fd5b6001600360146101000a81548160ff0219169083151502179055507f6985a02210a168e66602d3235cb6db0e70f92b3ba4d376a33c0f3d9434bff62560405160405180910390a1565b60085481565b600080600360149054906101000a900460ff161515156121e057600080fd5b33600460008273ffffffffffffffffffffffffffffffffffffffff1673ffffffffffffffffffffffffffffffffffffffff16815260200190815260200160002060009054906101000a900460ff1615151561223a57600080fd5b6000855111801561224c575083518551145b151561225757600080fd5b61226033613853565b6000925060009150600092505b83518363ffffffff1610156122bb576122ac848463ffffffff1681518110151561229357fe5b906020019060200201518361416a90919063ffffffff16565b9150828060010193505061226d565b600660003373ffffffffffffffffffffffffffffffffffffffff1673ffffffffffffffffffffffffffffffffffffffff16815260200190815260200160002060000154821115151561230c57600080fd5b600092505b84518363ffffffff16101561248a57600960009054906101000a900473ffffffffffffffffffffffffffffffffffffffff1673ffffffffffffffffffffffffffffffffffffffff16858463ffffffff1681518110151561236d57fe5b9060200190602002015173ffffffffffffffffffffffffffffffffffffffff161415151561239a57600080fd5b600073ffffffffffffffffffffffffffffffffffffffff16858463ffffffff168151811015156123c657fe5b9060200190602002015173ffffffffffffffffffffffffffffffffffffffff16141515156123f357600080fd5b61243833868563ffffffff1681518110151561240b57fe5b90602001906020020151868663ffffffff1681518110151561242957fe5b90602001906020020151613d32565b61247d33868563ffffffff1681518110151561245057fe5b90602001906020020151868663ffffffff1681518110151561246e57fe5b90602001906020020151613ebe565b8280600101935050612311565b5050505050565b6000600660008373ffffffffffffffffffffffffffffffffffffffff1673ffffffffffffffffffffffffffffffffffffffff168152602001908152602001600020600001549050919050565b600360009054906101000a900473ffffffffffffffffffffffffffffffffffffffff1681565b6040805190810160405280600381526020017f534854000000000000000000000000000000000000000000000000000000000081525081565b6000600960149054906101000a900460ff16151561255957600080fd5b600360149054906101000a900460ff1615151561257557600080fd5b33600460008273ffffffffffffffffffffffffffffffffffffffff1673ffffffffffffffffffffffffffffffffffffffff16815260200190815260200160002060009054906101000a900460ff161515156125cf57600080fd5b6000341115156125de57600080fd5b61260c6008546125fe601260ff16600a0a3461441790919063ffffffff16565b61444f90919063ffffffff16565b9150600082111561273157600960009054906101000a900473ffffffffffffffffffffffffffffffffffffffff1673ffffffffffffffffffffffffffffffffffffffff166108fc349081150290604051600060405180830381858888f1935050505015801561267f573d6000803e3d6000fd5b506126ad600960009054906101000a900473ffffffffffffffffffffffffffffffffffffffff163384613d32565b6126da600960009054906101000a900473ffffffffffffffffffffffffffffffffffffffff163384613ebe565b3373ffffffffffffffffffffffffffffffffffffffff167f1cbc5ab135991bd2b6a4b034a04aa2aa086dac1371cb9b16b8b5e2ed6b036bed3484604051808381526020018281526020019250505060405180910390a25b5050565b6000600360149054906101000a900460ff1615151561275357600080fd5b600460003373ffffffffffffffffffffffffffffffffffffffff1673ffffffffffffffffffffffffffffffffffffffff16815260200190815260200160002060009054906101000a900460ff16156127e557600073ffffffffffffffffffffffffffffffffffffffff168373ffffffffffffffffffffffffffffffffffffffff161415156127e057600080fd5b612822565b600073ffffffffffffffffffffffffffffffffffffffff168373ffffffffffffffffffffffffffffffffffffffff161415151561282157600080fd5b5b61282b33613853565b612836338484613d32565b612841338484613ebe565b61284c338484614465565b6001905092915050565b33600560008273ffffffffffffffffffffffffffffffffffffffff1673ffffffffffffffffffffffffffffffffffffffff16815260200190815260200160002060009054906101000a900460ff1615156128af57600080fd5b600460008373ffffffffffffffffffffffffffffffffffffffff1673ffffffffffffffffffffffffffffffffffffffff16815260200190815260200160002060006101000a81549060ff02191690558173ffffffffffffffffffffffffffffffffffffffff163373ffffffffffffffffffffffffffffffffffffffff167fa8ca4c1e2e1ebc26164949943a221a5199219743fcc8533fdb005f039ed4785b60405160405180910390a35050565b600080600360149054906101000a900460ff1615151561297b57600080fd5b33600460008273ffffffffffffffffffffffffffffffffffffffff1673ffffffffffffffffffffffffffffffffffffffff16815260200190815260200160002060009054906101000a900460ff161515156129d557600080fd5b600085511180156129e7575083518551145b15156129f257600080fd5b600960009054906101000a900473ffffffffffffffffffffffffffffffffffffffff1673ffffffffffffffffffffffffffffffffffffffff168673ffffffffffffffffffffffffffffffffffffffff1614151515612a4f57600080fd5b600073ffffffffffffffffffffffffffffffffffffffff168673ffffffffffffffffffffffffffffffffffffffff1614151515612a8b57600080fd5b612a9433613853565b6000925060009150600092505b84518363ffffffff161015612aef57612ae0858463ffffffff16815181101515612ac757fe5b906020019060200201518361416a90919063ffffffff16565b91508280600101935050612aa1565b600660003373ffffffffffffffffffffffffffffffffffffffff1673ffffffffffffffffffffffffffffffffffffffff168152602001908152602001600020600001548211151515612b4057600080fd5b600092505b84518363ffffffff161015612ba757612b9a3387878663ffffffff16815181101515612b6d57fe5b90602001906020020151878763ffffffff16815181101515612b8b57fe5b90602001906020020151614608565b8280600101935050612b45565b505050505050565b600360009054906101000a900473ffffffffffffffffffffffffffffffffffffffff1673ffffffffffffffffffffffffffffffffffffffff163373ffffffffffffffffffffffffffffffffffffffff16141515612c0b57600080fd5b6001600560008373ffffffffffffffffffffffffffffffffffffffff1673ffffffffffffffffffffffffffffffffffffffff16815260200190815260200160002060006101000a81548160ff0219169083151502179055508073ffffffffffffffffffffffffffffffffffffffff167f6e5eedde7d0d690d55dea362660be04ef1eb36252e48817545afb1ae6b245a4060405160405180910390a250565b33600560008273ffffffffffffffffffffffffffffffffffffffff1673ffffffffffffffffffffffffffffffffffffffff16815260200190815260200160002060009054906101000a900460ff161515612d0257600080fd5b6001600460008473ffffffffffffffffffffffffffffffffffffffff1673ffffffffffffffffffffffffffffffffffffffff16815260200190815260200160002060006101000a81548160ff0219169083151502179055508173ffffffffffffffffffffffffffffffffffffffff163373ffffffffffffffffffffffffffffffffffffffff167f2ae3d8beb1529a220b658a87b905671775be575d98eb1c786b4b9da45a2d7aea60405160405180910390a35050565b6000600360149054906101000a900460ff16151515612dd657600080fd5b33600460008273ffffffffffffffffffffffffffffffffffffffff1673ffffffffffffffffffffffffffffffffffffffff16815260200190815260200160002060009054906101000a900460ff16151515612e3057600080fd5b83600460008273ffffffffffffffffffffffffffffffffffffffff1673ffffffffffffffffffffffffffffffffffffffff16815260200190815260200160002060009054906101000a900460ff16151515612e8a57600080fd5b612e94858561533a565b9250505092915050565b600960009054906101000a900473ffffffffffffffffffffffffffffffffffffffff1681565b6000600260008473ffffffffffffffffffffffffffffffffffffffff1673ffffffffffffffffffffffffffffffffffffffff16815260200190815260200160002060008373ffffffffffffffffffffffffffffffffffffffff1673ffffffffffffffffffffffffffffffffffffffff16815260200190815260200160002054905092915050565b600080600360149054906101000a900460ff16151515612f6a57600080fd5b33600460008273ffffffffffffffffffffffffffffffffffffffff1673ffffffffffffffffffffffffffffffffffffffff16815260200190815260200160002060009054906101000a900460ff16151515612fc457600080fd5b86600460008273ffffffffffffffffffffffffffffffffffffffff1673ffffffffffffffffffffffffffffffffffffffff16815260200190815260200160002060009054906101000a900460ff1615151561301e57600080fd5b60008651118015613030575084518651145b151561303b57600080fd5b600960009054906101000a900473ffffffffffffffffffffffffffffffffffffffff1673ffffffffffffffffffffffffffffffffffffffff168773ffffffffffffffffffffffffffffffffffffffff161415151561309857600080fd5b600073ffffffffffffffffffffffffffffffffffffffff168773ffffffffffffffffffffffffffffffffffffffff16141515156130d457600080fd5b6130dd88613853565b6000935060009250600093505b85518463ffffffff16101561313857613129868563ffffffff1681518110151561311057fe5b906020019060200201518461416a90919063ffffffff16565b925083806001019450506130ea565b600660008973ffffffffffffffffffffffffffffffffffffffff1673ffffffffffffffffffffffffffffffffffffffff16815260200190815260200160002060000154831115151561318957600080fd5b600260008973ffffffffffffffffffffffffffffffffffffffff1673ffffffffffffffffffffffffffffffffffffffff16815260200190815260200160002060003373ffffffffffffffffffffffffffffffffffffffff1673ffffffffffffffffffffffffffffffffffffffff16815260200190815260200160002054831115151561321457600080fd5b600093505b85518463ffffffff16101561327b5761326e8888888763ffffffff1681518110151561324157fe5b90602001906020020151888863ffffffff1681518110151561325f57fe5b90602001906020020151614608565b8380600101945050613219565b61330a83600260008b73ffffffffffffffffffffffffffffffffffffffff1673ffffffffffffffffffffffffffffffffffffffff16815260200190815260200160002060003373ffffffffffffffffffffffffffffffffffffffff1673ffffffffffffffffffffffffffffffffffffffff1681526020019081526020016000205461415190919063ffffffff16565b600260008a73ffffffffffffffffffffffffffffffffffffffff1673ffffffffffffffffffffffffffffffffffffffff16815260200190815260200160002060003373ffffffffffffffffffffffffffffffffffffffff1673ffffffffffffffffffffffffffffffffffffffff168152602001908152602001600020819055505050505050505050565b600960149054906101000a900460ff1615156133af57600080fd5b600360149054906101000a900460ff161515156133cb57600080fd5b33600460008273ffffffffffffffffffffffffffffffffffffffff1673ffffffffffffffffffffffffffffffffffffffff16815260200190815260200160002060009054906101000a900460ff1615151561342557600080fd5b600073ffffffffffffffffffffffffffffffffffffffff16600960009054906101000a900473ffffffffffffffffffffffffffffffffffffffff1673ffffffffffffffffffffffffffffffffffffffff161415151561348357600080fd5b6134af600960009054906101000a900473ffffffffffffffffffffffffffffffffffffffff1683612735565b505050565b600360009054906101000a900473ffffffffffffffffffffffffffffffffffffffff1673ffffffffffffffffffffffffffffffffffffffff163373ffffffffffffffffffffffffffffffffffffffff1614151561351057600080fd5b600073ffffffffffffffffffffffffffffffffffffffff168173ffffffffffffffffffffffffffffffffffffffff161415151561354c57600080fd5b8073ffffffffffffffffffffffffffffffffffffffff16600360009054906101000a900473ffffffffffffffffffffffffffffffffffffffff1673ffffffffffffffffffffffffffffffffffffffff167f8be0079c531659141344cd1fd0a4f28419497f9722a3daafe3b4186f6b6457e060405160405180910390a380600360006101000a81548173ffffffffffffffffffffffffffffffffffffffff021916908373ffffffffffffffffffffffffffffffffffffffff16021790555050565b600960149054906101000a900460ff16151561362757600080fd5b600360009054906101000a900473ffffffffffffffffffffffffffffffffffffffff1673ffffffffffffffffffffffffffffffffffffffff163373ffffffffffffffffffffffffffffffffffffffff1614151561368357600080fd5b6000600960146101000a81548160ff021916908315150217905550565b33600560008273ffffffffffffffffffffffffffffffffffffffff1673ffffffffffffffffffffffffffffffffffffffff16815260200190815260200160002060009054906101000a900460ff1615156136f957600080fd5b60008211151561370857600080fd5b816007819055503373ffffffffffffffffffffffffffffffffffffffff167f73e1698972cbdd48a48c8e5a4541f0ba2a3ccc27d9e839124219e655fc351f42836040518082815260200191505060405180910390a25050565b600081600260003373ffffffffffffffffffffffffffffffffffffffff1673ffffffffffffffffffffffffffffffffffffffff16815260200190815260200160002060008573ffffffffffffffffffffffffffffffffffffffff1673ffffffffffffffffffffffffffffffffffffffff168152602001908152602001600020819055508273ffffffffffffffffffffffffffffffffffffffff163373ffffffffffffffffffffffffffffffffffffffff167f8c5be1e5ebec7d5bd14f71427d1e84f3dd0314c0f7b2291e5b200ac8c7c3b925846040518082815260200191505060405180910390a36001905092915050565b60005b6000600660008473ffffffffffffffffffffffffffffffffffffffff1673ffffffffffffffffffffffffffffffffffffffff16815260200190815260200160002060020160009054906101000a900463ffffffff1663ffffffff1614158015613916575042600660008473ffffffffffffffffffffffffffffffffffffffff1673ffffffffffffffffffffffffffffffffffffffff16815260200190815260200160002060020160009054906101000a900463ffffffff1663ffffffff16105b15613c6a57613a24600660008473ffffffffffffffffffffffffffffffffffffffff1673ffffffffffffffffffffffffffffffffffffffff1681526020019081526020016000206001016000600660008673ffffffffffffffffffffffffffffffffffffffff1673ffffffffffffffffffffffffffffffffffffffff16815260200190815260200160002060020160009054906101000a900463ffffffff1663ffffffff1663ffffffff16815260200190815260200160002060000154600660008573ffffffffffffffffffffffffffffffffffffffff1673ffffffffffffffffffffffffffffffffffffffff1681526020019081526020016000206000015461416a90919063ffffffff16565b600660008473ffffffffffffffffffffffffffffffffffffffff1673ffffffffffffffffffffffffffffffffffffffff16815260200190815260200160002060000181905550600660008373ffffffffffffffffffffffffffffffffffffffff1673ffffffffffffffffffffffffffffffffffffffff16815260200190815260200160002060020160009054906101000a900463ffffffff169050600660008373ffffffffffffffffffffffffffffffffffffffff1673ffffffffffffffffffffffffffffffffffffffff1681526020019081526020016000206001016000600660008573ffffffffffffffffffffffffffffffffffffffff1673ffffffffffffffffffffffffffffffffffffffff16815260200190815260200160002060020160009054906101000a900463ffffffff1663ffffffff1663ffffffff16815260200190815260200160002060010160009054906101000a900463ffffffff16600660008473ffffffffffffffffffffffffffffffffffffffff1673ffffffffffffffffffffffffffffffffffffffff16815260200190815260200160002060020160006101000a81548163ffffffff021916908363ffffffff160217905550600660008373ffffffffffffffffffffffffffffffffffffffff1673ffffffffffffffffffffffffffffffffffffffff16815260200190815260200160002060010160008263ffffffff1663ffffffff1681526020019081526020016000206000808201600090556001820160006101000a81549063ffffffff02191690555050613856565b6000600660008473ffffffffffffffffffffffffffffffffffffffff1673ffffffffffffffffffffffffffffffffffffffff16815260200190815260200160002060020160009054906101000a900463ffffffff1663ffffffff161415613d2e576000600660008473ffffffffffffffffffffffffffffffffffffffff1673ffffffffffffffffffffffffffffffffffffffff16815260200190815260200160002060020160046101000a81548163ffffffff021916908363ffffffff1602179055505b5050565b600660008473ffffffffffffffffffffffffffffffffffffffff1673ffffffffffffffffffffffffffffffffffffffff168152602001908152602001600020600001548111151515613d8357600080fd5b613dd881600660008673ffffffffffffffffffffffffffffffffffffffff1673ffffffffffffffffffffffffffffffffffffffff1681526020019081526020016000206000015461415190919063ffffffff16565b600660008573ffffffffffffffffffffffffffffffffffffffff1673ffffffffffffffffffffffffffffffffffffffff16815260200190815260200160002060000181905550613e7381600660008573ffffffffffffffffffffffffffffffffffffffff1673ffffffffffffffffffffffffffffffffffffffff1681526020019081526020016000206000015461416a90919063ffffffff16565b600660008473ffffffffffffffffffffffffffffffffffffffff1673ffffffffffffffffffffffffffffffffffffffff16815260200190815260200160002060000181905550505050565b6000808473ffffffffffffffffffffffffffffffffffffffff1673ffffffffffffffffffffffffffffffffffffffff168152602001908152602001600020548111151515613f0b57600080fd5b613f5c816000808673ffffffffffffffffffffffffffffffffffffffff1673ffffffffffffffffffffffffffffffffffffffff1681526020019081526020016000205461415190919063ffffffff16565b6000808573ffffffffffffffffffffffffffffffffffffffff1673ffffffffffffffffffffffffffffffffffffffff16815260200190815260200160002081905550613fef816000808573ffffffffffffffffffffffffffffffffffffffff1673ffffffffffffffffffffffffffffffffffffffff1681526020019081526020016000205461416a90919063ffffffff16565b6000808473ffffffffffffffffffffffffffffffffffffffff1673ffffffffffffffffffffffffffffffffffffffff168152602001908152602001600020819055503373ffffffffffffffffffffffffffffffffffffffff168373ffffffffffffffffffffffffffffffffffffffff1614156140cf578173ffffffffffffffffffffffffffffffffffffffff168373ffffffffffffffffffffffffffffffffffffffff167fddf252ad1be2c89b69c2b068fc378daa952ba7f163c4a11628f55a4df523b3ef836040518082815260200191505060405180910390a361414c565b8173ffffffffffffffffffffffffffffffffffffffff168373ffffffffffffffffffffffffffffffffffffffff163373ffffffffffffffffffffffffffffffffffffffff167f5f7542858008eeb041631f30e6109ae94b83a58e9a58261dd2c42c508850f939846040518082815260200191505060405180910390a45b505050565b600082821115151561415f57fe5b818303905092915050565b6000818301905082811015151561417d57fe5b80905092915050565b600080600260003373ffffffffffffffffffffffffffffffffffffffff1673ffffffffffffffffffffffffffffffffffffffff16815260200190815260200160002060008573ffffffffffffffffffffffffffffffffffffffff1673ffffffffffffffffffffffffffffffffffffffff16815260200190815260200160002054905080831115614297576000600260003373ffffffffffffffffffffffffffffffffffffffff1673ffffffffffffffffffffffffffffffffffffffff16815260200190815260200160002060008673ffffffffffffffffffffffffffffffffffffffff1673ffffffffffffffffffffffffffffffffffffffff1681526020019081526020016000208190555061432b565b6142aa838261415190919063ffffffff16565b600260003373ffffffffffffffffffffffffffffffffffffffff1673ffffffffffffffffffffffffffffffffffffffff16815260200190815260200160002060008673ffffffffffffffffffffffffffffffffffffffff1673ffffffffffffffffffffffffffffffffffffffff168152602001908152602001600020819055505b8373ffffffffffffffffffffffffffffffffffffffff163373ffffffffffffffffffffffffffffffffffffffff167f8c5be1e5ebec7d5bd14f71427d1e84f3dd0314c0f7b2291e5b200ac8c7c3b925600260003373ffffffffffffffffffffffffffffffffffffffff1673ffffffffffffffffffffffffffffffffffffffff16815260200190815260200160002060008873ffffffffffffffffffffffffffffffffffffffff1673ffffffffffffffffffffffffffffffffffffffff168152602001908152602001600020546040518082815260200191505060405180910390a3600191505092915050565b60008083141561442a5760009050614449565b818302905081838281151561443b57fe5b0414151561444557fe5b8090505b92915050565b6000818381151561445c57fe5b04905092915050565b6000600960009054906101000a900473ffffffffffffffffffffffffffffffffffffffff1673ffffffffffffffffffffffffffffffffffffffff168373ffffffffffffffffffffffffffffffffffffffff161415156144c357614602565b600960149054906101000a900460ff1615156144de57600080fd5b6000821115156144ed57600080fd5b61451b601260ff16600a0a61450d6007548561441790919063ffffffff16565b61444f90919063ffffffff16565b90503073ffffffffffffffffffffffffffffffffffffffff1631811115151561454357600080fd5b6000811115614601578373ffffffffffffffffffffffffffffffffffffffff166108fc829081150290604051600060405180830381858888f19350505050158015614592573d6000803e3d6000fd5b508273ffffffffffffffffffffffffffffffffffffffff168473ffffffffffffffffffffffffffffffffffffffff167fbc9daf30c1dc1e97765d5edfb5cb2a9207827910a091ecd75cc56dc45e6f02b68484604051808381526020018281526020019250505060405180910390a35b5b50505050565b6000428263ffffffff1611151561463457614624858585613d32565b61462f858585613ebe565b615333565b6000600660008673ffffffffffffffffffffffffffffffffffffffff1673ffffffffffffffffffffffffffffffffffffffff16815260200190815260200160002060020160009054906101000a900463ffffffff1663ffffffff1614156148695781600660008673ffffffffffffffffffffffffffffffffffffffff1673ffffffffffffffffffffffffffffffffffffffff16815260200190815260200160002060020160006101000a81548163ffffffff021916908363ffffffff16021790555081600660008673ffffffffffffffffffffffffffffffffffffffff1673ffffffffffffffffffffffffffffffffffffffff16815260200190815260200160002060020160046101000a81548163ffffffff021916908363ffffffff16021790555082600660008673ffffffffffffffffffffffffffffffffffffffff1673ffffffffffffffffffffffffffffffffffffffff16815260200190815260200160002060010160008463ffffffff1663ffffffff1681526020019081526020016000206000018190555061481383600660008873ffffffffffffffffffffffffffffffffffffffff1673ffffffffffffffffffffffffffffffffffffffff1681526020019081526020016000206000015461415190919063ffffffff16565b600660008773ffffffffffffffffffffffffffffffffffffffff1673ffffffffffffffffffffffffffffffffffffffff16815260200190815260200160002060000181905550614864858585613ebe565b615333565b600660008573ffffffffffffffffffffffffffffffffffffffff1673ffffffffffffffffffffffffffffffffffffffff16815260200190815260200160002060020160009054906101000a900463ffffffff1663ffffffff168263ffffffff161015614b155782600660008673ffffffffffffffffffffffffffffffffffffffff1673ffffffffffffffffffffffffffffffffffffffff16815260200190815260200160002060010160008463ffffffff1663ffffffff16815260200190815260200160002060000181905550600660008573ffffffffffffffffffffffffffffffffffffffff1673ffffffffffffffffffffffffffffffffffffffff16815260200190815260200160002060020160009054906101000a900463ffffffff16600660008673ffffffffffffffffffffffffffffffffffffffff1673ffffffffffffffffffffffffffffffffffffffff16815260200190815260200160002060010160008463ffffffff1663ffffffff16815260200190815260200160002060010160006101000a81548163ffffffff021916908363ffffffff16021790555081600660008673ffffffffffffffffffffffffffffffffffffffff1673ffffffffffffffffffffffffffffffffffffffff16815260200190815260200160002060020160006101000a81548163ffffffff021916908363ffffffff160217905550614abf83600660008873ffffffffffffffffffffffffffffffffffffffff1673ffffffffffffffffffffffffffffffffffffffff1681526020019081526020016000206000015461415190919063ffffffff16565b600660008773ffffffffffffffffffffffffffffffffffffffff1673ffffffffffffffffffffffffffffffffffffffff16815260200190815260200160002060000181905550614b10858585613ebe565b615333565b600660008573ffffffffffffffffffffffffffffffffffffffff1673ffffffffffffffffffffffffffffffffffffffff16815260200190815260200160002060020160049054906101000a900463ffffffff1663ffffffff168263ffffffff161115614dc15782600660008673ffffffffffffffffffffffffffffffffffffffff1673ffffffffffffffffffffffffffffffffffffffff16815260200190815260200160002060010160008463ffffffff1663ffffffff1681526020019081526020016000206000018190555081600660008673ffffffffffffffffffffffffffffffffffffffff1673ffffffffffffffffffffffffffffffffffffffff1681526020019081526020016000206001016000600660008873ffffffffffffffffffffffffffffffffffffffff1673ffffffffffffffffffffffffffffffffffffffff16815260200190815260200160002060020160049054906101000a900463ffffffff1663ffffffff1663ffffffff16815260200190815260200160002060010160006101000a81548163ffffffff021916908363ffffffff16021790555081600660008673ffffffffffffffffffffffffffffffffffffffff1673ffffffffffffffffffffffffffffffffffffffff16815260200190815260200160002060020160046101000a81548163ffffffff021916908363ffffffff160217905550614d6b83600660008873ffffffffffffffffffffffffffffffffffffffff1673ffffffffffffffffffffffffffffffffffffffff1681526020019081526020016000206000015461415190919063ffffffff16565b600660008773ffffffffffffffffffffffffffffffffffffffff1673ffffffffffffffffffffffffffffffffffffffff16815260200190815260200160002060000181905550614dbc858585613ebe565b615333565b600660008573ffffffffffffffffffffffffffffffffffffffff1673ffffffffffffffffffffffffffffffffffffffff16815260200190815260200160002060020160009054906101000a900463ffffffff1690505b600115614fbc578163ffffffff168163ffffffff161480614eb057506000600660008673ffffffffffffffffffffffffffffffffffffffff1673ffffffffffffffffffffffffffffffffffffffff16815260200190815260200160002060010160008363ffffffff1663ffffffff16815260200190815260200160002060010160009054906101000a900463ffffffff1663ffffffff16145b80614f3857508163ffffffff16600660008673ffffffffffffffffffffffffffffffffffffffff1673ffffffffffffffffffffffffffffffffffffffff16815260200190815260200160002060010160008363ffffffff1663ffffffff16815260200190815260200160002060010160009054906101000a900463ffffffff1663ffffffff16115b15614f4257614fbc565b600660008573ffffffffffffffffffffffffffffffffffffffff1673ffffffffffffffffffffffffffffffffffffffff16815260200190815260200160002060010160008263ffffffff1663ffffffff16815260200190815260200160002060010160009054906101000a900463ffffffff169050614e17565b8163ffffffff168163ffffffff1614156150b05761504583600660008773ffffffffffffffffffffffffffffffffffffffff1673ffffffffffffffffffffffffffffffffffffffff16815260200190815260200160002060010160008463ffffffff1663ffffffff1681526020019081526020016000206000015461416a90919063ffffffff16565b600660008673ffffffffffffffffffffffffffffffffffffffff1673ffffffffffffffffffffffffffffffffffffffff16815260200190815260200160002060010160008363ffffffff1663ffffffff1681526020019081526020016000206000018190555061528c565b82600660008673ffffffffffffffffffffffffffffffffffffffff1673ffffffffffffffffffffffffffffffffffffffff16815260200190815260200160002060010160008463ffffffff1663ffffffff16815260200190815260200160002060000181905550600660008573ffffffffffffffffffffffffffffffffffffffff1673ffffffffffffffffffffffffffffffffffffffff16815260200190815260200160002060010160008263ffffffff1663ffffffff16815260200190815260200160002060010160009054906101000a900463ffffffff16600660008673ffffffffffffffffffffffffffffffffffffffff1673ffffffffffffffffffffffffffffffffffffffff16815260200190815260200160002060010160008463ffffffff1663ffffffff16815260200190815260200160002060010160006101000a81548163ffffffff021916908363ffffffff16021790555081600660008673ffffffffffffffffffffffffffffffffffffffff1673ffffffffffffffffffffffffffffffffffffffff16815260200190815260200160002060010160008363ffffffff1663ffffffff16815260200190815260200160002060010160006101000a81548163ffffffff021916908363ffffffff1602179055505b6152e183600660008873ffffffffffffffffffffffffffffffffffffffff1673ffffffffffffffffffffffffffffffffffffffff1681526020019081526020016000206000015461415190919063ffffffff16565b600660008773ffffffffffffffffffffffffffffffffffffffff1673ffffffffffffffffffffffffffffffffffffffff16815260200190815260200160002060000181905550615332858585613ebe565b5b5050505050565b60006153cb82600260003373ffffffffffffffffffffffffffffffffffffffff1673ffffffffffffffffffffffffffffffffffffffff16815260200190815260200160002060008673ffffffffffffffffffffffffffffffffffffffff1673ffffffffffffffffffffffffffffffffffffffff1681526020019081526020016000205461416a90919063ffffffff16565b600260003373ffffffffffffffffffffffffffffffffffffffff1673ffffffffffffffffffffffffffffffffffffffff16815260200190815260200160002060008573ffffffffffffffffffffffffffffffffffffffff1673ffffffffffffffffffffffffffffffffffffffff168152602001908152602001600020819055508273ffffffffffffffffffffffffffffffffffffffff163373ffffffffffffffffffffffffffffffffffffffff167f8c5be1e5ebec7d5bd14f71427d1e84f3dd0314c0f7b2291e5b200ac8c7c3b925600260003373ffffffffffffffffffffffffffffffffffffffff1673ffffffffffffffffffffffffffffffffffffffff16815260200190815260200160002060008773ffffffffffffffffffffffffffffffffffffffff1673ffffffffffffffffffffffffffffffffffffffff168152602001908152602001600020546040518082815260200191505060405180910390a360019050929150505600a165627a7a72305820d8bc5e0368f2049e0765e9519ad58881f888095539a6cd7113b3d084e796bda60029",
  "source": "pragma solidity ^0.4.24;\n\n\nimport \"./StandardToken.sol\";\nimport \"./Management.sol\";\n\n\n/**\n * @title SibbayHealthToken\n */\ncontract SibbayHealthToken is StandardToken, Management {\n\n  string public constant name = \"Sibbay Health Token\"; // solium-disable-line uppercase\n  string public constant symbol = \"SHT\"; // solium-disable-line uppercase\n  uint8 public constant decimals = 18; // solium-disable-line uppercase\n\n  /**\n   * \n   * , 1tokenwei(tokenwei)\n   * */\n  uint256 constant internal MAGNITUDE = 10 ** uint256(decimals);\n\n  uint256 public constant INITIAL_SUPPLY = 1000000000 * MAGNITUDE;\n\n  // , \n  event TransferEther(\n    address indexed from,\n    address indexed to,\n    uint256 tokenValue,\n    uint256 etherValue);\n  // \n  event SetSellPrice(address indexed admin, uint256 price);\n  // \n  event SetBuyPrice(address indexed admin, uint256 price);\n  // \n  event Buy(address indexed who, uint256 etherValue, uint256 tokenValue);\n  // \n  event SetFundAccount(address indexed fund);\n\n  /**\n   * maplist\n   * value \n   * _next \n   * */\n  struct Element {\n    uint256 value;\n    uint32 next;\n  }\n\n  /**\n   * \n   * availableBalances \n   * lockedElement \n   * start_date \n   * end_date \n   * */\n  struct Account {\n      uint256 availableBalances;\n      mapping(uint32 => Element) lockedElement;\n      uint32 start_date;\n      uint32 end_date;\n  }\n\n  /**\n   * \n   * */\n  mapping(address => Account) public accounts;\n\n  /**\n   * sellPrice: token , 1 tokenwei(wei)\n   * buyPrice: token , 1 tokenwei\n   * fundAccount: tokentoken\n   * buySellFlag: \n   * */\n  uint256 public sellPrice;\n  uint256 public buyPrice;\n  address public fundAccount;\n  bool public buySellFlag;\n\n  /**\n   * \n   * \n   */\n  constructor() public {\n    totalSupply_ = INITIAL_SUPPLY;\n    balances[msg.sender] = INITIAL_SUPPLY;\n    accounts[msg.sender].availableBalances = INITIAL_SUPPLY;\n    emit Transfer(0x0, msg.sender, INITIAL_SUPPLY);\n\n    /**\n     * \n     * \n     * \n     * \n     * false\n     * */\n    sellPrice = 0;\n    buyPrice = 0;\n    fundAccount = address(0);\n    buySellFlag = false;\n  }\n\n  /**\n   * fallback\n   * buy\n   * */\n  function () external payable {\n  }\n\n  /**\n   * \n   * owner\n   * */\n  function withdraw() public onlyOwner {\n    uint256 value = address(this).balance;\n    owner.transfer(value);\n  }\n\n  /**\n   * modifier token\n   * */\n  modifier whenOpenBuySell()\n  {\n    require(buySellFlag);\n    _;\n  }\n\n  /**\n   * modifier token\n   * */\n  modifier whenCloseBuySell()\n  {\n    require(!buySellFlag);\n    _;\n  }\n\n  /**\n   * , \n   * who: \n   * */\n  function getlockedBalances(address who) internal\n  {\n    uint32 tmp_date;\n    while(accounts[who].start_date != 0 &&\n          accounts[who].start_date < now)\n    {\n        accounts[who].availableBalances = accounts[who].availableBalances.add(accounts[who].lockedElement[accounts[who].start_date].value);\n        tmp_date = accounts[who].start_date;\n        accounts[who].start_date = accounts[who].lockedElement[accounts[who].start_date].next;\n        delete accounts[who].lockedElement[tmp_date];\n    }\n\n    // 0\n    if (accounts[who].start_date == 0)\n        accounts[who].end_date = 0;\n  }\n\n  /**\n   * \n   * _from token\n   * _to token\n   * _value token\n   * */\n  function transferAvailableBalances(\n    address _from,\n    address _to,\n    uint256 _value\n  )\n    internal\n  {\n    // \n    require(_value <= accounts[_from].availableBalances);\n\n    // \n    accounts[_from].availableBalances = accounts[_from].availableBalances.sub(_value);\n    accounts[_to].availableBalances = accounts[_to].availableBalances.add(_value);\n  }\n\n  /**\n   * \n   * _from token\n   * _to token\n   * _value token\n   * */\n  function transferTotalBalances(\n    address _from,\n    address _to,\n    uint256 _value\n  )\n    internal\n  {\n    // \n    require(_value <= balances[_from]);\n\n    // \n    balances[_from] = balances[_from].sub(_value);\n    balances[_to] = balances[_to].add(_value);\n\n    // \n    if(_from == msg.sender)\n        emit Transfer(_from, _to, _value);\n    else\n        emit TransferFrom(msg.sender, _from, _to, _value);\n  }\n\n  /**\n   * , \n   * _from token\n   * _to token\n   * _value token\n   * */\n  function transferEther(\n    address _from,\n    address _to,\n    uint256 _value\n  )\n    internal\n  {\n    /**\n     *  _to \n     * */\n    if (_to != fundAccount)\n        return;\n\n    /**\n     * fundAccount\n     * */\n    require(buySellFlag);\n\n    /**\n     * 0\n     * token0\n     * */\n    require(_value > 0);\n\n    // , evalue wei\n    uint256 evalue = _value.mul(sellPrice).div(MAGNITUDE);\n    require(evalue <= address(this).balance);\n\n    // \n    if (evalue > 0)\n    {\n      _from.transfer(evalue);\n      emit TransferEther(_from, _to, _value, evalue);\n    }\n  }\n\n  /**\n   * \n   * */\n  function transfer(\n    address _to,\n    uint256 _value\n  )\n    public\n    whenNotPaused\n    returns (bool)\n  {\n    // address(0)\n    if(frozenList[msg.sender])\n      require(_to == address(0));\n    else\n    {\n      // 0\n      require(_to != address(0));\n    }\n    /**\n     * \n     * */\n    getlockedBalances(msg.sender);\n\n    // \n    transferAvailableBalances(msg.sender, _to, _value);\n\n    // \n    transferTotalBalances(msg.sender, _to,  _value);\n\n    // \n    transferEther(msg.sender, _to, _value);\n\n    return true;\n  }\n\n  /**\n   * \n   *  _from  _value  _to\n   * */\n  function transferFrom(\n    address _from,\n    address _to,\n    uint256 _value\n  )\n    public\n    whenNotPaused\n    whenNotFrozen(msg.sender)\n    whenNotFrozen(_from)\n    returns (bool)\n  {\n    // token\n    require(_to != fundAccount);\n\n    // 0\n    require(_to != address(0));\n\n    /**\n     * \n     * */\n    getlockedBalances(_from);\n\n    // \n    require(_value <= allowed[_from][msg.sender]);\n\n    // \n    transferAvailableBalances(_from, _to, _value);\n\n    // \n    transferTotalBalances(_from, _to,  _value);\n\n    // \n    allowed[_from][msg.sender] = allowed[_from][msg.sender].sub(_value);\n\n    return true;\n  }\n\n  /**\n   * \n   *  _spender  _value\n   * */\n  function approve(\n    address _spender,\n    uint256 _value\n  )\n    public\n    whenNotPaused\n    whenNotFrozen(msg.sender)\n    whenNotFrozen(_spender)\n    returns (bool)\n  {\n    return super.approve(_spender, _value);\n  }\n\n  /**\n   * \n   *  _spender  _addedValue\n   * */\n  function increaseApproval(\n    address _spender,\n    uint _addedValue\n  )\n    public\n    whenNotPaused\n    whenNotFrozen(msg.sender)\n    whenNotFrozen(_spender)\n    returns (bool success)\n  {\n    return super.increaseApproval(_spender, _addedValue);\n  }\n\n  /**\n   * \n   *  _spender  _subtractedValue\n   * */\n  function decreaseApproval(\n    address _spender,\n    uint _subtractedValue\n  )\n    public\n    whenNotPaused\n    whenNotFrozen(msg.sender)\n    whenNotFrozen(_spender)\n    returns (bool success)\n  {\n    return super.decreaseApproval(_spender, _subtractedValue);\n  }\n\n  /**\n   *  token\n   *  _receivers\n   *  _values\n   * */\n  function batchTransfer(\n    address[] _receivers,\n    uint256[] _values\n  )\n    public\n    whenNotPaused\n    whenNotFrozen(msg.sender)\n  {\n    // token\n    require(_receivers.length > 0 && _receivers.length == _values.length);\n\n    /**\n     * \n     * */\n    getlockedBalances(msg.sender);\n\n    // \n    uint32 i = 0;\n    uint256 total = 0;\n    for (i = 0; i < _values.length; i ++)\n    {\n      total = total.add(_values[i]);\n    }\n    require(total <= accounts[msg.sender].availableBalances);\n\n    //  \n    for (i = 0; i < _receivers.length; i ++)\n    {\n      // token\n      require(_receivers[i] != fundAccount);\n\n      // 0\n      require(_receivers[i] != address(0));\n\n      // \n      transferAvailableBalances(msg.sender, _receivers[i], _values[i]);\n\n      // \n      transferTotalBalances(msg.sender, _receivers[i], _values[i]);\n    }\n  }\n\n  /**\n   *  token\n   *  _from\n   *  _receivers\n   *  _values\n   * */\n  function batchTransferFrom(\n    address _from,\n    address[] _receivers,\n    uint256[] _values\n  )\n    public\n    whenNotPaused\n    whenNotFrozen(msg.sender)\n    whenNotFrozen(_from)\n  {\n    // token\n    require(_receivers.length > 0 && _receivers.length == _values.length);\n\n    /**\n     * \n     * */\n    getlockedBalances(_from);\n\n    // \n    uint32 i = 0;\n    uint256 total = 0;\n    for (i = 0; i < _values.length; i ++)\n    {\n      total = total.add(_values[i]);\n    }\n    require(total <= accounts[_from].availableBalances);\n\n    // \n    require(total <= allowed[_from][msg.sender]);\n\n    //  \n    for (i = 0; i < _receivers.length; i ++)\n    {\n      // token\n      require(_receivers[i] != fundAccount);\n\n      // 0\n      require(_receivers[i] != address(0));\n\n      // \n      transferAvailableBalances(_from, _receivers[i], _values[i]);\n\n      // \n      transferTotalBalances(_from, _receivers[i], _values[i]);\n    }\n\n    // \n    allowed[_from][msg.sender] = allowed[_from][msg.sender].sub(total);\n  }\n\n  /**\n   * , token\n   * _receiver \n   * _values \n   * _dates \n   *        UTC197011\n   * */\n  function transferByDate(\n    address _receiver,\n    uint256[] _values,\n    uint32[] _dates\n  )\n    public\n    whenNotPaused\n    whenNotFrozen(msg.sender)\n  {\n    // token\n    require(_values.length > 0 &&\n        _values.length == _dates.length);\n\n    // token\n    require(_receiver != fundAccount);\n\n    // 0\n    require(_receiver != address(0));\n\n    /**\n     * \n     * */\n    getlockedBalances(msg.sender);\n\n    // \n    uint32 i = 0;\n    uint256 total = 0;\n    for (i = 0; i < _values.length; i ++)\n    {\n      total = total.add(_values[i]);\n    }\n    require(total <= accounts[msg.sender].availableBalances);\n\n    // \n    for(i = 0; i < _values.length; i ++)\n    {\n      transferByDateSingle(msg.sender, _receiver, _values[i], _dates[i]);\n    }\n  }\n\n  /**\n   * , token\n   * _from \n   * _receiver \n   * _values \n   * _dates \n   *        UTC197011\n   * */\n  function transferFromByDate(\n    address _from,\n    address _receiver,\n    uint256[] _values,\n    uint32[] _dates\n  )\n    public\n    whenNotPaused\n    whenNotFrozen(msg.sender)\n    whenNotFrozen(_from)\n  {\n    // token\n    require(_values.length > 0 &&\n        _values.length == _dates.length);\n\n    // token\n    require(_receiver != fundAccount);\n\n    // 0\n    require(_receiver != address(0));\n\n    /**\n     * \n     * */\n    getlockedBalances(_from);\n\n    // \n    uint32 i = 0;\n    uint256 total = 0;\n    for (i = 0; i < _values.length; i ++)\n    {\n      total = total.add(_values[i]);\n    }\n    require(total <= accounts[_from].availableBalances);\n\n    // \n    require(total <= allowed[_from][msg.sender]);\n\n    // \n    for(i = 0; i < _values.length; i ++)\n    {\n      transferByDateSingle(_from, _receiver, _values[i], _dates[i]);\n    }\n\n    // \n    allowed[_from][msg.sender] = allowed[_from][msg.sender].sub(total);\n  }\n\n  /**\n   * _from token\n   * _to \n   * _value \n   * _date \n   *       UTC197011\n   * */\n  function transferByDateSingle(\n    address _from,\n    address _to,\n    uint256 _value,\n    uint32 _date\n  )\n    internal\n  {\n    /**\n     * \n     * */\n    if (_date <= now)\n    {\n      // \n      transferAvailableBalances(_from, _to, _value);\n\n      // \n      transferTotalBalances(_from, _to, _value);\n\n      return ;\n    }\n\n    // \n    if (accounts[_to].start_date == 0)\n    {\n      // \n      accounts[_to].start_date = _date;\n      accounts[_to].end_date = _date;\n      accounts[_to].lockedElement[_date].value = _value;\n\n      // _from\n      accounts[_from].availableBalances = accounts[_from].availableBalances.sub(_value);\n      // \n      transferTotalBalances(_from, _to, _value);\n\n      return ;\n    }\n\n    // \n    if (_date < accounts[_to].start_date)\n    {\n      // \n      accounts[_to].lockedElement[_date].value = _value;\n      accounts[_to].lockedElement[_date].next = accounts[_to].start_date;\n      accounts[_to].start_date = _date;\n\n      // _from\n      accounts[_from].availableBalances = accounts[_from].availableBalances.sub(_value);\n      // \n      transferTotalBalances(_from, _to, _value);\n\n      return ;\n    }\n\n    // \n    if (_date > accounts[_to].end_date)\n    {\n        accounts[_to].lockedElement[_date].value = _value;\n        accounts[_to].lockedElement[accounts[_to].end_date].next = _date;\n        accounts[_to].end_date = _date;\n\n      // _from\n      accounts[_from].availableBalances = accounts[_from].availableBalances.sub(_value);\n      // \n      transferTotalBalances(_from, _to, _value);\n\n      return ;\n    }\n\n    /**\n     *  \n     * \n     * \n     * */\n    uint32 tmp_date = accounts[_to].start_date;\n    while(true)\n    {\n      if((tmp_date == _date) ||\n         (accounts[_to].lockedElement[tmp_date].next == 0) ||\n         (accounts[_to].lockedElement[tmp_date].next > _date))\n          break;\n      tmp_date = accounts[_to].lockedElement[tmp_date].next;\n    }\n    if(tmp_date == _date)\n    {\n      accounts[_to].lockedElement[tmp_date].value = accounts[_to].lockedElement[tmp_date].value.add(_value);\n    }\n    else\n    {\n      accounts[_to].lockedElement[_date].value = _value;\n      accounts[_to].lockedElement[_date].next = accounts[_to].lockedElement[tmp_date].next;\n      accounts[_to].lockedElement[tmp_date].next = _date;\n    }\n\n    // _from\n    accounts[_from].availableBalances = accounts[_from].availableBalances.sub(_value);\n    // \n    transferTotalBalances(_from, _to, _value);\n\n    return ;\n  }\n\n  /**\n   * buy tokens\n   * */\n  function buy()\n    public\n    whenOpenBuySell\n    whenNotPaused\n    whenNotFrozen(msg.sender)\n    payable\n  {\n    /**\n     * value0\n     * */\n    require(msg.value > 0);\n\n    // token\n    uint256 tvalue = msg.value.mul(MAGNITUDE).div(buyPrice);\n\n    // token\n    if (tvalue > 0)\n    {\n      // \n      fundAccount.transfer(msg.value);\n\n      // \n      transferAvailableBalances(fundAccount, msg.sender, tvalue);\n\n      // \n      transferTotalBalances(fundAccount, msg.sender, tvalue);\n\n      // Buy\n      emit Buy(msg.sender, msg.value, tvalue);\n    }\n  }\n\n  /**\n   * sell tokens\n   * */\n  function sell(uint256 _value)\n    public\n    whenOpenBuySell\n    whenNotPaused\n    whenNotFrozen(msg.sender)\n  {\n    require(fundAccount != address(0));\n    transfer(fundAccount, _value);\n  }\n\n  /**\n   * token\n   * */\n  function setSellPrice(uint256 price)\n    public\n    whenAdministrator(msg.sender)\n  {\n    require(price > 0);\n    sellPrice = price;\n\n    emit SetSellPrice(msg.sender, price);\n  }\n\n  /**\n   * token\n   * */\n  function setBuyPrice(uint256 price)\n    public\n    whenAdministrator(msg.sender)\n  {\n    require(price > 0);\n    buyPrice = price;\n\n    emit SetBuyPrice(msg.sender, price);\n  }\n\n  /**\n   * \n   * */\n  function setFundAccount(address fund)\n    public\n    onlyOwner\n  {\n    require(fund != address(0));\n    fundAccount = fund;\n\n    emit SetFundAccount(fund);\n  }\n\n  /**\n   * token\n   * */\n  function openBuySell()\n    public\n    whenCloseBuySell\n    onlyOwner\n  {\n    require(fundAccount != address(0));\n    require(sellPrice > 0);\n    require(buyPrice > 0);\n    buySellFlag = true;\n  }\n\n  /**\n   * token\n   * */\n  function closeBuySell()\n    public\n    whenOpenBuySell\n    onlyOwner\n  {\n    buySellFlag = false;\n  }\n\n  /**\n   * \n   * */\n  function getAvailableBalances(address _who)\n    public\n    view\n    returns (uint256)\n  {\n    return accounts[_who].availableBalances;\n  }\n\n}\n",
  "sourcePath": "/Users/lifei/workspaces/sibbay-ai/token/contracts/SibbayHealthToken.sol",
  "compiler": {
    "name": "solc",
    "version": "0.4.24+commit.e67f0147.Emscripten.clang"
  },
  "schemaVersion": "2.0.1",
  "updatedAt": "2018-08-26T05:14:12.271Z"
}