{
  "contractName": "SibbayHealthToken",
  "abi": [
    {
      "constant": true,
      "inputs": [],
      "name": "name",
      "outputs": [
        {
          "name": "",
          "type": "string"
        }
      ],
      "payable": false,
      "stateMutability": "view",
      "type": "function"
    },
    {
      "constant": false,
      "inputs": [
        {
          "name": "who",
          "type": "address"
        }
      ],
      "name": "delAdministrator",
      "outputs": [],
      "payable": false,
      "stateMutability": "nonpayable",
      "type": "function"
    },
    {
      "constant": true,
      "inputs": [],
      "name": "totalSupply",
      "outputs": [
        {
          "name": "",
          "type": "uint256"
        }
      ],
      "payable": false,
      "stateMutability": "view",
      "type": "function"
    },
    {
      "constant": true,
      "inputs": [
        {
          "name": "",
          "type": "address"
        }
      ],
      "name": "adminList",
      "outputs": [
        {
          "name": "",
          "type": "bool"
        }
      ],
      "payable": false,
      "stateMutability": "view",
      "type": "function"
    },
    {
      "constant": true,
      "inputs": [],
      "name": "INITIAL_SUPPLY",
      "outputs": [
        {
          "name": "",
          "type": "uint256"
        }
      ],
      "payable": false,
      "stateMutability": "view",
      "type": "function"
    },
    {
      "constant": true,
      "inputs": [],
      "name": "decimals",
      "outputs": [
        {
          "name": "",
          "type": "uint8"
        }
      ],
      "payable": false,
      "stateMutability": "view",
      "type": "function"
    },
    {
      "constant": false,
      "inputs": [],
      "name": "unpause",
      "outputs": [],
      "payable": false,
      "stateMutability": "nonpayable",
      "type": "function"
    },
    {
      "constant": true,
      "inputs": [],
      "name": "sellPrice",
      "outputs": [
        {
          "name": "",
          "type": "uint256"
        }
      ],
      "payable": false,
      "stateMutability": "view",
      "type": "function"
    },
    {
      "constant": true,
      "inputs": [],
      "name": "paused",
      "outputs": [
        {
          "name": "",
          "type": "bool"
        }
      ],
      "payable": false,
      "stateMutability": "view",
      "type": "function"
    },
    {
      "constant": true,
      "inputs": [
        {
          "name": "",
          "type": "address"
        }
      ],
      "name": "accounts",
      "outputs": [
        {
          "name": "lockedBalances",
          "type": "uint256"
        },
        {
          "name": "start_date",
          "type": "uint256"
        },
        {
          "name": "end_date",
          "type": "uint256"
        }
      ],
      "payable": false,
      "stateMutability": "view",
      "type": "function"
    },
    {
      "constant": true,
      "inputs": [
        {
          "name": "",
          "type": "address"
        }
      ],
      "name": "frozenList",
      "outputs": [
        {
          "name": "",
          "type": "bool"
        }
      ],
      "payable": false,
      "stateMutability": "view",
      "type": "function"
    },
    {
      "constant": false,
      "inputs": [],
      "name": "renounceOwnership",
      "outputs": [],
      "payable": false,
      "stateMutability": "nonpayable",
      "type": "function"
    },
    {
      "constant": true,
      "inputs": [],
      "name": "buySellFlag",
      "outputs": [
        {
          "name": "",
          "type": "bool"
        }
      ],
      "payable": false,
      "stateMutability": "view",
      "type": "function"
    },
    {
      "constant": false,
      "inputs": [],
      "name": "pause",
      "outputs": [],
      "payable": false,
      "stateMutability": "nonpayable",
      "type": "function"
    },
    {
      "constant": true,
      "inputs": [],
      "name": "buyPrice",
      "outputs": [
        {
          "name": "",
          "type": "uint256"
        }
      ],
      "payable": false,
      "stateMutability": "view",
      "type": "function"
    },
    {
      "constant": true,
      "inputs": [],
      "name": "owner",
      "outputs": [
        {
          "name": "",
          "type": "address"
        }
      ],
      "payable": false,
      "stateMutability": "view",
      "type": "function"
    },
    {
      "constant": true,
      "inputs": [],
      "name": "symbol",
      "outputs": [
        {
          "name": "",
          "type": "string"
        }
      ],
      "payable": false,
      "stateMutability": "view",
      "type": "function"
    },
    {
      "constant": false,
      "inputs": [
        {
          "name": "who",
          "type": "address"
        }
      ],
      "name": "unfroze",
      "outputs": [],
      "payable": false,
      "stateMutability": "nonpayable",
      "type": "function"
    },
    {
      "constant": false,
      "inputs": [
        {
          "name": "who",
          "type": "address"
        }
      ],
      "name": "addAdministrator",
      "outputs": [],
      "payable": false,
      "stateMutability": "nonpayable",
      "type": "function"
    },
    {
      "constant": false,
      "inputs": [
        {
          "name": "who",
          "type": "address"
        }
      ],
      "name": "froze",
      "outputs": [],
      "payable": false,
      "stateMutability": "nonpayable",
      "type": "function"
    },
    {
      "constant": true,
      "inputs": [],
      "name": "fundAccount",
      "outputs": [
        {
          "name": "",
          "type": "address"
        }
      ],
      "payable": false,
      "stateMutability": "view",
      "type": "function"
    },
    {
      "constant": true,
      "inputs": [
        {
          "name": "_owner",
          "type": "address"
        },
        {
          "name": "_spender",
          "type": "address"
        }
      ],
      "name": "allowance",
      "outputs": [
        {
          "name": "",
          "type": "uint256"
        }
      ],
      "payable": false,
      "stateMutability": "view",
      "type": "function"
    },
    {
      "constant": false,
      "inputs": [
        {
          "name": "newOwner",
          "type": "address"
        }
      ],
      "name": "transferOwnership",
      "outputs": [],
      "payable": false,
      "stateMutability": "nonpayable",
      "type": "function"
    },
    {
      "inputs": [],
      "payable": false,
      "stateMutability": "nonpayable",
      "type": "constructor"
    },
    {
      "payable": true,
      "stateMutability": "payable",
      "type": "fallback"
    },
    {
      "anonymous": false,
      "inputs": [
        {
          "indexed": true,
          "name": "from",
          "type": "address"
        },
        {
          "indexed": true,
          "name": "to",
          "type": "address"
        },
        {
          "indexed": false,
          "name": "tokenValue",
          "type": "uint256"
        },
        {
          "indexed": false,
          "name": "etherValue",
          "type": "uint256"
        }
      ],
      "name": "TransferEther",
      "type": "event"
    },
    {
      "anonymous": false,
      "inputs": [
        {
          "indexed": true,
          "name": "admin",
          "type": "address"
        },
        {
          "indexed": false,
          "name": "price",
          "type": "uint256"
        }
      ],
      "name": "SetSellPrice",
      "type": "event"
    },
    {
      "anonymous": false,
      "inputs": [
        {
          "indexed": true,
          "name": "admin",
          "type": "address"
        },
        {
          "indexed": false,
          "name": "price",
          "type": "uint256"
        }
      ],
      "name": "SetBuyPrice",
      "type": "event"
    },
    {
      "anonymous": false,
      "inputs": [
        {
          "indexed": true,
          "name": "who",
          "type": "address"
        },
        {
          "indexed": false,
          "name": "etherValue",
          "type": "uint256"
        },
        {
          "indexed": false,
          "name": "tokenValue",
          "type": "uint256"
        }
      ],
      "name": "Buy",
      "type": "event"
    },
    {
      "anonymous": false,
      "inputs": [
        {
          "indexed": true,
          "name": "fund",
          "type": "address"
        }
      ],
      "name": "SetFundAccount",
      "type": "event"
    },
    {
      "anonymous": false,
      "inputs": [
        {
          "indexed": true,
          "name": "from",
          "type": "address"
        },
        {
          "indexed": true,
          "name": "to",
          "type": "address"
        },
        {
          "indexed": false,
          "name": "values",
          "type": "uint256[]"
        },
        {
          "indexed": false,
          "name": "dates",
          "type": "uint256[]"
        }
      ],
      "name": "TransferByDate",
      "type": "event"
    },
    {
      "anonymous": false,
      "inputs": [
        {
          "indexed": true,
          "name": "spender",
          "type": "address"
        },
        {
          "indexed": true,
          "name": "from",
          "type": "address"
        },
        {
          "indexed": true,
          "name": "to",
          "type": "address"
        },
        {
          "indexed": false,
          "name": "values",
          "type": "uint256[]"
        },
        {
          "indexed": false,
          "name": "dates",
          "type": "uint256[]"
        }
      ],
      "name": "TransferFromByDate",
      "type": "event"
    },
    {
      "anonymous": false,
      "inputs": [],
      "name": "Pause",
      "type": "event"
    },
    {
      "anonymous": false,
      "inputs": [],
      "name": "Unpause",
      "type": "event"
    },
    {
      "anonymous": false,
      "inputs": [
        {
          "indexed": true,
          "name": "admin",
          "type": "address"
        },
        {
          "indexed": true,
          "name": "who",
          "type": "address"
        }
      ],
      "name": "Froze",
      "type": "event"
    },
    {
      "anonymous": false,
      "inputs": [
        {
          "indexed": true,
          "name": "admin",
          "type": "address"
        },
        {
          "indexed": true,
          "name": "who",
          "type": "address"
        }
      ],
      "name": "Unfroze",
      "type": "event"
    },
    {
      "anonymous": false,
      "inputs": [
        {
          "indexed": true,
          "name": "admin",
          "type": "address"
        }
      ],
      "name": "AddAdministrator",
      "type": "event"
    },
    {
      "anonymous": false,
      "inputs": [
        {
          "indexed": true,
          "name": "admin",
          "type": "address"
        }
      ],
      "name": "DelAdministrator",
      "type": "event"
    },
    {
      "anonymous": false,
      "inputs": [
        {
          "indexed": true,
          "name": "previousOwner",
          "type": "address"
        }
      ],
      "name": "OwnershipRenounced",
      "type": "event"
    },
    {
      "anonymous": false,
      "inputs": [
        {
          "indexed": true,
          "name": "previousOwner",
          "type": "address"
        },
        {
          "indexed": true,
          "name": "newOwner",
          "type": "address"
        }
      ],
      "name": "OwnershipTransferred",
      "type": "event"
    },
    {
      "anonymous": false,
      "inputs": [
        {
          "indexed": true,
          "name": "spender",
          "type": "address"
        },
        {
          "indexed": true,
          "name": "from",
          "type": "address"
        },
        {
          "indexed": true,
          "name": "to",
          "type": "address"
        },
        {
          "indexed": false,
          "name": "value",
          "type": "uint256"
        }
      ],
      "name": "TransferFrom",
      "type": "event"
    },
    {
      "anonymous": false,
      "inputs": [
        {
          "indexed": true,
          "name": "owner",
          "type": "address"
        },
        {
          "indexed": true,
          "name": "spender",
          "type": "address"
        },
        {
          "indexed": false,
          "name": "value",
          "type": "uint256"
        }
      ],
      "name": "Approval",
      "type": "event"
    },
    {
      "anonymous": false,
      "inputs": [
        {
          "indexed": true,
          "name": "from",
          "type": "address"
        },
        {
          "indexed": true,
          "name": "to",
          "type": "address"
        },
        {
          "indexed": false,
          "name": "value",
          "type": "uint256"
        }
      ],
      "name": "Transfer",
      "type": "event"
    },
    {
      "constant": false,
      "inputs": [],
      "name": "withdraw",
      "outputs": [],
      "payable": false,
      "stateMutability": "nonpayable",
      "type": "function"
    },
    {
      "constant": false,
      "inputs": [
        {
          "name": "_to",
          "type": "address"
        },
        {
          "name": "_value",
          "type": "uint256"
        }
      ],
      "name": "transfer",
      "outputs": [
        {
          "name": "",
          "type": "bool"
        }
      ],
      "payable": false,
      "stateMutability": "nonpayable",
      "type": "function"
    },
    {
      "constant": false,
      "inputs": [
        {
          "name": "_from",
          "type": "address"
        },
        {
          "name": "_to",
          "type": "address"
        },
        {
          "name": "_value",
          "type": "uint256"
        }
      ],
      "name": "transferFrom",
      "outputs": [
        {
          "name": "",
          "type": "bool"
        }
      ],
      "payable": false,
      "stateMutability": "nonpayable",
      "type": "function"
    },
    {
      "constant": false,
      "inputs": [
        {
          "name": "_spender",
          "type": "address"
        },
        {
          "name": "_value",
          "type": "uint256"
        }
      ],
      "name": "approve",
      "outputs": [
        {
          "name": "",
          "type": "bool"
        }
      ],
      "payable": false,
      "stateMutability": "nonpayable",
      "type": "function"
    },
    {
      "constant": false,
      "inputs": [
        {
          "name": "_spender",
          "type": "address"
        },
        {
          "name": "_addedValue",
          "type": "uint256"
        }
      ],
      "name": "increaseApproval",
      "outputs": [
        {
          "name": "success",
          "type": "bool"
        }
      ],
      "payable": false,
      "stateMutability": "nonpayable",
      "type": "function"
    },
    {
      "constant": false,
      "inputs": [
        {
          "name": "_spender",
          "type": "address"
        },
        {
          "name": "_subtractedValue",
          "type": "uint256"
        }
      ],
      "name": "decreaseApproval",
      "outputs": [
        {
          "name": "success",
          "type": "bool"
        }
      ],
      "payable": false,
      "stateMutability": "nonpayable",
      "type": "function"
    },
    {
      "constant": false,
      "inputs": [
        {
          "name": "_receivers",
          "type": "address[]"
        },
        {
          "name": "_values",
          "type": "uint256[]"
        }
      ],
      "name": "batchTransfer",
      "outputs": [],
      "payable": false,
      "stateMutability": "nonpayable",
      "type": "function"
    },
    {
      "constant": false,
      "inputs": [
        {
          "name": "_from",
          "type": "address"
        },
        {
          "name": "_receivers",
          "type": "address[]"
        },
        {
          "name": "_values",
          "type": "uint256[]"
        }
      ],
      "name": "batchTransferFrom",
      "outputs": [],
      "payable": false,
      "stateMutability": "nonpayable",
      "type": "function"
    },
    {
      "constant": false,
      "inputs": [
        {
          "name": "_receiver",
          "type": "address"
        },
        {
          "name": "_values",
          "type": "uint256[]"
        },
        {
          "name": "_dates",
          "type": "uint256[]"
        }
      ],
      "name": "transferByDate",
      "outputs": [],
      "payable": false,
      "stateMutability": "nonpayable",
      "type": "function"
    },
    {
      "constant": false,
      "inputs": [
        {
          "name": "_from",
          "type": "address"
        },
        {
          "name": "_receiver",
          "type": "address"
        },
        {
          "name": "_values",
          "type": "uint256[]"
        },
        {
          "name": "_dates",
          "type": "uint256[]"
        }
      ],
      "name": "transferFromByDate",
      "outputs": [],
      "payable": false,
      "stateMutability": "nonpayable",
      "type": "function"
    },
    {
      "constant": false,
      "inputs": [],
      "name": "buy",
      "outputs": [],
      "payable": true,
      "stateMutability": "payable",
      "type": "function"
    },
    {
      "constant": false,
      "inputs": [
        {
          "name": "_value",
          "type": "uint256"
        }
      ],
      "name": "sell",
      "outputs": [],
      "payable": false,
      "stateMutability": "nonpayable",
      "type": "function"
    },
    {
      "constant": false,
      "inputs": [
        {
          "name": "price",
          "type": "uint256"
        }
      ],
      "name": "setSellPrice",
      "outputs": [],
      "payable": false,
      "stateMutability": "nonpayable",
      "type": "function"
    },
    {
      "constant": false,
      "inputs": [
        {
          "name": "price",
          "type": "uint256"
        }
      ],
      "name": "setBuyPrice",
      "outputs": [],
      "payable": false,
      "stateMutability": "nonpayable",
      "type": "function"
    },
    {
      "constant": false,
      "inputs": [
        {
          "name": "fund",
          "type": "address"
        }
      ],
      "name": "setFundAccount",
      "outputs": [],
      "payable": false,
      "stateMutability": "nonpayable",
      "type": "function"
    },
    {
      "constant": false,
      "inputs": [],
      "name": "openBuySell",
      "outputs": [],
      "payable": false,
      "stateMutability": "nonpayable",
      "type": "function"
    },
    {
      "constant": false,
      "inputs": [],
      "name": "closeBuySell",
      "outputs": [],
      "payable": false,
      "stateMutability": "nonpayable",
      "type": "function"
    },
    {
      "constant": true,
      "inputs": [
        {
          "name": "_who",
          "type": "address"
        }
      ],
      "name": "availableBalanceOf",
      "outputs": [
        {
          "name": "",
          "type": "uint256"
        }
      ],
      "payable": false,
      "stateMutability": "view",
      "type": "function"
    },
    {
      "constant": true,
      "inputs": [
        {
          "name": "_who",
          "type": "address"
        }
      ],
      "name": "lockedBalanceOf",
      "outputs": [
        {
          "name": "",
          "type": "uint256"
        }
      ],
      "payable": false,
      "stateMutability": "view",
      "type": "function"
    },
    {
      "constant": true,
      "inputs": [
        {
          "name": "_who",
          "type": "address"
        },
        {
          "name": "date",
          "type": "uint256"
        }
      ],
      "name": "lockedBalanceOfByDate",
      "outputs": [
        {
          "name": "",
          "type": "uint256"
        },
        {
          "name": "",
          "type": "uint256"
        }
      ],
      "payable": false,
      "stateMutability": "view",
      "type": "function"
    },
    {
      "constant": true,
      "inputs": [
        {
          "name": "_owner",
          "type": "address"
        }
      ],
      "name": "balanceOf",
      "outputs": [
        {
          "name": "",
          "type": "uint256"
        }
      ],
      "payable": false,
      "stateMutability": "view",
      "type": "function"
    }
  ],
  "bytecode": "0x60806040526000600360146101000a81548160ff02191690831515021790555034801561002b57600080fd5b5033600360006101000a81548173ffffffffffffffffffffffffffffffffffffffff021916908373ffffffffffffffffffffffffffffffffffffffff160217905550600160056000600360009054906101000a900473ffffffffffffffffffffffffffffffffffffffff1673ffffffffffffffffffffffffffffffffffffffff1673ffffffffffffffffffffffffffffffffffffffff16815260200190815260200160002060006101000a81548160ff021916908315150217905550601260ff16600a0a633b9aca0002600181905550601260ff16600a0a633b9aca00026000803373ffffffffffffffffffffffffffffffffffffffff1673ffffffffffffffffffffffffffffffffffffffff168152602001908152602001600020819055503373ffffffffffffffffffffffffffffffffffffffff1660007fddf252ad1be2c89b69c2b068fc378daa952ba7f163c4a11628f55a4df523b3ef601260ff16600a0a633b9aca00026040518082815260200191505060405180910390a3600060078190555060006008819055506000600960006101000a81548173ffffffffffffffffffffffffffffffffffffffff021916908373ffffffffffffffffffffffffffffffffffffffff1602179055506000600960146101000a81548160ff0219169083151502179055506150cd806102246000396000f30060806040526004361061021a576000357c0100000000000000000000000000000000000000000000000000000000900463ffffffff16806306fdde031461021c578063095ea7b3146102ac578063113ee9641461031157806315dfaccd146103fa57806318160ddd1461043d57806323b872dd1461046857806325d998bb146104ed57806327304dfd146105445780632ff2e9dc1461059f578063313ce567146105ca5780633ccfd60b146105fb5780633f4ba83a146106125780634885b254146106295780634b750334146106f2578063593557361461071d5780635c975abb146107745780635e5c06e2146107a357806363ae8d6c14610808578063661884631461083557806369ea5cda1461089a5780636a8269b4146108b15780636b1bfd331461090c57806370a082311461094f578063715018a6146109a65780637ab2af09146109bd5780638456cb59146109ec5780638620410b14610a0357806388d695b214610a2e5780638da5cb5b14610ad75780639226237514610b2e57806395d89b4114610bf7578063a6f2ae3a14610c87578063a9059cbb14610c91578063b5632cec14610cf6578063c999117614610d39578063d6b5082f14610d7c578063d73dd62314610dbf578063d9a8748c14610e24578063dd62ed3e14610e7b578063e1fac58d14610ef2578063e4849b3214610f5a578063f2fde38b14610f87578063f87589a214610fca578063fc6634b914610fe1575b005b34801561022857600080fd5b5061023161100e565b6040518080602001828103825283818151815260200191508051906020019080838360005b83811015610271578082015181840152602081019050610256565b50505050905090810190601f16801561029e5780820380516001836020036101000a031916815260200191505b509250505060405180910390f35b3480156102b857600080fd5b506102f7600480360381019080803573ffffffffffffffffffffffffffffffffffffffff16906020019092919080359060200190929190505050611047565b604051808215151515815260200191505060405180910390f35b34801561031d57600080fd5b506103f8600480360381019080803573ffffffffffffffffffffffffffffffffffffffff169060200190929190803573ffffffffffffffffffffffffffffffffffffffff169060200190929190803590602001908201803590602001908080602002602001604051908101604052809392919081815260200183836020028082843782019150505050505091929192908035906020019082018035906020019080806020026020016040519081016040528093929190818152602001838360200280828437820191505050505050919291929050505061112d565b005b34801561040657600080fd5b5061043b600480360381019080803573ffffffffffffffffffffffffffffffffffffffff169060200190929190505050611678565b005b34801561044957600080fd5b50610452611769565b6040518082815260200191505060405180910390f35b34801561047457600080fd5b506104d3600480360381019080803573ffffffffffffffffffffffffffffffffffffffff169060200190929190803573ffffffffffffffffffffffffffffffffffffffff16906020019092919080359060200190929190505050611773565b604051808215151515815260200191505060405180910390f35b3480156104f957600080fd5b5061052e600480360381019080803573ffffffffffffffffffffffffffffffffffffffff169060200190929190505050611a99565b6040518082815260200191505060405180910390f35b34801561055057600080fd5b50610585600480360381019080803573ffffffffffffffffffffffffffffffffffffffff169060200190929190505050611ae1565b604051808215151515815260200191505060405180910390f35b3480156105ab57600080fd5b506105b4611b01565b6040518082815260200191505060405180910390f35b3480156105d657600080fd5b506105df611b12565b604051808260ff1660ff16815260200191505060405180910390f35b34801561060757600080fd5b50610610611b17565b005b34801561061e57600080fd5b50610627611bfb565b005b34801561063557600080fd5b506106f0600480360381019080803573ffffffffffffffffffffffffffffffffffffffff1690602001909291908035906020019082018035906020019080806020026020016040519081016040528093929190818152602001838360200280828437820191505050505050919291929080359060200190820180359060200190808060200260200160405190810160405280939291908181526020018383602002808284378201915050505050509192919290505050611cbb565b005b3480156106fe57600080fd5b50610707612138565b6040518082815260200191505060405180910390f35b34801561072957600080fd5b5061075e600480360381019080803573ffffffffffffffffffffffffffffffffffffffff16906020019092919050505061213e565b6040518082815260200191505060405180910390f35b34801561078057600080fd5b5061078961218a565b604051808215151515815260200191505060405180910390f35b3480156107af57600080fd5b506107e4600480360381019080803573ffffffffffffffffffffffffffffffffffffffff16906020019092919050505061219d565b60405180848152602001838152602001828152602001935050505060405180910390f35b34801561081457600080fd5b50610833600480360381019080803590602001909291905050506121c7565b005b34801561084157600080fd5b50610880600480360381019080803573ffffffffffffffffffffffffffffffffffffffff16906020019092919080359060200190929190505050612288565b604051808215151515815260200191505060405180910390f35b3480156108a657600080fd5b506108af61236e565b005b3480156108bd57600080fd5b506108f2600480360381019080803573ffffffffffffffffffffffffffffffffffffffff169060200190929190505050612483565b604051808215151515815260200191505060405180910390f35b34801561091857600080fd5b5061094d600480360381019080803573ffffffffffffffffffffffffffffffffffffffff1690602001909291905050506124a3565b005b34801561095b57600080fd5b50610990600480360381019080803573ffffffffffffffffffffffffffffffffffffffff1690602001909291905050506125c2565b6040518082815260200191505060405180910390f35b3480156109b257600080fd5b506109bb61264e565b005b3480156109c957600080fd5b506109d2612753565b604051808215151515815260200191505060405180910390f35b3480156109f857600080fd5b50610a01612766565b005b348015610a0f57600080fd5b50610a18612827565b6040518082815260200191505060405180910390f35b348015610a3a57600080fd5b50610ad5600480360381019080803590602001908201803590602001908080602002602001604051908101604052809392919081815260200183836020028082843782019150505050505091929192908035906020019082018035906020019080806020026020016040519081016040528093929190818152602001838360200280828437820191505050505050919291929050505061282d565b005b348015610ae357600080fd5b50610aec612ab4565b604051808273ffffffffffffffffffffffffffffffffffffffff1673ffffffffffffffffffffffffffffffffffffffff16815260200191505060405180910390f35b348015610b3a57600080fd5b50610bf5600480360381019080803573ffffffffffffffffffffffffffffffffffffffff1690602001909291908035906020019082018035906020019080806020026020016040519081016040528093929190818152602001838360200280828437820191505050505050919291929080359060200190820180359060200190808060200260200160405190810160405280939291908181526020018383602002808284378201915050505050509192919290505050612ada565b005b348015610c0357600080fd5b50610c0c612e18565b6040518080602001828103825283818151815260200191508051906020019080838360005b83811015610c4c578082015181840152602081019050610c31565b50505050905090810190601f168015610c795780820380516001836020036101000a031916815260200191505b509250505060405180910390f35b610c8f612e51565b005b348015610c9d57600080fd5b50610cdc600480360381019080803573ffffffffffffffffffffffffffffffffffffffff1690602001909291908035906020019092919050505061301d565b604051808215151515815260200191505060405180910390f35b348015610d0257600080fd5b50610d37600480360381019080803573ffffffffffffffffffffffffffffffffffffffff169060200190929190505050613133565b005b348015610d4557600080fd5b50610d7a600480360381019080803573ffffffffffffffffffffffffffffffffffffffff169060200190929190505050613239565b005b348015610d8857600080fd5b50610dbd600480360381019080803573ffffffffffffffffffffffffffffffffffffffff169060200190929190505050613333565b005b348015610dcb57600080fd5b50610e0a600480360381019080803573ffffffffffffffffffffffffffffffffffffffff16906020019092919080359060200190929190505050613442565b604051808215151515815260200191505060405180910390f35b348015610e3057600080fd5b50610e39613528565b604051808273ffffffffffffffffffffffffffffffffffffffff1673ffffffffffffffffffffffffffffffffffffffff16815260200191505060405180910390f35b348015610e8757600080fd5b50610edc600480360381019080803573ffffffffffffffffffffffffffffffffffffffff169060200190929190803573ffffffffffffffffffffffffffffffffffffffff16906020019092919050505061354e565b6040518082815260200191505060405180910390f35b348015610efe57600080fd5b50610f3d600480360381019080803573ffffffffffffffffffffffffffffffffffffffff169060200190929190803590602001909291905050506135d5565b604051808381526020018281526020019250505060405180910390f35b348015610f6657600080fd5b50610f8560048036038101908080359060200190929190505050613691565b005b348015610f9357600080fd5b50610fc8600480360381019080803573ffffffffffffffffffffffffffffffffffffffff1690602001909291905050506137b1565b005b348015610fd657600080fd5b50610fdf613909565b005b348015610fed57600080fd5b5061100c6004803603810190808035906020019092919050505061399d565b005b6040805190810160405280601381526020017f536962626179204865616c746820546f6b656e0000000000000000000000000081525081565b6000600360149054906101000a900460ff1615151561106557600080fd5b33600460008273ffffffffffffffffffffffffffffffffffffffff1673ffffffffffffffffffffffffffffffffffffffff16815260200190815260200160002060009054906101000a900460ff161515156110bf57600080fd5b83600460008273ffffffffffffffffffffffffffffffffffffffff1673ffffffffffffffffffffffffffffffffffffffff16815260200190815260200160002060009054906101000a900460ff1615151561111957600080fd5b6111238585613a5e565b9250505092915050565b600080600360149054906101000a900460ff1615151561114c57600080fd5b33600460008273ffffffffffffffffffffffffffffffffffffffff1673ffffffffffffffffffffffffffffffffffffffff16815260200190815260200160002060009054906101000a900460ff161515156111a657600080fd5b86600460008273ffffffffffffffffffffffffffffffffffffffff1673ffffffffffffffffffffffffffffffffffffffff16815260200190815260200160002060009054906101000a900460ff1615151561120057600080fd5b60008651118015611212575084518651145b151561121d57600080fd5b600960009054906101000a900473ffffffffffffffffffffffffffffffffffffffff1673ffffffffffffffffffffffffffffffffffffffff168773ffffffffffffffffffffffffffffffffffffffff161415151561127a57600080fd5b600073ffffffffffffffffffffffffffffffffffffffff168773ffffffffffffffffffffffffffffffffffffffff16141515156112b657600080fd5b6112bf88613b50565b6000935060009250600093505b85518463ffffffff16101561131a5761130b868563ffffffff168151811015156112f257fe5b9060200190602002015184613f5490919063ffffffff16565b925083806001019450506112cc565b6000808973ffffffffffffffffffffffffffffffffffffffff1673ffffffffffffffffffffffffffffffffffffffff16815260200190815260200160002054831115151561136757600080fd5b600260008973ffffffffffffffffffffffffffffffffffffffff1673ffffffffffffffffffffffffffffffffffffffff16815260200190815260200160002060003373ffffffffffffffffffffffffffffffffffffffff1673ffffffffffffffffffffffffffffffffffffffff1681526020019081526020016000205483111515156113f257600080fd5b61148183600260008b73ffffffffffffffffffffffffffffffffffffffff1673ffffffffffffffffffffffffffffffffffffffff16815260200190815260200160002060003373ffffffffffffffffffffffffffffffffffffffff1673ffffffffffffffffffffffffffffffffffffffff16815260200190815260200160002054613f7090919063ffffffff16565b600260008a73ffffffffffffffffffffffffffffffffffffffff1673ffffffffffffffffffffffffffffffffffffffff16815260200190815260200160002060003373ffffffffffffffffffffffffffffffffffffffff1673ffffffffffffffffffffffffffffffffffffffff16815260200190815260200160002081905550600093505b85518463ffffffff1610156115685761155b8888888763ffffffff1681518110151561152e57fe5b90602001906020020151888863ffffffff1681518110151561154c57fe5b90602001906020020151613f89565b8380600101945050611506565b8673ffffffffffffffffffffffffffffffffffffffff168873ffffffffffffffffffffffffffffffffffffffff163373ffffffffffffffffffffffffffffffffffffffff167fd7d630f8e1116ad40a06dd9a7299871e9fd7cc0a2f65a808251c764eebdcd0a78989604051808060200180602001838103835285818151815260200191508051906020019060200280838360005b838110156116175780820151818401526020810190506115fc565b50505050905001838103825284818151815260200191508051906020019060200280838360005b8381101561165957808201518184015260208101905061163e565b5050505090500194505050505060405180910390a45050505050505050565b600360009054906101000a900473ffffffffffffffffffffffffffffffffffffffff1673ffffffffffffffffffffffffffffffffffffffff163373ffffffffffffffffffffffffffffffffffffffff161415156116d457600080fd5b600560008273ffffffffffffffffffffffffffffffffffffffff1673ffffffffffffffffffffffffffffffffffffffff16815260200190815260200160002060006101000a81549060ff02191690558073ffffffffffffffffffffffffffffffffffffffff167fa5afe14290b6481c42b0941584b7c9093cc3d4cf9dc885904881f063e012e31360405160405180910390a250565b6000600154905090565b6000600360149054906101000a900460ff1615151561179157600080fd5b33600460008273ffffffffffffffffffffffffffffffffffffffff1673ffffffffffffffffffffffffffffffffffffffff16815260200190815260200160002060009054906101000a900460ff161515156117eb57600080fd5b84600460008273ffffffffffffffffffffffffffffffffffffffff1673ffffffffffffffffffffffffffffffffffffffff16815260200190815260200160002060009054906101000a900460ff1615151561184557600080fd5b600960009054906101000a900473ffffffffffffffffffffffffffffffffffffffff1673ffffffffffffffffffffffffffffffffffffffff168573ffffffffffffffffffffffffffffffffffffffff16141515156118a257600080fd5b600073ffffffffffffffffffffffffffffffffffffffff168573ffffffffffffffffffffffffffffffffffffffff16141515156118de57600080fd5b6118e786613b50565b600260008773ffffffffffffffffffffffffffffffffffffffff1673ffffffffffffffffffffffffffffffffffffffff16815260200190815260200160002060003373ffffffffffffffffffffffffffffffffffffffff1673ffffffffffffffffffffffffffffffffffffffff16815260200190815260200160002054841115151561197257600080fd5b611a0184600260008973ffffffffffffffffffffffffffffffffffffffff1673ffffffffffffffffffffffffffffffffffffffff16815260200190815260200160002060003373ffffffffffffffffffffffffffffffffffffffff1673ffffffffffffffffffffffffffffffffffffffff16815260200190815260200160002054613f7090919063ffffffff16565b600260008873ffffffffffffffffffffffffffffffffffffffff1673ffffffffffffffffffffffffffffffffffffffff16815260200190815260200160002060003373ffffffffffffffffffffffffffffffffffffffff1673ffffffffffffffffffffffffffffffffffffffff16815260200190815260200160002081905550611a8c868686614610565b6001925050509392505050565b60008060008373ffffffffffffffffffffffffffffffffffffffff1673ffffffffffffffffffffffffffffffffffffffff168152602001908152602001600020549050919050565b60056020528060005260406000206000915054906101000a900460ff1681565b601260ff16600a0a633b9aca000281565b601281565b6000600360009054906101000a900473ffffffffffffffffffffffffffffffffffffffff1673ffffffffffffffffffffffffffffffffffffffff163373ffffffffffffffffffffffffffffffffffffffff16141515611b7557600080fd5b3073ffffffffffffffffffffffffffffffffffffffff16319050600360009054906101000a900473ffffffffffffffffffffffffffffffffffffffff1673ffffffffffffffffffffffffffffffffffffffff166108fc829081150290604051600060405180830381858888f19350505050158015611bf7573d6000803e3d6000fd5b5050565b600360009054906101000a900473ffffffffffffffffffffffffffffffffffffffff1673ffffffffffffffffffffffffffffffffffffffff163373ffffffffffffffffffffffffffffffffffffffff16141515611c5757600080fd5b600360149054906101000a900460ff161515611c7257600080fd5b6000600360146101000a81548160ff0219169083151502179055507f7805862f689e2f13df9f062ff482ad3ad112aca9e0847911ed832e158c525b3360405160405180910390a1565b600080600360149054906101000a900460ff16151515611cda57600080fd5b33600460008273ffffffffffffffffffffffffffffffffffffffff1673ffffffffffffffffffffffffffffffffffffffff16815260200190815260200160002060009054906101000a900460ff16151515611d3457600080fd5b85600460008273ffffffffffffffffffffffffffffffffffffffff1673ffffffffffffffffffffffffffffffffffffffff16815260200190815260200160002060009054906101000a900460ff16151515611d8e57600080fd5b60008651118015611da0575084518651145b1515611dab57600080fd5b611db487613b50565b6000935060009250600093505b84518463ffffffff161015611e0f57611e00858563ffffffff16815181101515611de757fe5b9060200190602002015184613f5490919063ffffffff16565b92508380600101945050611dc1565b6000808873ffffffffffffffffffffffffffffffffffffffff1673ffffffffffffffffffffffffffffffffffffffff168152602001908152602001600020548311151515611e5c57600080fd5b600260008873ffffffffffffffffffffffffffffffffffffffff1673ffffffffffffffffffffffffffffffffffffffff16815260200190815260200160002060003373ffffffffffffffffffffffffffffffffffffffff1673ffffffffffffffffffffffffffffffffffffffff168152602001908152602001600020548311151515611ee757600080fd5b611f7683600260008a73ffffffffffffffffffffffffffffffffffffffff1673ffffffffffffffffffffffffffffffffffffffff16815260200190815260200160002060003373ffffffffffffffffffffffffffffffffffffffff1673ffffffffffffffffffffffffffffffffffffffff16815260200190815260200160002054613f7090919063ffffffff16565b600260008973ffffffffffffffffffffffffffffffffffffffff1673ffffffffffffffffffffffffffffffffffffffff16815260200190815260200160002060003373ffffffffffffffffffffffffffffffffffffffff1673ffffffffffffffffffffffffffffffffffffffff16815260200190815260200160002081905550600093505b85518463ffffffff16101561212f57600960009054906101000a900473ffffffffffffffffffffffffffffffffffffffff1673ffffffffffffffffffffffffffffffffffffffff16868563ffffffff1681518110151561205757fe5b9060200190602002015173ffffffffffffffffffffffffffffffffffffffff161415151561208457600080fd5b600073ffffffffffffffffffffffffffffffffffffffff16868563ffffffff168151811015156120b057fe5b9060200190602002015173ffffffffffffffffffffffffffffffffffffffff16141515156120dd57600080fd5b61212287878663ffffffff168151811015156120f557fe5b90602001906020020151878763ffffffff1681518110151561211357fe5b90602001906020020151614610565b8380600101945050611ffb565b50505050505050565b60075481565b6000600660008373ffffffffffffffffffffffffffffffffffffffff1673ffffffffffffffffffffffffffffffffffffffff168152602001908152602001600020600001549050919050565b600360149054906101000a900460ff1681565b60066020528060005260406000206000915090508060000154908060020154908060030154905083565b33600560008273ffffffffffffffffffffffffffffffffffffffff1673ffffffffffffffffffffffffffffffffffffffff16815260200190815260200160002060009054906101000a900460ff16151561222057600080fd5b60008211151561222f57600080fd5b816008819055503373ffffffffffffffffffffffffffffffffffffffff167f8d10f638f8d24cb1079a79c932f23795987d49aebc819317bc4b18a084d02809836040518082815260200191505060405180910390a25050565b6000600360149054906101000a900460ff161515156122a657600080fd5b33600460008273ffffffffffffffffffffffffffffffffffffffff1673ffffffffffffffffffffffffffffffffffffffff16815260200190815260200160002060009054906101000a900460ff1615151561230057600080fd5b83600460008273ffffffffffffffffffffffffffffffffffffffff1673ffffffffffffffffffffffffffffffffffffffff16815260200190815260200160002060009054906101000a900460ff1615151561235a57600080fd5b61236485856148a3565b9250505092915050565b600960149054906101000a900460ff1615151561238a57600080fd5b600360009054906101000a900473ffffffffffffffffffffffffffffffffffffffff1673ffffffffffffffffffffffffffffffffffffffff163373ffffffffffffffffffffffffffffffffffffffff161415156123e657600080fd5b600073ffffffffffffffffffffffffffffffffffffffff16600960009054906101000a900473ffffffffffffffffffffffffffffffffffffffff1673ffffffffffffffffffffffffffffffffffffffff161415151561244457600080fd5b600060075411151561245557600080fd5b600060085411151561246657600080fd5b6001600960146101000a81548160ff021916908315150217905550565b60046020528060005260406000206000915054906101000a900460ff1681565b600360009054906101000a900473ffffffffffffffffffffffffffffffffffffffff1673ffffffffffffffffffffffffffffffffffffffff163373ffffffffffffffffffffffffffffffffffffffff161415156124ff57600080fd5b600073ffffffffffffffffffffffffffffffffffffffff168173ffffffffffffffffffffffffffffffffffffffff161415151561253b57600080fd5b80600960006101000a81548173ffffffffffffffffffffffffffffffffffffffff021916908373ffffffffffffffffffffffffffffffffffffffff1602179055508073ffffffffffffffffffffffffffffffffffffffff167fdd7881875c2171524331608073ba5fba2a6ff96cf8341d25f9ea84b5c003669060405160405180910390a250565b6000600660008373ffffffffffffffffffffffffffffffffffffffff1673ffffffffffffffffffffffffffffffffffffffff168152602001908152602001600020600001546000808473ffffffffffffffffffffffffffffffffffffffff1673ffffffffffffffffffffffffffffffffffffffff16815260200190815260200160002054019050919050565b600360009054906101000a900473ffffffffffffffffffffffffffffffffffffffff1673ffffffffffffffffffffffffffffffffffffffff163373ffffffffffffffffffffffffffffffffffffffff161415156126aa57600080fd5b600360009054906101000a900473ffffffffffffffffffffffffffffffffffffffff1673ffffffffffffffffffffffffffffffffffffffff167ff8df31144d9c2f0f6b59d69b8b98abd5459d07f2742c4df920b25aae33c6482060405160405180910390a26000600360006101000a81548173ffffffffffffffffffffffffffffffffffffffff021916908373ffffffffffffffffffffffffffffffffffffffff160217905550565b600960149054906101000a900460ff1681565b600360009054906101000a900473ffffffffffffffffffffffffffffffffffffffff1673ffffffffffffffffffffffffffffffffffffffff163373ffffffffffffffffffffffffffffffffffffffff161415156127c257600080fd5b600360149054906101000a900460ff161515156127de57600080fd5b6001600360146101000a81548160ff0219169083151502179055507f6985a02210a168e66602d3235cb6db0e70f92b3ba4d376a33c0f3d9434bff62560405160405180910390a1565b60085481565b600080600360149054906101000a900460ff1615151561284c57600080fd5b33600460008273ffffffffffffffffffffffffffffffffffffffff1673ffffffffffffffffffffffffffffffffffffffff16815260200190815260200160002060009054906101000a900460ff161515156128a657600080fd5b600085511180156128b8575083518551145b15156128c357600080fd5b6128cc33613b50565b6000925060009150600092505b83518363ffffffff16101561292757612918848463ffffffff168151811015156128ff57fe5b9060200190602002015183613f5490919063ffffffff16565b915082806001019350506128d9565b6000803373ffffffffffffffffffffffffffffffffffffffff1673ffffffffffffffffffffffffffffffffffffffff16815260200190815260200160002054821115151561297457600080fd5b600092505b84518363ffffffff161015612aad57600960009054906101000a900473ffffffffffffffffffffffffffffffffffffffff1673ffffffffffffffffffffffffffffffffffffffff16858463ffffffff168151811015156129d557fe5b9060200190602002015173ffffffffffffffffffffffffffffffffffffffff1614151515612a0257600080fd5b600073ffffffffffffffffffffffffffffffffffffffff16858463ffffffff16815181101515612a2e57fe5b9060200190602002015173ffffffffffffffffffffffffffffffffffffffff1614151515612a5b57600080fd5b612aa033868563ffffffff16815181101515612a7357fe5b90602001906020020151868663ffffffff16815181101515612a9157fe5b90602001906020020151614610565b8280600101935050612979565b5050505050565b600360009054906101000a900473ffffffffffffffffffffffffffffffffffffffff1681565b600080600360149054906101000a900460ff16151515612af957600080fd5b33600460008273ffffffffffffffffffffffffffffffffffffffff1673ffffffffffffffffffffffffffffffffffffffff16815260200190815260200160002060009054906101000a900460ff16151515612b5357600080fd5b60008551118015612b65575083518551145b1515612b7057600080fd5b600960009054906101000a900473ffffffffffffffffffffffffffffffffffffffff1673ffffffffffffffffffffffffffffffffffffffff168673ffffffffffffffffffffffffffffffffffffffff1614151515612bcd57600080fd5b600073ffffffffffffffffffffffffffffffffffffffff168673ffffffffffffffffffffffffffffffffffffffff1614151515612c0957600080fd5b612c1233613b50565b6000925060009150600092505b84518363ffffffff161015612c6d57612c5e858463ffffffff16815181101515612c4557fe5b9060200190602002015183613f5490919063ffffffff16565b91508280600101935050612c1f565b6000803373ffffffffffffffffffffffffffffffffffffffff1673ffffffffffffffffffffffffffffffffffffffff168152602001908152602001600020548211151515612cba57600080fd5b600092505b84518363ffffffff161015612d2157612d143387878663ffffffff16815181101515612ce757fe5b90602001906020020151878763ffffffff16815181101515612d0557fe5b90602001906020020151613f89565b8280600101935050612cbf565b8573ffffffffffffffffffffffffffffffffffffffff163373ffffffffffffffffffffffffffffffffffffffff167fac28db1fddd8287fcb23de0acaedca2873fdec9b7bca405eeae4e84f59c64b408787604051808060200180602001838103835285818151815260200191508051906020019060200280838360005b83811015612db9578082015181840152602081019050612d9e565b50505050905001838103825284818151815260200191508051906020019060200280838360005b83811015612dfb578082015181840152602081019050612de0565b5050505090500194505050505060405180910390a3505050505050565b6040805190810160405280600381526020017f534854000000000000000000000000000000000000000000000000000000000081525081565b6000600960149054906101000a900460ff161515612e6e57600080fd5b600360149054906101000a900460ff16151515612e8a57600080fd5b33600460008273ffffffffffffffffffffffffffffffffffffffff1673ffffffffffffffffffffffffffffffffffffffff16815260200190815260200160002060009054906101000a900460ff16151515612ee457600080fd5b600034111515612ef357600080fd5b612f21600854612f13601260ff16600a0a34614b3490919063ffffffff16565b614b6c90919063ffffffff16565b9150600082111561301957600960009054906101000a900473ffffffffffffffffffffffffffffffffffffffff1673ffffffffffffffffffffffffffffffffffffffff166108fc349081150290604051600060405180830381858888f19350505050158015612f94573d6000803e3d6000fd5b50612fc2600960009054906101000a900473ffffffffffffffffffffffffffffffffffffffff163384614610565b3373ffffffffffffffffffffffffffffffffffffffff167f1cbc5ab135991bd2b6a4b034a04aa2aa086dac1371cb9b16b8b5e2ed6b036bed3484604051808381526020018281526020019250505060405180910390a25b5050565b6000600360149054906101000a900460ff1615151561303b57600080fd5b600460003373ffffffffffffffffffffffffffffffffffffffff1673ffffffffffffffffffffffffffffffffffffffff16815260200190815260200160002060009054906101000a900460ff16156130cd57600073ffffffffffffffffffffffffffffffffffffffff168373ffffffffffffffffffffffffffffffffffffffff161415156130c857600080fd5b61310a565b600073ffffffffffffffffffffffffffffffffffffffff168373ffffffffffffffffffffffffffffffffffffffff161415151561310957600080fd5b5b61311333613b50565b61311e338484614610565b613129338484614b82565b6001905092915050565b33600560008273ffffffffffffffffffffffffffffffffffffffff1673ffffffffffffffffffffffffffffffffffffffff16815260200190815260200160002060009054906101000a900460ff16151561318c57600080fd5b600460008373ffffffffffffffffffffffffffffffffffffffff1673ffffffffffffffffffffffffffffffffffffffff16815260200190815260200160002060006101000a81549060ff02191690558173ffffffffffffffffffffffffffffffffffffffff163373ffffffffffffffffffffffffffffffffffffffff167fa8ca4c1e2e1ebc26164949943a221a5199219743fcc8533fdb005f039ed4785b60405160405180910390a35050565b600360009054906101000a900473ffffffffffffffffffffffffffffffffffffffff1673ffffffffffffffffffffffffffffffffffffffff163373ffffffffffffffffffffffffffffffffffffffff1614151561329557600080fd5b6001600560008373ffffffffffffffffffffffffffffffffffffffff1673ffffffffffffffffffffffffffffffffffffffff16815260200190815260200160002060006101000a81548160ff0219169083151502179055508073ffffffffffffffffffffffffffffffffffffffff167f6e5eedde7d0d690d55dea362660be04ef1eb36252e48817545afb1ae6b245a4060405160405180910390a250565b33600560008273ffffffffffffffffffffffffffffffffffffffff1673ffffffffffffffffffffffffffffffffffffffff16815260200190815260200160002060009054906101000a900460ff16151561338c57600080fd5b6001600460008473ffffffffffffffffffffffffffffffffffffffff1673ffffffffffffffffffffffffffffffffffffffff16815260200190815260200160002060006101000a81548160ff0219169083151502179055508173ffffffffffffffffffffffffffffffffffffffff163373ffffffffffffffffffffffffffffffffffffffff167f2ae3d8beb1529a220b658a87b905671775be575d98eb1c786b4b9da45a2d7aea60405160405180910390a35050565b6000600360149054906101000a900460ff1615151561346057600080fd5b33600460008273ffffffffffffffffffffffffffffffffffffffff1673ffffffffffffffffffffffffffffffffffffffff16815260200190815260200160002060009054906101000a900460ff161515156134ba57600080fd5b83600460008273ffffffffffffffffffffffffffffffffffffffff1673ffffffffffffffffffffffffffffffffffffffff16815260200190815260200160002060009054906101000a900460ff1615151561351457600080fd5b61351e8585614d25565b9250505092915050565b600960009054906101000a900473ffffffffffffffffffffffffffffffffffffffff1681565b6000600260008473ffffffffffffffffffffffffffffffffffffffff1673ffffffffffffffffffffffffffffffffffffffff16815260200190815260200160002060008373ffffffffffffffffffffffffffffffffffffffff1673ffffffffffffffffffffffffffffffffffffffff16815260200190815260200160002054905092915050565b600080600660008573ffffffffffffffffffffffffffffffffffffffff1673ffffffffffffffffffffffffffffffffffffffff168152602001908152602001600020600101600084815260200190815260200160002060000154600660008673ffffffffffffffffffffffffffffffffffffffff1673ffffffffffffffffffffffffffffffffffffffff168152602001908152602001600020600101600085815260200190815260200160002060010154915091509250929050565b600960149054906101000a900460ff1615156136ac57600080fd5b600360149054906101000a900460ff161515156136c857600080fd5b33600460008273ffffffffffffffffffffffffffffffffffffffff1673ffffffffffffffffffffffffffffffffffffffff16815260200190815260200160002060009054906101000a900460ff1615151561372257600080fd5b600073ffffffffffffffffffffffffffffffffffffffff16600960009054906101000a900473ffffffffffffffffffffffffffffffffffffffff1673ffffffffffffffffffffffffffffffffffffffff161415151561378057600080fd5b6137ac600960009054906101000a900473ffffffffffffffffffffffffffffffffffffffff168361301d565b505050565b600360009054906101000a900473ffffffffffffffffffffffffffffffffffffffff1673ffffffffffffffffffffffffffffffffffffffff163373ffffffffffffffffffffffffffffffffffffffff1614151561380d57600080fd5b600073ffffffffffffffffffffffffffffffffffffffff168173ffffffffffffffffffffffffffffffffffffffff161415151561384957600080fd5b8073ffffffffffffffffffffffffffffffffffffffff16600360009054906101000a900473ffffffffffffffffffffffffffffffffffffffff1673ffffffffffffffffffffffffffffffffffffffff167f8be0079c531659141344cd1fd0a4f28419497f9722a3daafe3b4186f6b6457e060405160405180910390a380600360006101000a81548173ffffffffffffffffffffffffffffffffffffffff021916908373ffffffffffffffffffffffffffffffffffffffff16021790555050565b600960149054906101000a900460ff16151561392457600080fd5b600360009054906101000a900473ffffffffffffffffffffffffffffffffffffffff1673ffffffffffffffffffffffffffffffffffffffff163373ffffffffffffffffffffffffffffffffffffffff1614151561398057600080fd5b6000600960146101000a81548160ff021916908315150217905550565b33600560008273ffffffffffffffffffffffffffffffffffffffff1673ffffffffffffffffffffffffffffffffffffffff16815260200190815260200160002060009054906101000a900460ff1615156139f657600080fd5b600082111515613a0557600080fd5b816007819055503373ffffffffffffffffffffffffffffffffffffffff167f73e1698972cbdd48a48c8e5a4541f0ba2a3ccc27d9e839124219e655fc351f42836040518082815260200191505060405180910390a25050565b600081600260003373ffffffffffffffffffffffffffffffffffffffff1673ffffffffffffffffffffffffffffffffffffffff16815260200190815260200160002060008573ffffffffffffffffffffffffffffffffffffffff1673ffffffffffffffffffffffffffffffffffffffff168152602001908152602001600020819055508273ffffffffffffffffffffffffffffffffffffffff163373ffffffffffffffffffffffffffffffffffffffff167f8c5be1e5ebec7d5bd14f71427d1e84f3dd0314c0f7b2291e5b200ac8c7c3b925846040518082815260200191505060405180910390a36001905092915050565b600080600080600660008673ffffffffffffffffffffffffffffffffffffffff1673ffffffffffffffffffffffffffffffffffffffff168152602001908152602001600020600201549350600660008673ffffffffffffffffffffffffffffffffffffffff1673ffffffffffffffffffffffffffffffffffffffff1681526020019081526020016000206001016000858152602001908152602001600020600001549250600091505b60008414158015613c0a5750428411155b15613d4457613c228383613f5490919063ffffffff16565b9150839050600660008673ffffffffffffffffffffffffffffffffffffffff1673ffffffffffffffffffffffffffffffffffffffff1681526020019081526020016000206001016000858152602001908152602001600020600101549350600660008673ffffffffffffffffffffffffffffffffffffffff1673ffffffffffffffffffffffffffffffffffffffff1681526020019081526020016000206001016000858152602001908152602001600020600001549250600660008673ffffffffffffffffffffffffffffffffffffffff1673ffffffffffffffffffffffffffffffffffffffff168152602001908152602001600020600101600082815260200190815260200160002060008082016000905560018201600090555050613bf9565b83600660008773ffffffffffffffffffffffffffffffffffffffff1673ffffffffffffffffffffffffffffffffffffffff16815260200190815260200160002060020181905550613de082600660008873ffffffffffffffffffffffffffffffffffffffff1673ffffffffffffffffffffffffffffffffffffffff16815260200190815260200160002060000154613f7090919063ffffffff16565b600660008773ffffffffffffffffffffffffffffffffffffffff1673ffffffffffffffffffffffffffffffffffffffff16815260200190815260200160002060000181905550613e77826000808873ffffffffffffffffffffffffffffffffffffffff1673ffffffffffffffffffffffffffffffffffffffff16815260200190815260200160002054613f5490919063ffffffff16565b6000808773ffffffffffffffffffffffffffffffffffffffff1673ffffffffffffffffffffffffffffffffffffffff168152602001908152602001600020819055506000600660008773ffffffffffffffffffffffffffffffffffffffff1673ffffffffffffffffffffffffffffffffffffffff168152602001908152602001600020600201541415613f4d576000600660008773ffffffffffffffffffffffffffffffffffffffff1673ffffffffffffffffffffffffffffffffffffffff168152602001908152602001600020600301819055505b5050505050565b60008183019050828110151515613f6757fe5b80905092915050565b6000828211151515613f7e57fe5b818303905092915050565b600080600080600660008873ffffffffffffffffffffffffffffffffffffffff1673ffffffffffffffffffffffffffffffffffffffff168152602001908152602001600020600201549350600660008873ffffffffffffffffffffffffffffffffffffffff1673ffffffffffffffffffffffffffffffffffffffff168152602001908152602001600020600301549250600660008873ffffffffffffffffffffffffffffffffffffffff1673ffffffffffffffffffffffffffffffffffffffff1681526020019081526020016000206001016000868152602001908152602001600020600001549150600086141561408057614606565b428511151561409957614094888888614610565b614606565b60008414156141905784600660008973ffffffffffffffffffffffffffffffffffffffff1673ffffffffffffffffffffffffffffffffffffffff1681526020019081526020016000206002018190555084600660008973ffffffffffffffffffffffffffffffffffffffff1673ffffffffffffffffffffffffffffffffffffffff1681526020019081526020016000206003018190555085600660008973ffffffffffffffffffffffffffffffffffffffff1673ffffffffffffffffffffffffffffffffffffffff1681526020019081526020016000206001016000878152602001908152602001600020600001819055506145fa565b600082111561420b576141ac8683613f5490919063ffffffff16565b600660008973ffffffffffffffffffffffffffffffffffffffff1673ffffffffffffffffffffffffffffffffffffffff1681526020019081526020016000206001016000878152602001908152602001600020600001819055506145f9565b838510156143155785600660008973ffffffffffffffffffffffffffffffffffffffff1673ffffffffffffffffffffffffffffffffffffffff16815260200190815260200160002060010160008781526020019081526020016000206000018190555083600660008973ffffffffffffffffffffffffffffffffffffffff1673ffffffffffffffffffffffffffffffffffffffff16815260200190815260200160002060010160008781526020019081526020016000206001018190555084600660008973ffffffffffffffffffffffffffffffffffffffff1673ffffffffffffffffffffffffffffffffffffffff168152602001908152602001600020600201819055506145f8565b8285111561441f5785600660008973ffffffffffffffffffffffffffffffffffffffff1673ffffffffffffffffffffffffffffffffffffffff16815260200190815260200160002060010160008781526020019081526020016000206000018190555084600660008973ffffffffffffffffffffffffffffffffffffffff1673ffffffffffffffffffffffffffffffffffffffff16815260200190815260200160002060010160008581526020019081526020016000206001018190555084600660008973ffffffffffffffffffffffffffffffffffffffff1673ffffffffffffffffffffffffffffffffffffffff168152602001908152602001600020600301819055506145f7565b839050600660008873ffffffffffffffffffffffffffffffffffffffff1673ffffffffffffffffffffffffffffffffffffffff16815260200190815260200160002060010160008281526020019081526020016000206001015491505b848210156144e557819050600660008873ffffffffffffffffffffffffffffffffffffffff1673ffffffffffffffffffffffffffffffffffffffff168152602001908152602001600020600101600082815260200190815260200160002060010154915061447c565b85600660008973ffffffffffffffffffffffffffffffffffffffff1673ffffffffffffffffffffffffffffffffffffffff16815260200190815260200160002060010160008781526020019081526020016000206000018190555081600660008973ffffffffffffffffffffffffffffffffffffffff1673ffffffffffffffffffffffffffffffffffffffff16815260200190815260200160002060010160008781526020019081526020016000206001018190555084600660008973ffffffffffffffffffffffffffffffffffffffff1673ffffffffffffffffffffffffffffffffffffffff1681526020019081526020016000206001016000838152602001908152602001600020600101819055505b5b5b5b614605888888614f21565b5b5050505050505050565b6000808473ffffffffffffffffffffffffffffffffffffffff1673ffffffffffffffffffffffffffffffffffffffff16815260200190815260200160002054811115151561465d57600080fd5b6146ae816000808673ffffffffffffffffffffffffffffffffffffffff1673ffffffffffffffffffffffffffffffffffffffff16815260200190815260200160002054613f7090919063ffffffff16565b6000808573ffffffffffffffffffffffffffffffffffffffff1673ffffffffffffffffffffffffffffffffffffffff16815260200190815260200160002081905550614741816000808573ffffffffffffffffffffffffffffffffffffffff1673ffffffffffffffffffffffffffffffffffffffff16815260200190815260200160002054613f5490919063ffffffff16565b6000808473ffffffffffffffffffffffffffffffffffffffff1673ffffffffffffffffffffffffffffffffffffffff168152602001908152602001600020819055503373ffffffffffffffffffffffffffffffffffffffff168373ffffffffffffffffffffffffffffffffffffffff161415614821578173ffffffffffffffffffffffffffffffffffffffff168373ffffffffffffffffffffffffffffffffffffffff167fddf252ad1be2c89b69c2b068fc378daa952ba7f163c4a11628f55a4df523b3ef836040518082815260200191505060405180910390a361489e565b8173ffffffffffffffffffffffffffffffffffffffff168373ffffffffffffffffffffffffffffffffffffffff163373ffffffffffffffffffffffffffffffffffffffff167f5f7542858008eeb041631f30e6109ae94b83a58e9a58261dd2c42c508850f939846040518082815260200191505060405180910390a45b505050565b600080600260003373ffffffffffffffffffffffffffffffffffffffff1673ffffffffffffffffffffffffffffffffffffffff16815260200190815260200160002060008573ffffffffffffffffffffffffffffffffffffffff1673ffffffffffffffffffffffffffffffffffffffff168152602001908152602001600020549050808311156149b4576000600260003373ffffffffffffffffffffffffffffffffffffffff1673ffffffffffffffffffffffffffffffffffffffff16815260200190815260200160002060008673ffffffffffffffffffffffffffffffffffffffff1673ffffffffffffffffffffffffffffffffffffffff16815260200190815260200160002081905550614a48565b6149c78382613f7090919063ffffffff16565b600260003373ffffffffffffffffffffffffffffffffffffffff1673ffffffffffffffffffffffffffffffffffffffff16815260200190815260200160002060008673ffffffffffffffffffffffffffffffffffffffff1673ffffffffffffffffffffffffffffffffffffffff168152602001908152602001600020819055505b8373ffffffffffffffffffffffffffffffffffffffff163373ffffffffffffffffffffffffffffffffffffffff167f8c5be1e5ebec7d5bd14f71427d1e84f3dd0314c0f7b2291e5b200ac8c7c3b925600260003373ffffffffffffffffffffffffffffffffffffffff1673ffffffffffffffffffffffffffffffffffffffff16815260200190815260200160002060008873ffffffffffffffffffffffffffffffffffffffff1673ffffffffffffffffffffffffffffffffffffffff168152602001908152602001600020546040518082815260200191505060405180910390a3600191505092915050565b600080831415614b475760009050614b66565b8183029050818382811515614b5857fe5b04141515614b6257fe5b8090505b92915050565b60008183811515614b7957fe5b04905092915050565b6000600960009054906101000a900473ffffffffffffffffffffffffffffffffffffffff1673ffffffffffffffffffffffffffffffffffffffff168373ffffffffffffffffffffffffffffffffffffffff16141515614be057614d1f565b600960149054906101000a900460ff161515614bfb57600080fd5b600082111515614c0a57600080fd5b614c38601260ff16600a0a614c2a60075485614b3490919063ffffffff16565b614b6c90919063ffffffff16565b90503073ffffffffffffffffffffffffffffffffffffffff16318111151515614c6057600080fd5b6000811115614d1e578373ffffffffffffffffffffffffffffffffffffffff166108fc829081150290604051600060405180830381858888f19350505050158015614caf573d6000803e3d6000fd5b508273ffffffffffffffffffffffffffffffffffffffff168473ffffffffffffffffffffffffffffffffffffffff167fbc9daf30c1dc1e97765d5edfb5cb2a9207827910a091ecd75cc56dc45e6f02b68484604051808381526020018281526020019250505060405180910390a35b5b50505050565b6000614db682600260003373ffffffffffffffffffffffffffffffffffffffff1673ffffffffffffffffffffffffffffffffffffffff16815260200190815260200160002060008673ffffffffffffffffffffffffffffffffffffffff1673ffffffffffffffffffffffffffffffffffffffff16815260200190815260200160002054613f5490919063ffffffff16565b600260003373ffffffffffffffffffffffffffffffffffffffff1673ffffffffffffffffffffffffffffffffffffffff16815260200190815260200160002060008573ffffffffffffffffffffffffffffffffffffffff1673ffffffffffffffffffffffffffffffffffffffff168152602001908152602001600020819055508273ffffffffffffffffffffffffffffffffffffffff163373ffffffffffffffffffffffffffffffffffffffff167f8c5be1e5ebec7d5bd14f71427d1e84f3dd0314c0f7b2291e5b200ac8c7c3b925600260003373ffffffffffffffffffffffffffffffffffffffff1673ffffffffffffffffffffffffffffffffffffffff16815260200190815260200160002060008773ffffffffffffffffffffffffffffffffffffffff1673ffffffffffffffffffffffffffffffffffffffff168152602001908152602001600020546040518082815260200191505060405180910390a36001905092915050565b6000808473ffffffffffffffffffffffffffffffffffffffff1673ffffffffffffffffffffffffffffffffffffffff168152602001908152602001600020548111151515614f6e57600080fd5b614fbf816000808673ffffffffffffffffffffffffffffffffffffffff1673ffffffffffffffffffffffffffffffffffffffff16815260200190815260200160002054613f7090919063ffffffff16565b6000808573ffffffffffffffffffffffffffffffffffffffff1673ffffffffffffffffffffffffffffffffffffffff1681526020019081526020016000208190555061505681600660008573ffffffffffffffffffffffffffffffffffffffff1673ffffffffffffffffffffffffffffffffffffffff16815260200190815260200160002060000154613f5490919063ffffffff16565b600660008473ffffffffffffffffffffffffffffffffffffffff1673ffffffffffffffffffffffffffffffffffffffff168152602001908152602001600020600001819055505050505600a165627a7a7230582070ebe6d1610d5514327751c4824b5e47e23d87c7b28f1542e477ddfa7b7734ed0029",
  "source": "pragma solidity ^0.4.24;\n\n\nimport \"./StandardToken.sol\";\nimport \"./Management.sol\";\n\n\n/**\n * @title SibbayHealthToken\n */\ncontract SibbayHealthToken is StandardToken, Management {\n\n  string public constant name = \"Sibbay Health Token\"; // solium-disable-line uppercase\n  string public constant symbol = \"SHT\"; // solium-disable-line uppercase\n  uint8 public constant decimals = 18; // solium-disable-line uppercase\n\n  /**\n   * \n   * , 1tokenwei(tokenwei)\n   * */\n  uint256 constant internal MAGNITUDE = 10 ** uint256(decimals);\n\n  uint256 public constant INITIAL_SUPPLY = 1000000000 * MAGNITUDE;\n\n  // , \n  event TransferEther(\n    address indexed from,\n    address indexed to,\n    uint256 tokenValue,\n    uint256 etherValue);\n  // \n  event SetSellPrice(address indexed admin, uint256 price);\n  // \n  event SetBuyPrice(address indexed admin, uint256 price);\n  // \n  event Buy(address indexed who, uint256 etherValue, uint256 tokenValue);\n  // \n  event SetFundAccount(address indexed fund);\n  // \n  event TransferByDate(address indexed from, address indexed to, uint256[] values, uint256[] dates);\n  event TransferFromByDate(address indexed spender, address indexed from, address indexed to, uint256[] values, uint256[] dates);\n\n  /**\n   * maplist\n   * value \n   * _next \n   * */\n  struct Element {\n    uint256 value;\n    uint256 next;\n  }\n\n  /**\n   * \n   * lockedBalances \n   * lockedElement \n   * start_date \n   * end_date \n   * */\n  struct Account {\n    uint256 lockedBalances;\n    mapping(uint256 => Element) lockedElement;\n    uint256 start_date;\n    uint256 end_date;\n  }\n\n  /**\n   * \n   * */\n  mapping(address => Account) public accounts;\n\n  /**\n   * sellPrice: token , 1 tokenwei(wei)\n   * buyPrice: token , 1 tokenwei\n   * fundAccount: tokentoken\n   * buySellFlag: \n   * */\n  uint256 public sellPrice;\n  uint256 public buyPrice;\n  address public fundAccount;\n  bool public buySellFlag;\n\n  /**\n   * \n   * \n   */\n  constructor() public {\n    totalSupply_ = INITIAL_SUPPLY;\n    balances[msg.sender] = INITIAL_SUPPLY;\n    emit Transfer(0x0, msg.sender, INITIAL_SUPPLY);\n\n    /**\n     * \n     * \n     * \n     * \n     * false\n     * */\n    sellPrice = 0;\n    buyPrice = 0;\n    fundAccount = address(0);\n    buySellFlag = false;\n  }\n\n  /**\n   * fallback\n   * buy\n   * */\n  function () external payable {\n  }\n\n  /**\n   * \n   * owner\n   * */\n  function withdraw() public onlyOwner {\n    uint256 value = address(this).balance;\n    owner.transfer(value);\n  }\n\n  /**\n   * modifier token\n   * */\n  modifier whenOpenBuySell()\n  {\n    require(buySellFlag);\n    _;\n  }\n\n  /**\n   * modifier token\n   * */\n  modifier whenCloseBuySell()\n  {\n    require(!buySellFlag);\n    _;\n  }\n\n  /**\n   * , \n   * _who: \n   * */\n  function getlockedBalances(address _who) internal\n  {\n    uint256 tmp_date = accounts[_who].start_date;\n    uint256 tmp_value = accounts[_who].lockedElement[tmp_date].value;\n    uint256 tmp_balances = 0;\n    uint256 tmp_var;\n\n    // \n    while(tmp_date != 0 &&\n          tmp_date <= now)\n    {\n      // \n      tmp_balances = tmp_balances.add(tmp_value);\n\n      //  tmp_date\n      tmp_var = tmp_date;\n\n      // \n      tmp_date = accounts[_who].lockedElement[tmp_date].next;\n      tmp_value = accounts[_who].lockedElement[tmp_date].value;\n\n      // delete \n      delete accounts[_who].lockedElement[tmp_var];\n    }\n\n    // \n    accounts[_who].start_date = tmp_date;\n    accounts[_who].lockedBalances = accounts[_who].lockedBalances.sub(tmp_balances);\n    balances[_who] = balances[_who].add(tmp_balances);\n\n    // 0\n    if (accounts[_who].start_date == 0)\n        accounts[_who].end_date = 0;\n  }\n\n  /**\n   * \n   * _from token\n   * _to token\n   * _value token\n   * */\n  function transferAvailableBalances(\n    address _from,\n    address _to,\n    uint256 _value\n  )\n    internal\n  {\n    // \n    require(_value <= balances[_from]);\n\n    // \n    balances[_from] = balances[_from].sub(_value);\n    balances[_to] = balances[_to].add(_value);\n\n    // \n    if(_from == msg.sender)\n      emit Transfer(_from, _to, _value);\n    else\n      emit TransferFrom(msg.sender, _from, _to, _value);\n  }\n\n  /**\n   * \n   * _from token\n   * _to token\n   * _value token\n   * */\n  function transferLockedBalances(\n    address _from,\n    address _to,\n    uint256 _value\n  )\n    internal\n  {\n    // \n    require(_value <= balances[_from]);\n\n    // \n    balances[_from] = balances[_from].sub(_value);\n    accounts[_to].lockedBalances = accounts[_to].lockedBalances.add(_value);\n  }\n\n  /**\n   * , \n   * _from token\n   * _to token\n   * _value token\n   * */\n  function transferEther(\n    address _from,\n    address _to,\n    uint256 _value\n  )\n    internal\n  {\n    /**\n     *  _to \n     * returnrevert\n     * , ether\n     * */\n    if (_to != fundAccount)\n        return ;\n\n    /**\n     * fundAccount\n     * */\n    require(buySellFlag);\n\n    /**\n     * 0\n     * token0\n     * */\n    require(_value > 0);\n\n    // , evalue wei\n    uint256 evalue = _value.mul(sellPrice).div(MAGNITUDE);\n    require(evalue <= address(this).balance);\n\n    // \n    if (evalue > 0)\n    {\n      _from.transfer(evalue);\n      emit TransferEther(_from, _to, _value, evalue);\n    }\n  }\n\n  /**\n   * \n   * */\n  function transfer(\n    address _to,\n    uint256 _value\n  )\n    public\n    whenNotPaused\n    returns (bool)\n  {\n    // address(0)\n    if(frozenList[msg.sender])\n      require(_to == address(0));\n    else\n    {\n      // 0\n      require(_to != address(0));\n    }\n    /**\n     * \n     * */\n    getlockedBalances(msg.sender);\n\n    // \n    transferAvailableBalances(msg.sender, _to, _value);\n\n    // \n    transferEther(msg.sender, _to, _value);\n\n    return true;\n  }\n\n  /**\n   * \n   *  _from  _value  _to\n   * */\n  function transferFrom(\n    address _from,\n    address _to,\n    uint256 _value\n  )\n    public\n    whenNotPaused\n    whenNotFrozen(msg.sender)\n    whenNotFrozen(_from)\n    returns (bool)\n  {\n    // token\n    require(_to != fundAccount);\n\n    // 0\n    require(_to != address(0));\n\n    /**\n     * \n     * */\n    getlockedBalances(_from);\n\n    // \n    require(_value <= allowed[_from][msg.sender]);\n\n    // \n    allowed[_from][msg.sender] = allowed[_from][msg.sender].sub(_value);\n\n    // \n    transferAvailableBalances(_from, _to, _value);\n\n    return true;\n  }\n\n  /**\n   * \n   *  _spender  _value\n   * */\n  function approve(\n    address _spender,\n    uint256 _value\n  )\n    public\n    whenNotPaused\n    whenNotFrozen(msg.sender)\n    whenNotFrozen(_spender)\n    returns (bool)\n  {\n    return super.approve(_spender, _value);\n  }\n\n  /**\n   * \n   *  _spender  _addedValue\n   * */\n  function increaseApproval(\n    address _spender,\n    uint _addedValue\n  )\n    public\n    whenNotPaused\n    whenNotFrozen(msg.sender)\n    whenNotFrozen(_spender)\n    returns (bool success)\n  {\n    return super.increaseApproval(_spender, _addedValue);\n  }\n\n  /**\n   * \n   *  _spender  _subtractedValue\n   * */\n  function decreaseApproval(\n    address _spender,\n    uint _subtractedValue\n  )\n    public\n    whenNotPaused\n    whenNotFrozen(msg.sender)\n    whenNotFrozen(_spender)\n    returns (bool success)\n  {\n    return super.decreaseApproval(_spender, _subtractedValue);\n  }\n\n  /**\n   *  token\n   *  _receivers\n   *  _values\n   * */\n  function batchTransfer(\n    address[] _receivers,\n    uint256[] _values\n  )\n    public\n    whenNotPaused\n    whenNotFrozen(msg.sender)\n  {\n    // token\n    require(_receivers.length > 0 && _receivers.length == _values.length);\n\n    /**\n     * \n     * */\n    getlockedBalances(msg.sender);\n\n    // \n    uint32 i = 0;\n    uint256 total = 0;\n    for (i = 0; i < _values.length; i ++)\n    {\n      total = total.add(_values[i]);\n    }\n    require(total <= balances[msg.sender]);\n\n    //  \n    for (i = 0; i < _receivers.length; i ++)\n    {\n      // token\n      require(_receivers[i] != fundAccount);\n\n      // 0\n      require(_receivers[i] != address(0));\n\n      // \n      transferAvailableBalances(msg.sender, _receivers[i], _values[i]);\n    }\n  }\n\n  /**\n   *  token\n   *  _from\n   *  _receivers\n   *  _values\n   * */\n  function batchTransferFrom(\n    address _from,\n    address[] _receivers,\n    uint256[] _values\n  )\n    public\n    whenNotPaused\n    whenNotFrozen(msg.sender)\n    whenNotFrozen(_from)\n  {\n    // token\n    require(_receivers.length > 0 && _receivers.length == _values.length);\n\n    /**\n     * \n     * */\n    getlockedBalances(_from);\n\n    // \n    uint32 i = 0;\n    uint256 total = 0;\n    for (i = 0; i < _values.length; i ++)\n    {\n      total = total.add(_values[i]);\n    }\n    require(total <= balances[_from]);\n\n    // \n    require(total <= allowed[_from][msg.sender]);\n\n    // \n    allowed[_from][msg.sender] = allowed[_from][msg.sender].sub(total);\n\n    //  \n    for (i = 0; i < _receivers.length; i ++)\n    {\n      // token\n      require(_receivers[i] != fundAccount);\n\n      // 0\n      require(_receivers[i] != address(0));\n\n      // \n      transferAvailableBalances(_from, _receivers[i], _values[i]);\n    }\n  }\n\n  /**\n   * , token\n   * _receiver \n   * _values \n   * _dates \n   *        UTC197011\n   * */\n  function transferByDate(\n    address _receiver,\n    uint256[] _values,\n    uint256[] _dates\n  )\n    public\n    whenNotPaused\n    whenNotFrozen(msg.sender)\n  {\n    // token\n    require(_values.length > 0 &&\n        _values.length == _dates.length);\n\n    // token\n    require(_receiver != fundAccount);\n\n    // 0\n    require(_receiver != address(0));\n\n    /**\n     * \n     * */\n    getlockedBalances(msg.sender);\n\n    // \n    uint32 i = 0;\n    uint256 total = 0;\n    for (i = 0; i < _values.length; i ++)\n    {\n      total = total.add(_values[i]);\n    }\n    require(total <= balances[msg.sender]);\n\n    // \n    for(i = 0; i < _values.length; i ++)\n    {\n      transferByDateSingle(msg.sender, _receiver, _values[i], _dates[i]);\n    }\n\n    emit TransferByDate(msg.sender, _receiver, _values, _dates);\n  }\n\n  /**\n   * , token\n   * _from \n   * _receiver \n   * _values \n   * _dates \n   *        UTC197011\n   * */\n  function transferFromByDate(\n    address _from,\n    address _receiver,\n    uint256[] _values,\n    uint256[] _dates\n  )\n    public\n    whenNotPaused\n    whenNotFrozen(msg.sender)\n    whenNotFrozen(_from)\n  {\n    // token\n    require(_values.length > 0 &&\n        _values.length == _dates.length);\n\n    // token\n    require(_receiver != fundAccount);\n\n    // 0\n    require(_receiver != address(0));\n\n    /**\n     * \n     * */\n    getlockedBalances(_from);\n\n    // \n    uint32 i = 0;\n    uint256 total = 0;\n    for (i = 0; i < _values.length; i ++)\n    {\n      total = total.add(_values[i]);\n    }\n    require(total <= balances[_from]);\n\n    // \n    require(total <= allowed[_from][msg.sender]);\n\n    // \n    allowed[_from][msg.sender] = allowed[_from][msg.sender].sub(total);\n\n    // \n    for(i = 0; i < _values.length; i ++)\n    {\n      transferByDateSingle(_from, _receiver, _values[i], _dates[i]);\n    }\n\n    emit TransferFromByDate(msg.sender, _from, _receiver, _values, _dates);\n  }\n\n  /**\n   * _from token\n   * _to \n   * _value \n   * _date \n   *       UTC197011\n   * */\n  function transferByDateSingle(\n    address _from,\n    address _to,\n    uint256 _value,\n    uint256 _date\n  )\n    internal\n  {\n    uint256 start_date = accounts[_to].start_date;\n    uint256 end_date = accounts[_to].end_date;\n    uint256 tmp_var = accounts[_to].lockedElement[_date].value;\n    uint256 tmp_date;\n\n    if (_value == 0)\n    {\n        // \n        return ;\n    }\n\n    if (_date <= now)\n    {\n      // \n      // \n      transferAvailableBalances(_from, _to, _value);\n\n      return ;\n    }\n\n    if (start_date == 0)\n    {\n      // \n      // \n      accounts[_to].start_date = _date;\n      accounts[_to].end_date = _date;\n      accounts[_to].lockedElement[_date].value = _value;\n    }\n    else if (tmp_var > 0)\n    {\n      // \n      accounts[_to].lockedElement[_date].value = tmp_var.add(_value);\n    }\n    else if (_date < start_date)\n    {\n      // \n      // \n      accounts[_to].lockedElement[_date].value = _value;\n      accounts[_to].lockedElement[_date].next = start_date;\n      accounts[_to].start_date = _date;\n    }\n    else if (_date > end_date)\n    {\n      // \n      // \n      accounts[_to].lockedElement[_date].value = _value;\n      accounts[_to].lockedElement[end_date].next = _date;\n      accounts[_to].end_date = _date;\n    }\n    else\n    {\n      /**\n       *  \n       * \n       * \n       * tmp_var  tmp_next\n       * */\n      tmp_date = start_date;\n      tmp_var = accounts[_to].lockedElement[tmp_date].next;\n      while(tmp_var < _date)\n      {\n        tmp_date = tmp_var;\n        tmp_var = accounts[_to].lockedElement[tmp_date].next;\n      }\n\n      // \n      accounts[_to].lockedElement[_date].value = _value;\n      accounts[_to].lockedElement[_date].next = tmp_var;\n      accounts[_to].lockedElement[tmp_date].next = _date;\n    }\n\n    // \n    transferLockedBalances(_from, _to, _value);\n\n    return ;\n  }\n\n  /**\n   * buy tokens\n   * */\n  function buy()\n    public\n    whenOpenBuySell\n    whenNotPaused\n    whenNotFrozen(msg.sender)\n    payable\n  {\n    /**\n     * value0\n     * */\n    require(msg.value > 0);\n\n    // token\n    uint256 tvalue = msg.value.mul(MAGNITUDE).div(buyPrice);\n\n    // token\n    if (tvalue > 0)\n    {\n      // \n      fundAccount.transfer(msg.value);\n\n      // \n      transferAvailableBalances(fundAccount, msg.sender, tvalue);\n\n      // Buy\n      emit Buy(msg.sender, msg.value, tvalue);\n    }\n  }\n\n  /**\n   * sell tokens\n   * */\n  function sell(uint256 _value) public whenOpenBuySell whenNotPaused whenNotFrozen(msg.sender) {\n    require(fundAccount != address(0));\n    transfer(fundAccount, _value);\n  }\n\n  /**\n   * token\n   * */\n  function setSellPrice(uint256 price) public whenAdministrator(msg.sender) {\n    require(price > 0);\n    sellPrice = price;\n\n    emit SetSellPrice(msg.sender, price);\n  }\n\n  /**\n   * token\n   * */\n  function setBuyPrice(uint256 price) public whenAdministrator(msg.sender) {\n    require(price > 0);\n    buyPrice = price;\n\n    emit SetBuyPrice(msg.sender, price);\n  }\n\n  /**\n   * \n   * */\n  function setFundAccount(address fund) public onlyOwner {\n    require(fund != address(0));\n    fundAccount = fund;\n\n    emit SetFundAccount(fund);\n  }\n\n  /**\n   * token\n   * */\n  function openBuySell() public whenCloseBuySell onlyOwner {\n    require(fundAccount != address(0));\n    require(sellPrice > 0);\n    require(buyPrice > 0);\n    buySellFlag = true;\n  }\n\n  /**\n   * token\n   * */\n  function closeBuySell() public whenOpenBuySell onlyOwner {\n    buySellFlag = false;\n  }\n\n  /**\n   * \n   * */\n  function availableBalanceOf(address _who) public view returns (uint256) {\n    return balances[_who];\n  }\n\n  /**\n   * \n   * */\n  function lockedBalanceOf(address _who) public view returns (uint256) {\n    return accounts[_who].lockedBalances;\n  }\n\n  /**\n   * \n   * \n   * */\n  function lockedBalanceOfByDate(address _who, uint256 date) public view returns (uint256, uint256) {\n    return (accounts[_who].lockedElement[date].value, accounts[_who].lockedElement[date].next);\n  }\n\n  /**\n   * \n   * */\n  function balanceOf(address _owner) public view returns (uint256) {\n    return balances[_owner] + accounts[_owner].lockedBalances;\n  }\n\n}\n",
  "sourcePath": "/home/henry/learning/git/token/contracts/SibbayHealthToken.sol",
  "compiler": {
    "name": "solc",
    "version": "0.4.24+commit.e67f0147.Emscripten.clang"
  },
  "schemaVersion": "2.0.1",
  "updatedAt": "2018-10-05T07:08:48.916Z"
}