{
  "contractName": "SibbayHealthToken",
  "abi": [
    {
      "constant": true,
      "inputs": [],
      "name": "name",
      "outputs": [
        {
          "name": "",
          "type": "string"
        }
      ],
      "payable": false,
      "stateMutability": "view",
      "type": "function"
    },
    {
      "constant": false,
      "inputs": [
        {
          "name": "who",
          "type": "address"
        }
      ],
      "name": "delAdministrator",
      "outputs": [],
      "payable": false,
      "stateMutability": "nonpayable",
      "type": "function"
    },
    {
      "constant": true,
      "inputs": [],
      "name": "totalSupply",
      "outputs": [
        {
          "name": "",
          "type": "uint256"
        }
      ],
      "payable": false,
      "stateMutability": "view",
      "type": "function"
    },
    {
      "constant": true,
      "inputs": [
        {
          "name": "",
          "type": "address"
        }
      ],
      "name": "adminList",
      "outputs": [
        {
          "name": "",
          "type": "bool"
        }
      ],
      "payable": false,
      "stateMutability": "view",
      "type": "function"
    },
    {
      "constant": true,
      "inputs": [],
      "name": "INITIAL_SUPPLY",
      "outputs": [
        {
          "name": "",
          "type": "uint256"
        }
      ],
      "payable": false,
      "stateMutability": "view",
      "type": "function"
    },
    {
      "constant": true,
      "inputs": [],
      "name": "decimals",
      "outputs": [
        {
          "name": "",
          "type": "uint8"
        }
      ],
      "payable": false,
      "stateMutability": "view",
      "type": "function"
    },
    {
      "constant": false,
      "inputs": [],
      "name": "unpause",
      "outputs": [],
      "payable": false,
      "stateMutability": "nonpayable",
      "type": "function"
    },
    {
      "constant": true,
      "inputs": [],
      "name": "sellPrice",
      "outputs": [
        {
          "name": "",
          "type": "uint256"
        }
      ],
      "payable": false,
      "stateMutability": "view",
      "type": "function"
    },
    {
      "constant": true,
      "inputs": [],
      "name": "paused",
      "outputs": [
        {
          "name": "",
          "type": "bool"
        }
      ],
      "payable": false,
      "stateMutability": "view",
      "type": "function"
    },
    {
      "constant": true,
      "inputs": [
        {
          "name": "",
          "type": "address"
        }
      ],
      "name": "accounts",
      "outputs": [
        {
          "name": "availableBalances",
          "type": "uint256"
        },
        {
          "name": "start_date",
          "type": "uint32"
        },
        {
          "name": "end_date",
          "type": "uint32"
        }
      ],
      "payable": false,
      "stateMutability": "view",
      "type": "function"
    },
    {
      "constant": true,
      "inputs": [
        {
          "name": "",
          "type": "address"
        }
      ],
      "name": "frozenList",
      "outputs": [
        {
          "name": "",
          "type": "bool"
        }
      ],
      "payable": false,
      "stateMutability": "view",
      "type": "function"
    },
    {
      "constant": true,
      "inputs": [
        {
          "name": "_owner",
          "type": "address"
        }
      ],
      "name": "balanceOf",
      "outputs": [
        {
          "name": "",
          "type": "uint256"
        }
      ],
      "payable": false,
      "stateMutability": "view",
      "type": "function"
    },
    {
      "constant": false,
      "inputs": [],
      "name": "renounceOwnership",
      "outputs": [],
      "payable": false,
      "stateMutability": "nonpayable",
      "type": "function"
    },
    {
      "constant": true,
      "inputs": [],
      "name": "buySellFlag",
      "outputs": [
        {
          "name": "",
          "type": "bool"
        }
      ],
      "payable": false,
      "stateMutability": "view",
      "type": "function"
    },
    {
      "constant": false,
      "inputs": [],
      "name": "pause",
      "outputs": [],
      "payable": false,
      "stateMutability": "nonpayable",
      "type": "function"
    },
    {
      "constant": true,
      "inputs": [],
      "name": "buyPrice",
      "outputs": [
        {
          "name": "",
          "type": "uint256"
        }
      ],
      "payable": false,
      "stateMutability": "view",
      "type": "function"
    },
    {
      "constant": true,
      "inputs": [],
      "name": "owner",
      "outputs": [
        {
          "name": "",
          "type": "address"
        }
      ],
      "payable": false,
      "stateMutability": "view",
      "type": "function"
    },
    {
      "constant": true,
      "inputs": [],
      "name": "symbol",
      "outputs": [
        {
          "name": "",
          "type": "string"
        }
      ],
      "payable": false,
      "stateMutability": "view",
      "type": "function"
    },
    {
      "constant": false,
      "inputs": [
        {
          "name": "who",
          "type": "address"
        }
      ],
      "name": "unfroze",
      "outputs": [],
      "payable": false,
      "stateMutability": "nonpayable",
      "type": "function"
    },
    {
      "constant": false,
      "inputs": [
        {
          "name": "who",
          "type": "address"
        }
      ],
      "name": "addAdministrator",
      "outputs": [],
      "payable": false,
      "stateMutability": "nonpayable",
      "type": "function"
    },
    {
      "constant": false,
      "inputs": [
        {
          "name": "who",
          "type": "address"
        }
      ],
      "name": "froze",
      "outputs": [],
      "payable": false,
      "stateMutability": "nonpayable",
      "type": "function"
    },
    {
      "constant": true,
      "inputs": [],
      "name": "fundAccount",
      "outputs": [
        {
          "name": "",
          "type": "address"
        }
      ],
      "payable": false,
      "stateMutability": "view",
      "type": "function"
    },
    {
      "constant": true,
      "inputs": [
        {
          "name": "_owner",
          "type": "address"
        },
        {
          "name": "_spender",
          "type": "address"
        }
      ],
      "name": "allowance",
      "outputs": [
        {
          "name": "",
          "type": "uint256"
        }
      ],
      "payable": false,
      "stateMutability": "view",
      "type": "function"
    },
    {
      "constant": false,
      "inputs": [
        {
          "name": "newOwner",
          "type": "address"
        }
      ],
      "name": "transferOwnership",
      "outputs": [],
      "payable": false,
      "stateMutability": "nonpayable",
      "type": "function"
    },
    {
      "inputs": [],
      "payable": false,
      "stateMutability": "nonpayable",
      "type": "constructor"
    },
    {
      "payable": true,
      "stateMutability": "payable",
      "type": "fallback"
    },
    {
      "anonymous": false,
      "inputs": [
        {
          "indexed": true,
          "name": "from",
          "type": "address"
        },
        {
          "indexed": true,
          "name": "to",
          "type": "address"
        },
        {
          "indexed": false,
          "name": "tokenValue",
          "type": "uint256"
        },
        {
          "indexed": false,
          "name": "etherValue",
          "type": "uint256"
        }
      ],
      "name": "TransferEther",
      "type": "event"
    },
    {
      "anonymous": false,
      "inputs": [
        {
          "indexed": true,
          "name": "admin",
          "type": "address"
        },
        {
          "indexed": false,
          "name": "price",
          "type": "uint256"
        }
      ],
      "name": "SetSellPrice",
      "type": "event"
    },
    {
      "anonymous": false,
      "inputs": [
        {
          "indexed": true,
          "name": "admin",
          "type": "address"
        },
        {
          "indexed": false,
          "name": "price",
          "type": "uint256"
        }
      ],
      "name": "SetBuyPrice",
      "type": "event"
    },
    {
      "anonymous": false,
      "inputs": [
        {
          "indexed": true,
          "name": "who",
          "type": "address"
        },
        {
          "indexed": false,
          "name": "etherValue",
          "type": "uint256"
        },
        {
          "indexed": false,
          "name": "tokenValue",
          "type": "uint256"
        }
      ],
      "name": "Buy",
      "type": "event"
    },
    {
      "anonymous": false,
      "inputs": [
        {
          "indexed": true,
          "name": "fund",
          "type": "address"
        }
      ],
      "name": "SetFundAccount",
      "type": "event"
    },
    {
      "anonymous": false,
      "inputs": [],
      "name": "Pause",
      "type": "event"
    },
    {
      "anonymous": false,
      "inputs": [],
      "name": "Unpause",
      "type": "event"
    },
    {
      "anonymous": false,
      "inputs": [
        {
          "indexed": true,
          "name": "admin",
          "type": "address"
        },
        {
          "indexed": true,
          "name": "who",
          "type": "address"
        }
      ],
      "name": "Froze",
      "type": "event"
    },
    {
      "anonymous": false,
      "inputs": [
        {
          "indexed": true,
          "name": "admin",
          "type": "address"
        },
        {
          "indexed": true,
          "name": "who",
          "type": "address"
        }
      ],
      "name": "Unfroze",
      "type": "event"
    },
    {
      "anonymous": false,
      "inputs": [
        {
          "indexed": true,
          "name": "admin",
          "type": "address"
        }
      ],
      "name": "AddAdministrator",
      "type": "event"
    },
    {
      "anonymous": false,
      "inputs": [
        {
          "indexed": true,
          "name": "admin",
          "type": "address"
        }
      ],
      "name": "DelAdministrator",
      "type": "event"
    },
    {
      "anonymous": false,
      "inputs": [
        {
          "indexed": true,
          "name": "previousOwner",
          "type": "address"
        }
      ],
      "name": "OwnershipRenounced",
      "type": "event"
    },
    {
      "anonymous": false,
      "inputs": [
        {
          "indexed": true,
          "name": "previousOwner",
          "type": "address"
        },
        {
          "indexed": true,
          "name": "newOwner",
          "type": "address"
        }
      ],
      "name": "OwnershipTransferred",
      "type": "event"
    },
    {
      "anonymous": false,
      "inputs": [
        {
          "indexed": true,
          "name": "spender",
          "type": "address"
        },
        {
          "indexed": true,
          "name": "from",
          "type": "address"
        },
        {
          "indexed": true,
          "name": "to",
          "type": "address"
        },
        {
          "indexed": false,
          "name": "value",
          "type": "uint256"
        }
      ],
      "name": "TransferFrom",
      "type": "event"
    },
    {
      "anonymous": false,
      "inputs": [
        {
          "indexed": true,
          "name": "owner",
          "type": "address"
        },
        {
          "indexed": true,
          "name": "spender",
          "type": "address"
        },
        {
          "indexed": false,
          "name": "value",
          "type": "uint256"
        }
      ],
      "name": "Approval",
      "type": "event"
    },
    {
      "anonymous": false,
      "inputs": [
        {
          "indexed": true,
          "name": "from",
          "type": "address"
        },
        {
          "indexed": true,
          "name": "to",
          "type": "address"
        },
        {
          "indexed": false,
          "name": "value",
          "type": "uint256"
        }
      ],
      "name": "Transfer",
      "type": "event"
    },
    {
      "constant": false,
      "inputs": [],
      "name": "withdraw",
      "outputs": [],
      "payable": false,
      "stateMutability": "nonpayable",
      "type": "function"
    },
    {
      "constant": false,
      "inputs": [
        {
          "name": "_to",
          "type": "address"
        },
        {
          "name": "_value",
          "type": "uint256"
        }
      ],
      "name": "transfer",
      "outputs": [
        {
          "name": "",
          "type": "bool"
        }
      ],
      "payable": false,
      "stateMutability": "nonpayable",
      "type": "function"
    },
    {
      "constant": false,
      "inputs": [
        {
          "name": "_from",
          "type": "address"
        },
        {
          "name": "_to",
          "type": "address"
        },
        {
          "name": "_value",
          "type": "uint256"
        }
      ],
      "name": "transferFrom",
      "outputs": [
        {
          "name": "",
          "type": "bool"
        }
      ],
      "payable": false,
      "stateMutability": "nonpayable",
      "type": "function"
    },
    {
      "constant": false,
      "inputs": [
        {
          "name": "_spender",
          "type": "address"
        },
        {
          "name": "_value",
          "type": "uint256"
        }
      ],
      "name": "approve",
      "outputs": [
        {
          "name": "",
          "type": "bool"
        }
      ],
      "payable": false,
      "stateMutability": "nonpayable",
      "type": "function"
    },
    {
      "constant": false,
      "inputs": [
        {
          "name": "_spender",
          "type": "address"
        },
        {
          "name": "_addedValue",
          "type": "uint256"
        }
      ],
      "name": "increaseApproval",
      "outputs": [
        {
          "name": "success",
          "type": "bool"
        }
      ],
      "payable": false,
      "stateMutability": "nonpayable",
      "type": "function"
    },
    {
      "constant": false,
      "inputs": [
        {
          "name": "_spender",
          "type": "address"
        },
        {
          "name": "_subtractedValue",
          "type": "uint256"
        }
      ],
      "name": "decreaseApproval",
      "outputs": [
        {
          "name": "success",
          "type": "bool"
        }
      ],
      "payable": false,
      "stateMutability": "nonpayable",
      "type": "function"
    },
    {
      "constant": false,
      "inputs": [
        {
          "name": "_receivers",
          "type": "address[]"
        },
        {
          "name": "_values",
          "type": "uint256[]"
        }
      ],
      "name": "batchTransfer",
      "outputs": [],
      "payable": false,
      "stateMutability": "nonpayable",
      "type": "function"
    },
    {
      "constant": false,
      "inputs": [
        {
          "name": "_from",
          "type": "address"
        },
        {
          "name": "_receivers",
          "type": "address[]"
        },
        {
          "name": "_values",
          "type": "uint256[]"
        }
      ],
      "name": "batchTransferFrom",
      "outputs": [],
      "payable": false,
      "stateMutability": "nonpayable",
      "type": "function"
    },
    {
      "constant": false,
      "inputs": [
        {
          "name": "_receiver",
          "type": "address"
        },
        {
          "name": "_values",
          "type": "uint256[]"
        },
        {
          "name": "_dates",
          "type": "uint32[]"
        }
      ],
      "name": "transferByDate",
      "outputs": [],
      "payable": false,
      "stateMutability": "nonpayable",
      "type": "function"
    },
    {
      "constant": false,
      "inputs": [
        {
          "name": "_from",
          "type": "address"
        },
        {
          "name": "_receiver",
          "type": "address"
        },
        {
          "name": "_values",
          "type": "uint256[]"
        },
        {
          "name": "_dates",
          "type": "uint32[]"
        }
      ],
      "name": "transferFromByDate",
      "outputs": [],
      "payable": false,
      "stateMutability": "nonpayable",
      "type": "function"
    },
    {
      "constant": false,
      "inputs": [],
      "name": "buy",
      "outputs": [],
      "payable": true,
      "stateMutability": "payable",
      "type": "function"
    },
    {
      "constant": false,
      "inputs": [
        {
          "name": "_value",
          "type": "uint256"
        }
      ],
      "name": "sell",
      "outputs": [],
      "payable": false,
      "stateMutability": "nonpayable",
      "type": "function"
    },
    {
      "constant": false,
      "inputs": [
        {
          "name": "price",
          "type": "uint256"
        }
      ],
      "name": "setSellPrice",
      "outputs": [],
      "payable": false,
      "stateMutability": "nonpayable",
      "type": "function"
    },
    {
      "constant": false,
      "inputs": [
        {
          "name": "price",
          "type": "uint256"
        }
      ],
      "name": "setBuyPrice",
      "outputs": [],
      "payable": false,
      "stateMutability": "nonpayable",
      "type": "function"
    },
    {
      "constant": false,
      "inputs": [
        {
          "name": "fund",
          "type": "address"
        }
      ],
      "name": "setFundAccount",
      "outputs": [],
      "payable": false,
      "stateMutability": "nonpayable",
      "type": "function"
    },
    {
      "constant": false,
      "inputs": [],
      "name": "openBuySell",
      "outputs": [],
      "payable": false,
      "stateMutability": "nonpayable",
      "type": "function"
    },
    {
      "constant": false,
      "inputs": [],
      "name": "closeBuySell",
      "outputs": [],
      "payable": false,
      "stateMutability": "nonpayable",
      "type": "function"
    }
  ],
  "bytecode": "0x60806040526000600360146101000a81548160ff02191690831515021790555034801561002b57600080fd5b5033600360006101000a81548173ffffffffffffffffffffffffffffffffffffffff021916908373ffffffffffffffffffffffffffffffffffffffff160217905550600160056000600360009054906101000a900473ffffffffffffffffffffffffffffffffffffffff1673ffffffffffffffffffffffffffffffffffffffff1673ffffffffffffffffffffffffffffffffffffffff16815260200190815260200160002060006101000a81548160ff021916908315150217905550601260ff16600a0a633b9aca0002600181905550601260ff16600a0a633b9aca00026000803373ffffffffffffffffffffffffffffffffffffffff1673ffffffffffffffffffffffffffffffffffffffff16815260200190815260200160002081905550601260ff16600a0a633b9aca0002600660003373ffffffffffffffffffffffffffffffffffffffff1673ffffffffffffffffffffffffffffffffffffffff168152602001908152602001600020600001819055503373ffffffffffffffffffffffffffffffffffffffff1660007fddf252ad1be2c89b69c2b068fc378daa952ba7f163c4a11628f55a4df523b3ef601260ff16600a0a633b9aca00026040518082815260200191505060405180910390a3600060078190555060006008819055506000600960006101000a81548173ffffffffffffffffffffffffffffffffffffffff021916908373ffffffffffffffffffffffffffffffffffffffff1602179055506000600960146101000a81548160ff021916908315150217905550615228806102786000396000f3006080604052600436106101f9576000357c0100000000000000000000000000000000000000000000000000000000900463ffffffff16806306fdde03146101fb578063095ea7b31461028b57806315dfaccd146102f057806318160ddd1461033357806323b872dd1461035e57806327304dfd146103e35780632ff2e9dc1461043e578063313ce567146104695780633ccfd60b1461049a5780633f4ba83a146104b15780634885b254146104c85780634b750334146105915780635c975abb146105bc5780635e5c06e2146105eb57806363ae8d6c14610668578063661884631461069557806369ea5cda146106fa5780636a8269b4146107115780636b1bfd331461076c57806370a08231146107af578063715018a6146108065780637ab2af091461081d5780638456cb591461084c5780638620410b1461086357806388d695b21461088e5780638da5cb5b1461093757806395d89b411461098e578063a6f2ae3a14610a1e578063a9059cbb14610a28578063b5632cec14610a8d578063c505812e14610ad0578063c999117614610b99578063d6b5082f14610bdc578063d73dd62314610c1f578063d9a8748c14610c84578063dd62ed3e14610cdb578063e329221e14610d52578063e4849b3214610e3b578063f2fde38b14610e68578063f87589a214610eab578063fc6634b914610ec2575b005b34801561020757600080fd5b50610210610eef565b6040518080602001828103825283818151815260200191508051906020019080838360005b83811015610250578082015181840152602081019050610235565b50505050905090810190601f16801561027d5780820380516001836020036101000a031916815260200191505b509250505060405180910390f35b34801561029757600080fd5b506102d6600480360381019080803573ffffffffffffffffffffffffffffffffffffffff16906020019092919080359060200190929190505050610f28565b604051808215151515815260200191505060405180910390f35b3480156102fc57600080fd5b50610331600480360381019080803573ffffffffffffffffffffffffffffffffffffffff16906020019092919050505061100e565b005b34801561033f57600080fd5b506103486110ff565b6040518082815260200191505060405180910390f35b34801561036a57600080fd5b506103c9600480360381019080803573ffffffffffffffffffffffffffffffffffffffff169060200190929190803573ffffffffffffffffffffffffffffffffffffffff16906020019092919080359060200190929190505050611109565b604051808215151515815260200191505060405180910390f35b3480156103ef57600080fd5b50610424600480360381019080803573ffffffffffffffffffffffffffffffffffffffff16906020019092919050505061143a565b604051808215151515815260200191505060405180910390f35b34801561044a57600080fd5b5061045361145a565b6040518082815260200191505060405180910390f35b34801561047557600080fd5b5061047e61146b565b604051808260ff1660ff16815260200191505060405180910390f35b3480156104a657600080fd5b506104af611470565b005b3480156104bd57600080fd5b506104c6611554565b005b3480156104d457600080fd5b5061058f600480360381019080803573ffffffffffffffffffffffffffffffffffffffff1690602001909291908035906020019082018035906020019080806020026020016040519081016040528093929190818152602001838360200280828437820191505050505050919291929080359060200190820180359060200190808060200260200160405190810160405280939291908181526020018383602002808284378201915050505050509192919290505050611614565b005b34801561059d57600080fd5b506105a6611ada565b6040518082815260200191505060405180910390f35b3480156105c857600080fd5b506105d1611ae0565b604051808215151515815260200191505060405180910390f35b3480156105f757600080fd5b5061062c600480360381019080803573ffffffffffffffffffffffffffffffffffffffff169060200190929190505050611af3565b604051808481526020018363ffffffff1663ffffffff1681526020018263ffffffff1663ffffffff168152602001935050505060405180910390f35b34801561067457600080fd5b5061069360048036038101908080359060200190929190505050611b3d565b005b3480156106a157600080fd5b506106e0600480360381019080803573ffffffffffffffffffffffffffffffffffffffff16906020019092919080359060200190929190505050611bfe565b604051808215151515815260200191505060405180910390f35b34801561070657600080fd5b5061070f611ce4565b005b34801561071d57600080fd5b50610752600480360381019080803573ffffffffffffffffffffffffffffffffffffffff169060200190929190505050611df9565b604051808215151515815260200191505060405180910390f35b34801561077857600080fd5b506107ad600480360381019080803573ffffffffffffffffffffffffffffffffffffffff169060200190929190505050611e19565b005b3480156107bb57600080fd5b506107f0600480360381019080803573ffffffffffffffffffffffffffffffffffffffff169060200190929190505050611f38565b6040518082815260200191505060405180910390f35b34801561081257600080fd5b5061081b611f80565b005b34801561082957600080fd5b50610832612085565b604051808215151515815260200191505060405180910390f35b34801561085857600080fd5b50610861612098565b005b34801561086f57600080fd5b50610878612159565b6040518082815260200191505060405180910390f35b34801561089a57600080fd5b50610935600480360381019080803590602001908201803590602001908080602002602001604051908101604052809392919081815260200183836020028082843782019150505050505091929192908035906020019082018035906020019080806020026020016040519081016040528093929190818152602001838360200280828437820191505050505050919291929050505061215f565b005b34801561094357600080fd5b5061094c61242f565b604051808273ffffffffffffffffffffffffffffffffffffffff1673ffffffffffffffffffffffffffffffffffffffff16815260200191505060405180910390f35b34801561099a57600080fd5b506109a3612455565b6040518080602001828103825283818151815260200191508051906020019080838360005b838110156109e35780820151818401526020810190506109c8565b50505050905090810190601f168015610a105780820380516001836020036101000a031916815260200191505b509250505060405180910390f35b610a2661248e565b005b348015610a3457600080fd5b50610a73600480360381019080803573ffffffffffffffffffffffffffffffffffffffff16906020019092919080359060200190929190505050612687565b604051808215151515815260200191505060405180910390f35b348015610a9957600080fd5b50610ace600480360381019080803573ffffffffffffffffffffffffffffffffffffffff1690602001909291905050506127a8565b005b348015610adc57600080fd5b50610b97600480360381019080803573ffffffffffffffffffffffffffffffffffffffff16906020019092919080359060200190820180359060200190808060200260200160405190810160405280939291908181526020018383602002808284378201915050505050509192919290803590602001908201803590602001908080602002602001604051908101604052809392919081815260200183836020028082843782019150505050505091929192905050506128ae565b005b348015610ba557600080fd5b50610bda600480360381019080803573ffffffffffffffffffffffffffffffffffffffff169060200190929190505050612b01565b005b348015610be857600080fd5b50610c1d600480360381019080803573ffffffffffffffffffffffffffffffffffffffff169060200190929190505050612bfb565b005b348015610c2b57600080fd5b50610c6a600480360381019080803573ffffffffffffffffffffffffffffffffffffffff16906020019092919080359060200190929190505050612d0a565b604051808215151515815260200191505060405180910390f35b348015610c9057600080fd5b50610c99612df0565b604051808273ffffffffffffffffffffffffffffffffffffffff1673ffffffffffffffffffffffffffffffffffffffff16815260200191505060405180910390f35b348015610ce757600080fd5b50610d3c600480360381019080803573ffffffffffffffffffffffffffffffffffffffff169060200190929190803573ffffffffffffffffffffffffffffffffffffffff169060200190929190505050612e16565b6040518082815260200191505060405180910390f35b348015610d5e57600080fd5b50610e39600480360381019080803573ffffffffffffffffffffffffffffffffffffffff169060200190929190803573ffffffffffffffffffffffffffffffffffffffff1690602001909291908035906020019082018035906020019080806020026020016040519081016040528093929190818152602001838360200280828437820191505050505050919291929080359060200190820180359060200190808060200260200160405190810160405280939291908181526020018383602002808284378201915050505050509192919290505050612e9d565b005b348015610e4757600080fd5b50610e66600480360381019080803590602001909291905050506132e6565b005b348015610e7457600080fd5b50610ea9600480360381019080803573ffffffffffffffffffffffffffffffffffffffff169060200190929190505050613406565b005b348015610eb757600080fd5b50610ec061355e565b005b348015610ece57600080fd5b50610eed600480360381019080803590602001909291905050506135f2565b005b6040805190810160405280601381526020017f536962626179204865616c746820546f6b656e0000000000000000000000000081525081565b6000600360149054906101000a900460ff16151515610f4657600080fd5b33600460008273ffffffffffffffffffffffffffffffffffffffff1673ffffffffffffffffffffffffffffffffffffffff16815260200190815260200160002060009054906101000a900460ff16151515610fa057600080fd5b83600460008273ffffffffffffffffffffffffffffffffffffffff1673ffffffffffffffffffffffffffffffffffffffff16815260200190815260200160002060009054906101000a900460ff16151515610ffa57600080fd5b61100485856136b3565b9250505092915050565b600360009054906101000a900473ffffffffffffffffffffffffffffffffffffffff1673ffffffffffffffffffffffffffffffffffffffff163373ffffffffffffffffffffffffffffffffffffffff1614151561106a57600080fd5b600560008273ffffffffffffffffffffffffffffffffffffffff1673ffffffffffffffffffffffffffffffffffffffff16815260200190815260200160002060006101000a81549060ff02191690558073ffffffffffffffffffffffffffffffffffffffff167fa5afe14290b6481c42b0941584b7c9093cc3d4cf9dc885904881f063e012e31360405160405180910390a250565b6000600154905090565b6000600360149054906101000a900460ff1615151561112757600080fd5b33600460008273ffffffffffffffffffffffffffffffffffffffff1673ffffffffffffffffffffffffffffffffffffffff16815260200190815260200160002060009054906101000a900460ff1615151561118157600080fd5b84600460008273ffffffffffffffffffffffffffffffffffffffff1673ffffffffffffffffffffffffffffffffffffffff16815260200190815260200160002060009054906101000a900460ff161515156111db57600080fd5b600960009054906101000a900473ffffffffffffffffffffffffffffffffffffffff1673ffffffffffffffffffffffffffffffffffffffff168573ffffffffffffffffffffffffffffffffffffffff161415151561123857600080fd5b600073ffffffffffffffffffffffffffffffffffffffff168573ffffffffffffffffffffffffffffffffffffffff161415151561127457600080fd5b61127d866137a5565b600260008773ffffffffffffffffffffffffffffffffffffffff1673ffffffffffffffffffffffffffffffffffffffff16815260200190815260200160002060003373ffffffffffffffffffffffffffffffffffffffff1673ffffffffffffffffffffffffffffffffffffffff16815260200190815260200160002054841115151561130857600080fd5b611313868686613c84565b61131e868686613e10565b6113ad84600260008973ffffffffffffffffffffffffffffffffffffffff1673ffffffffffffffffffffffffffffffffffffffff16815260200190815260200160002060003373ffffffffffffffffffffffffffffffffffffffff1673ffffffffffffffffffffffffffffffffffffffff168152602001908152602001600020546140a390919063ffffffff16565b600260008873ffffffffffffffffffffffffffffffffffffffff1673ffffffffffffffffffffffffffffffffffffffff16815260200190815260200160002060003373ffffffffffffffffffffffffffffffffffffffff1673ffffffffffffffffffffffffffffffffffffffff168152602001908152602001600020819055506001925050509392505050565b60056020528060005260406000206000915054906101000a900460ff1681565b601260ff16600a0a633b9aca000281565b601281565b6000600360009054906101000a900473ffffffffffffffffffffffffffffffffffffffff1673ffffffffffffffffffffffffffffffffffffffff163373ffffffffffffffffffffffffffffffffffffffff161415156114ce57600080fd5b3073ffffffffffffffffffffffffffffffffffffffff16319050600360009054906101000a900473ffffffffffffffffffffffffffffffffffffffff1673ffffffffffffffffffffffffffffffffffffffff166108fc829081150290604051600060405180830381858888f19350505050158015611550573d6000803e3d6000fd5b5050565b600360009054906101000a900473ffffffffffffffffffffffffffffffffffffffff1673ffffffffffffffffffffffffffffffffffffffff163373ffffffffffffffffffffffffffffffffffffffff161415156115b057600080fd5b600360149054906101000a900460ff1615156115cb57600080fd5b6000600360146101000a81548160ff0219169083151502179055507f7805862f689e2f13df9f062ff482ad3ad112aca9e0847911ed832e158c525b3360405160405180910390a1565b600080600360149054906101000a900460ff1615151561163357600080fd5b33600460008273ffffffffffffffffffffffffffffffffffffffff1673ffffffffffffffffffffffffffffffffffffffff16815260200190815260200160002060009054906101000a900460ff1615151561168d57600080fd5b85600460008273ffffffffffffffffffffffffffffffffffffffff1673ffffffffffffffffffffffffffffffffffffffff16815260200190815260200160002060009054906101000a900460ff161515156116e757600080fd5b600086511180156116f9575084518651145b151561170457600080fd5b61170d876137a5565b6000935060009250600093505b84518463ffffffff16101561176857611759858563ffffffff1681518110151561174057fe5b90602001906020020151846140bc90919063ffffffff16565b9250838060010194505061171a565b600660008873ffffffffffffffffffffffffffffffffffffffff1673ffffffffffffffffffffffffffffffffffffffff1681526020019081526020016000206000015483111515156117b957600080fd5b600260008873ffffffffffffffffffffffffffffffffffffffff1673ffffffffffffffffffffffffffffffffffffffff16815260200190815260200160002060003373ffffffffffffffffffffffffffffffffffffffff1673ffffffffffffffffffffffffffffffffffffffff16815260200190815260200160002054831115151561184457600080fd5b600093505b85518463ffffffff1610156119c257600960009054906101000a900473ffffffffffffffffffffffffffffffffffffffff1673ffffffffffffffffffffffffffffffffffffffff16868563ffffffff168151811015156118a557fe5b9060200190602002015173ffffffffffffffffffffffffffffffffffffffff16141515156118d257600080fd5b600073ffffffffffffffffffffffffffffffffffffffff16868563ffffffff168151811015156118fe57fe5b9060200190602002015173ffffffffffffffffffffffffffffffffffffffff161415151561192b57600080fd5b61197087878663ffffffff1681518110151561194357fe5b90602001906020020151878763ffffffff1681518110151561196157fe5b90602001906020020151613c84565b6119b587878663ffffffff1681518110151561198857fe5b90602001906020020151878763ffffffff168151811015156119a657fe5b90602001906020020151613e10565b8380600101945050611849565b611a5183600260008a73ffffffffffffffffffffffffffffffffffffffff1673ffffffffffffffffffffffffffffffffffffffff16815260200190815260200160002060003373ffffffffffffffffffffffffffffffffffffffff1673ffffffffffffffffffffffffffffffffffffffff168152602001908152602001600020546140a390919063ffffffff16565b600260008973ffffffffffffffffffffffffffffffffffffffff1673ffffffffffffffffffffffffffffffffffffffff16815260200190815260200160002060003373ffffffffffffffffffffffffffffffffffffffff1673ffffffffffffffffffffffffffffffffffffffff1681526020019081526020016000208190555050505050505050565b60075481565b600360149054906101000a900460ff1681565b60066020528060005260406000206000915090508060000154908060020160009054906101000a900463ffffffff16908060020160049054906101000a900463ffffffff16905083565b33600560008273ffffffffffffffffffffffffffffffffffffffff1673ffffffffffffffffffffffffffffffffffffffff16815260200190815260200160002060009054906101000a900460ff161515611b9657600080fd5b600082111515611ba557600080fd5b816008819055503373ffffffffffffffffffffffffffffffffffffffff167f8d10f638f8d24cb1079a79c932f23795987d49aebc819317bc4b18a084d02809836040518082815260200191505060405180910390a25050565b6000600360149054906101000a900460ff16151515611c1c57600080fd5b33600460008273ffffffffffffffffffffffffffffffffffffffff1673ffffffffffffffffffffffffffffffffffffffff16815260200190815260200160002060009054906101000a900460ff16151515611c7657600080fd5b83600460008273ffffffffffffffffffffffffffffffffffffffff1673ffffffffffffffffffffffffffffffffffffffff16815260200190815260200160002060009054906101000a900460ff16151515611cd057600080fd5b611cda85856140d8565b9250505092915050565b600960149054906101000a900460ff16151515611d0057600080fd5b600360009054906101000a900473ffffffffffffffffffffffffffffffffffffffff1673ffffffffffffffffffffffffffffffffffffffff163373ffffffffffffffffffffffffffffffffffffffff16141515611d5c57600080fd5b600073ffffffffffffffffffffffffffffffffffffffff16600960009054906101000a900473ffffffffffffffffffffffffffffffffffffffff1673ffffffffffffffffffffffffffffffffffffffff1614151515611dba57600080fd5b6000600754111515611dcb57600080fd5b6000600854111515611ddc57600080fd5b6001600960146101000a81548160ff021916908315150217905550565b60046020528060005260406000206000915054906101000a900460ff1681565b600360009054906101000a900473ffffffffffffffffffffffffffffffffffffffff1673ffffffffffffffffffffffffffffffffffffffff163373ffffffffffffffffffffffffffffffffffffffff16141515611e7557600080fd5b600073ffffffffffffffffffffffffffffffffffffffff168173ffffffffffffffffffffffffffffffffffffffff1614151515611eb157600080fd5b80600960006101000a81548173ffffffffffffffffffffffffffffffffffffffff021916908373ffffffffffffffffffffffffffffffffffffffff1602179055508073ffffffffffffffffffffffffffffffffffffffff167fdd7881875c2171524331608073ba5fba2a6ff96cf8341d25f9ea84b5c003669060405160405180910390a250565b60008060008373ffffffffffffffffffffffffffffffffffffffff1673ffffffffffffffffffffffffffffffffffffffff168152602001908152602001600020549050919050565b600360009054906101000a900473ffffffffffffffffffffffffffffffffffffffff1673ffffffffffffffffffffffffffffffffffffffff163373ffffffffffffffffffffffffffffffffffffffff16141515611fdc57600080fd5b600360009054906101000a900473ffffffffffffffffffffffffffffffffffffffff1673ffffffffffffffffffffffffffffffffffffffff167ff8df31144d9c2f0f6b59d69b8b98abd5459d07f2742c4df920b25aae33c6482060405160405180910390a26000600360006101000a81548173ffffffffffffffffffffffffffffffffffffffff021916908373ffffffffffffffffffffffffffffffffffffffff160217905550565b600960149054906101000a900460ff1681565b600360009054906101000a900473ffffffffffffffffffffffffffffffffffffffff1673ffffffffffffffffffffffffffffffffffffffff163373ffffffffffffffffffffffffffffffffffffffff161415156120f457600080fd5b600360149054906101000a900460ff1615151561211057600080fd5b6001600360146101000a81548160ff0219169083151502179055507f6985a02210a168e66602d3235cb6db0e70f92b3ba4d376a33c0f3d9434bff62560405160405180910390a1565b60085481565b600080600360149054906101000a900460ff1615151561217e57600080fd5b33600460008273ffffffffffffffffffffffffffffffffffffffff1673ffffffffffffffffffffffffffffffffffffffff16815260200190815260200160002060009054906101000a900460ff161515156121d857600080fd5b600085511180156121ea575083518551145b15156121f557600080fd5b6121fe336137a5565b6000925060009150600092505b83518363ffffffff1610156122595761224a848463ffffffff1681518110151561223157fe5b90602001906020020151836140bc90919063ffffffff16565b9150828060010193505061220b565b600660003373ffffffffffffffffffffffffffffffffffffffff1673ffffffffffffffffffffffffffffffffffffffff1681526020019081526020016000206000015482111515156122aa57600080fd5b600092505b84518363ffffffff16101561242857600960009054906101000a900473ffffffffffffffffffffffffffffffffffffffff1673ffffffffffffffffffffffffffffffffffffffff16858463ffffffff1681518110151561230b57fe5b9060200190602002015173ffffffffffffffffffffffffffffffffffffffff161415151561233857600080fd5b600073ffffffffffffffffffffffffffffffffffffffff16858463ffffffff1681518110151561236457fe5b9060200190602002015173ffffffffffffffffffffffffffffffffffffffff161415151561239157600080fd5b6123d633868563ffffffff168151811015156123a957fe5b90602001906020020151868663ffffffff168151811015156123c757fe5b90602001906020020151613c84565b61241b33868563ffffffff168151811015156123ee57fe5b90602001906020020151868663ffffffff1681518110151561240c57fe5b90602001906020020151613e10565b82806001019350506122af565b5050505050565b600360009054906101000a900473ffffffffffffffffffffffffffffffffffffffff1681565b6040805190810160405280600381526020017f534854000000000000000000000000000000000000000000000000000000000081525081565b6000600960149054906101000a900460ff1615156124ab57600080fd5b600360149054906101000a900460ff161515156124c757600080fd5b33600460008273ffffffffffffffffffffffffffffffffffffffff1673ffffffffffffffffffffffffffffffffffffffff16815260200190815260200160002060009054906101000a900460ff1615151561252157600080fd5b60003411151561253057600080fd5b61255e600854612550601260ff16600a0a3461436990919063ffffffff16565b6143a190919063ffffffff16565b9150600082111561268357600960009054906101000a900473ffffffffffffffffffffffffffffffffffffffff1673ffffffffffffffffffffffffffffffffffffffff166108fc349081150290604051600060405180830381858888f193505050501580156125d1573d6000803e3d6000fd5b506125ff600960009054906101000a900473ffffffffffffffffffffffffffffffffffffffff163384613c84565b61262c600960009054906101000a900473ffffffffffffffffffffffffffffffffffffffff163384613e10565b3373ffffffffffffffffffffffffffffffffffffffff167f1cbc5ab135991bd2b6a4b034a04aa2aa086dac1371cb9b16b8b5e2ed6b036bed3484604051808381526020018281526020019250505060405180910390a25b5050565b6000600360149054906101000a900460ff161515156126a557600080fd5b600460003373ffffffffffffffffffffffffffffffffffffffff1673ffffffffffffffffffffffffffffffffffffffff16815260200190815260200160002060009054906101000a900460ff161561273757600073ffffffffffffffffffffffffffffffffffffffff168373ffffffffffffffffffffffffffffffffffffffff1614151561273257600080fd5b612774565b600073ffffffffffffffffffffffffffffffffffffffff168373ffffffffffffffffffffffffffffffffffffffff161415151561277357600080fd5b5b61277d336137a5565b612788338484613c84565b612793338484613e10565b61279e3384846143b7565b6001905092915050565b33600560008273ffffffffffffffffffffffffffffffffffffffff1673ffffffffffffffffffffffffffffffffffffffff16815260200190815260200160002060009054906101000a900460ff16151561280157600080fd5b600460008373ffffffffffffffffffffffffffffffffffffffff1673ffffffffffffffffffffffffffffffffffffffff16815260200190815260200160002060006101000a81549060ff02191690558173ffffffffffffffffffffffffffffffffffffffff163373ffffffffffffffffffffffffffffffffffffffff167fa8ca4c1e2e1ebc26164949943a221a5199219743fcc8533fdb005f039ed4785b60405160405180910390a35050565b600080600360149054906101000a900460ff161515156128cd57600080fd5b33600460008273ffffffffffffffffffffffffffffffffffffffff1673ffffffffffffffffffffffffffffffffffffffff16815260200190815260200160002060009054906101000a900460ff1615151561292757600080fd5b60008551118015612939575083518551145b151561294457600080fd5b600960009054906101000a900473ffffffffffffffffffffffffffffffffffffffff1673ffffffffffffffffffffffffffffffffffffffff168673ffffffffffffffffffffffffffffffffffffffff16141515156129a157600080fd5b600073ffffffffffffffffffffffffffffffffffffffff168673ffffffffffffffffffffffffffffffffffffffff16141515156129dd57600080fd5b6129e6336137a5565b6000925060009150600092505b84518363ffffffff161015612a4157612a32858463ffffffff16815181101515612a1957fe5b90602001906020020151836140bc90919063ffffffff16565b915082806001019350506129f3565b600660003373ffffffffffffffffffffffffffffffffffffffff1673ffffffffffffffffffffffffffffffffffffffff168152602001908152602001600020600001548211151515612a9257600080fd5b600092505b84518363ffffffff161015612af957612aec3387878663ffffffff16815181101515612abf57fe5b90602001906020020151878763ffffffff16815181101515612add57fe5b9060200190602002015161455a565b8280600101935050612a97565b505050505050565b600360009054906101000a900473ffffffffffffffffffffffffffffffffffffffff1673ffffffffffffffffffffffffffffffffffffffff163373ffffffffffffffffffffffffffffffffffffffff16141515612b5d57600080fd5b6001600560008373ffffffffffffffffffffffffffffffffffffffff1673ffffffffffffffffffffffffffffffffffffffff16815260200190815260200160002060006101000a81548160ff0219169083151502179055508073ffffffffffffffffffffffffffffffffffffffff167f6e5eedde7d0d690d55dea362660be04ef1eb36252e48817545afb1ae6b245a4060405160405180910390a250565b33600560008273ffffffffffffffffffffffffffffffffffffffff1673ffffffffffffffffffffffffffffffffffffffff16815260200190815260200160002060009054906101000a900460ff161515612c5457600080fd5b6001600460008473ffffffffffffffffffffffffffffffffffffffff1673ffffffffffffffffffffffffffffffffffffffff16815260200190815260200160002060006101000a81548160ff0219169083151502179055508173ffffffffffffffffffffffffffffffffffffffff163373ffffffffffffffffffffffffffffffffffffffff167f2ae3d8beb1529a220b658a87b905671775be575d98eb1c786b4b9da45a2d7aea60405160405180910390a35050565b6000600360149054906101000a900460ff16151515612d2857600080fd5b33600460008273ffffffffffffffffffffffffffffffffffffffff1673ffffffffffffffffffffffffffffffffffffffff16815260200190815260200160002060009054906101000a900460ff16151515612d8257600080fd5b83600460008273ffffffffffffffffffffffffffffffffffffffff1673ffffffffffffffffffffffffffffffffffffffff16815260200190815260200160002060009054906101000a900460ff16151515612ddc57600080fd5b612de68585615000565b9250505092915050565b600960009054906101000a900473ffffffffffffffffffffffffffffffffffffffff1681565b6000600260008473ffffffffffffffffffffffffffffffffffffffff1673ffffffffffffffffffffffffffffffffffffffff16815260200190815260200160002060008373ffffffffffffffffffffffffffffffffffffffff1673ffffffffffffffffffffffffffffffffffffffff16815260200190815260200160002054905092915050565b600080600360149054906101000a900460ff16151515612ebc57600080fd5b33600460008273ffffffffffffffffffffffffffffffffffffffff1673ffffffffffffffffffffffffffffffffffffffff16815260200190815260200160002060009054906101000a900460ff16151515612f1657600080fd5b86600460008273ffffffffffffffffffffffffffffffffffffffff1673ffffffffffffffffffffffffffffffffffffffff16815260200190815260200160002060009054906101000a900460ff16151515612f7057600080fd5b60008651118015612f82575084518651145b1515612f8d57600080fd5b600960009054906101000a900473ffffffffffffffffffffffffffffffffffffffff1673ffffffffffffffffffffffffffffffffffffffff168773ffffffffffffffffffffffffffffffffffffffff1614151515612fea57600080fd5b600073ffffffffffffffffffffffffffffffffffffffff168773ffffffffffffffffffffffffffffffffffffffff161415151561302657600080fd5b61302f886137a5565b6000935060009250600093505b85518463ffffffff16101561308a5761307b868563ffffffff1681518110151561306257fe5b90602001906020020151846140bc90919063ffffffff16565b9250838060010194505061303c565b600660008973ffffffffffffffffffffffffffffffffffffffff1673ffffffffffffffffffffffffffffffffffffffff1681526020019081526020016000206000015483111515156130db57600080fd5b600260008973ffffffffffffffffffffffffffffffffffffffff1673ffffffffffffffffffffffffffffffffffffffff16815260200190815260200160002060003373ffffffffffffffffffffffffffffffffffffffff1673ffffffffffffffffffffffffffffffffffffffff16815260200190815260200160002054831115151561316657600080fd5b600093505b85518463ffffffff1610156131cd576131c08888888763ffffffff1681518110151561319357fe5b90602001906020020151888863ffffffff168151811015156131b157fe5b9060200190602002015161455a565b838060010194505061316b565b61325c83600260008b73ffffffffffffffffffffffffffffffffffffffff1673ffffffffffffffffffffffffffffffffffffffff16815260200190815260200160002060003373ffffffffffffffffffffffffffffffffffffffff1673ffffffffffffffffffffffffffffffffffffffff168152602001908152602001600020546140a390919063ffffffff16565b600260008a73ffffffffffffffffffffffffffffffffffffffff1673ffffffffffffffffffffffffffffffffffffffff16815260200190815260200160002060003373ffffffffffffffffffffffffffffffffffffffff1673ffffffffffffffffffffffffffffffffffffffff168152602001908152602001600020819055505050505050505050565b600960149054906101000a900460ff16151561330157600080fd5b600360149054906101000a900460ff1615151561331d57600080fd5b33600460008273ffffffffffffffffffffffffffffffffffffffff1673ffffffffffffffffffffffffffffffffffffffff16815260200190815260200160002060009054906101000a900460ff1615151561337757600080fd5b600073ffffffffffffffffffffffffffffffffffffffff16600960009054906101000a900473ffffffffffffffffffffffffffffffffffffffff1673ffffffffffffffffffffffffffffffffffffffff16141515156133d557600080fd5b613401600960009054906101000a900473ffffffffffffffffffffffffffffffffffffffff1683612687565b505050565b600360009054906101000a900473ffffffffffffffffffffffffffffffffffffffff1673ffffffffffffffffffffffffffffffffffffffff163373ffffffffffffffffffffffffffffffffffffffff1614151561346257600080fd5b600073ffffffffffffffffffffffffffffffffffffffff168173ffffffffffffffffffffffffffffffffffffffff161415151561349e57600080fd5b8073ffffffffffffffffffffffffffffffffffffffff16600360009054906101000a900473ffffffffffffffffffffffffffffffffffffffff1673ffffffffffffffffffffffffffffffffffffffff167f8be0079c531659141344cd1fd0a4f28419497f9722a3daafe3b4186f6b6457e060405160405180910390a380600360006101000a81548173ffffffffffffffffffffffffffffffffffffffff021916908373ffffffffffffffffffffffffffffffffffffffff16021790555050565b600960149054906101000a900460ff16151561357957600080fd5b600360009054906101000a900473ffffffffffffffffffffffffffffffffffffffff1673ffffffffffffffffffffffffffffffffffffffff163373ffffffffffffffffffffffffffffffffffffffff161415156135d557600080fd5b6000600960146101000a81548160ff021916908315150217905550565b33600560008273ffffffffffffffffffffffffffffffffffffffff1673ffffffffffffffffffffffffffffffffffffffff16815260200190815260200160002060009054906101000a900460ff16151561364b57600080fd5b60008211151561365a57600080fd5b816007819055503373ffffffffffffffffffffffffffffffffffffffff167f73e1698972cbdd48a48c8e5a4541f0ba2a3ccc27d9e839124219e655fc351f42836040518082815260200191505060405180910390a25050565b600081600260003373ffffffffffffffffffffffffffffffffffffffff1673ffffffffffffffffffffffffffffffffffffffff16815260200190815260200160002060008573ffffffffffffffffffffffffffffffffffffffff1673ffffffffffffffffffffffffffffffffffffffff168152602001908152602001600020819055508273ffffffffffffffffffffffffffffffffffffffff163373ffffffffffffffffffffffffffffffffffffffff167f8c5be1e5ebec7d5bd14f71427d1e84f3dd0314c0f7b2291e5b200ac8c7c3b925846040518082815260200191505060405180910390a36001905092915050565b60005b6000600660008473ffffffffffffffffffffffffffffffffffffffff1673ffffffffffffffffffffffffffffffffffffffff16815260200190815260200160002060020160009054906101000a900463ffffffff1663ffffffff1614158015613868575042600660008473ffffffffffffffffffffffffffffffffffffffff1673ffffffffffffffffffffffffffffffffffffffff16815260200190815260200160002060020160009054906101000a900463ffffffff1663ffffffff16105b15613bbc57613976600660008473ffffffffffffffffffffffffffffffffffffffff1673ffffffffffffffffffffffffffffffffffffffff1681526020019081526020016000206001016000600660008673ffffffffffffffffffffffffffffffffffffffff1673ffffffffffffffffffffffffffffffffffffffff16815260200190815260200160002060020160009054906101000a900463ffffffff1663ffffffff1663ffffffff16815260200190815260200160002060000154600660008573ffffffffffffffffffffffffffffffffffffffff1673ffffffffffffffffffffffffffffffffffffffff168152602001908152602001600020600001546140bc90919063ffffffff16565b600660008473ffffffffffffffffffffffffffffffffffffffff1673ffffffffffffffffffffffffffffffffffffffff16815260200190815260200160002060000181905550600660008373ffffffffffffffffffffffffffffffffffffffff1673ffffffffffffffffffffffffffffffffffffffff16815260200190815260200160002060020160009054906101000a900463ffffffff169050600660008373ffffffffffffffffffffffffffffffffffffffff1673ffffffffffffffffffffffffffffffffffffffff1681526020019081526020016000206001016000600660008573ffffffffffffffffffffffffffffffffffffffff1673ffffffffffffffffffffffffffffffffffffffff16815260200190815260200160002060020160009054906101000a900463ffffffff1663ffffffff1663ffffffff16815260200190815260200160002060010160009054906101000a900463ffffffff16600660008473ffffffffffffffffffffffffffffffffffffffff1673ffffffffffffffffffffffffffffffffffffffff16815260200190815260200160002060020160006101000a81548163ffffffff021916908363ffffffff160217905550600660008373ffffffffffffffffffffffffffffffffffffffff1673ffffffffffffffffffffffffffffffffffffffff16815260200190815260200160002060010160008263ffffffff1663ffffffff1681526020019081526020016000206000808201600090556001820160006101000a81549063ffffffff021916905550506137a8565b6000600660008473ffffffffffffffffffffffffffffffffffffffff1673ffffffffffffffffffffffffffffffffffffffff16815260200190815260200160002060020160009054906101000a900463ffffffff1663ffffffff161415613c80576000600660008473ffffffffffffffffffffffffffffffffffffffff1673ffffffffffffffffffffffffffffffffffffffff16815260200190815260200160002060020160046101000a81548163ffffffff021916908363ffffffff1602179055505b5050565b600660008473ffffffffffffffffffffffffffffffffffffffff1673ffffffffffffffffffffffffffffffffffffffff168152602001908152602001600020600001548111151515613cd557600080fd5b613d2a81600660008673ffffffffffffffffffffffffffffffffffffffff1673ffffffffffffffffffffffffffffffffffffffff168152602001908152602001600020600001546140a390919063ffffffff16565b600660008573ffffffffffffffffffffffffffffffffffffffff1673ffffffffffffffffffffffffffffffffffffffff16815260200190815260200160002060000181905550613dc581600660008573ffffffffffffffffffffffffffffffffffffffff1673ffffffffffffffffffffffffffffffffffffffff168152602001908152602001600020600001546140bc90919063ffffffff16565b600660008473ffffffffffffffffffffffffffffffffffffffff1673ffffffffffffffffffffffffffffffffffffffff16815260200190815260200160002060000181905550505050565b6000808473ffffffffffffffffffffffffffffffffffffffff1673ffffffffffffffffffffffffffffffffffffffff168152602001908152602001600020548111151515613e5d57600080fd5b613eae816000808673ffffffffffffffffffffffffffffffffffffffff1673ffffffffffffffffffffffffffffffffffffffff168152602001908152602001600020546140a390919063ffffffff16565b6000808573ffffffffffffffffffffffffffffffffffffffff1673ffffffffffffffffffffffffffffffffffffffff16815260200190815260200160002081905550613f41816000808573ffffffffffffffffffffffffffffffffffffffff1673ffffffffffffffffffffffffffffffffffffffff168152602001908152602001600020546140bc90919063ffffffff16565b6000808473ffffffffffffffffffffffffffffffffffffffff1673ffffffffffffffffffffffffffffffffffffffff168152602001908152602001600020819055503373ffffffffffffffffffffffffffffffffffffffff168373ffffffffffffffffffffffffffffffffffffffff161415614021578173ffffffffffffffffffffffffffffffffffffffff168373ffffffffffffffffffffffffffffffffffffffff167fddf252ad1be2c89b69c2b068fc378daa952ba7f163c4a11628f55a4df523b3ef836040518082815260200191505060405180910390a361409e565b8173ffffffffffffffffffffffffffffffffffffffff168373ffffffffffffffffffffffffffffffffffffffff163373ffffffffffffffffffffffffffffffffffffffff167f5f7542858008eeb041631f30e6109ae94b83a58e9a58261dd2c42c508850f939846040518082815260200191505060405180910390a45b505050565b60008282111515156140b157fe5b818303905092915050565b600081830190508281101515156140cf57fe5b80905092915050565b600080600260003373ffffffffffffffffffffffffffffffffffffffff1673ffffffffffffffffffffffffffffffffffffffff16815260200190815260200160002060008573ffffffffffffffffffffffffffffffffffffffff1673ffffffffffffffffffffffffffffffffffffffff168152602001908152602001600020549050808311156141e9576000600260003373ffffffffffffffffffffffffffffffffffffffff1673ffffffffffffffffffffffffffffffffffffffff16815260200190815260200160002060008673ffffffffffffffffffffffffffffffffffffffff1673ffffffffffffffffffffffffffffffffffffffff1681526020019081526020016000208190555061427d565b6141fc83826140a390919063ffffffff16565b600260003373ffffffffffffffffffffffffffffffffffffffff1673ffffffffffffffffffffffffffffffffffffffff16815260200190815260200160002060008673ffffffffffffffffffffffffffffffffffffffff1673ffffffffffffffffffffffffffffffffffffffff168152602001908152602001600020819055505b8373ffffffffffffffffffffffffffffffffffffffff163373ffffffffffffffffffffffffffffffffffffffff167f8c5be1e5ebec7d5bd14f71427d1e84f3dd0314c0f7b2291e5b200ac8c7c3b925600260003373ffffffffffffffffffffffffffffffffffffffff1673ffffffffffffffffffffffffffffffffffffffff16815260200190815260200160002060008873ffffffffffffffffffffffffffffffffffffffff1673ffffffffffffffffffffffffffffffffffffffff168152602001908152602001600020546040518082815260200191505060405180910390a3600191505092915050565b60008083141561437c576000905061439b565b818302905081838281151561438d57fe5b0414151561439757fe5b8090505b92915050565b600081838115156143ae57fe5b04905092915050565b6000600960009054906101000a900473ffffffffffffffffffffffffffffffffffffffff1673ffffffffffffffffffffffffffffffffffffffff168373ffffffffffffffffffffffffffffffffffffffff1614151561441557614554565b600960149054906101000a900460ff16151561443057600080fd5b60008211151561443f57600080fd5b61446d601260ff16600a0a61445f6007548561436990919063ffffffff16565b6143a190919063ffffffff16565b90503073ffffffffffffffffffffffffffffffffffffffff1631811115151561449557600080fd5b6000811115614553578373ffffffffffffffffffffffffffffffffffffffff166108fc829081150290604051600060405180830381858888f193505050501580156144e4573d6000803e3d6000fd5b508273ffffffffffffffffffffffffffffffffffffffff168473ffffffffffffffffffffffffffffffffffffffff167fbc9daf30c1dc1e97765d5edfb5cb2a9207827910a091ecd75cc56dc45e6f02b68484604051808381526020018281526020019250505060405180910390a35b5b50505050565b6000428263ffffffff1611151561458657614576858585613c84565b614581858585613e10565b614ff9565b6000600660008673ffffffffffffffffffffffffffffffffffffffff1673ffffffffffffffffffffffffffffffffffffffff16815260200190815260200160002060020160009054906101000a900463ffffffff1663ffffffff1614156147205781600660008673ffffffffffffffffffffffffffffffffffffffff1673ffffffffffffffffffffffffffffffffffffffff16815260200190815260200160002060020160006101000a81548163ffffffff021916908363ffffffff16021790555081600660008673ffffffffffffffffffffffffffffffffffffffff1673ffffffffffffffffffffffffffffffffffffffff16815260200190815260200160002060020160046101000a81548163ffffffff021916908363ffffffff16021790555082600660008673ffffffffffffffffffffffffffffffffffffffff1673ffffffffffffffffffffffffffffffffffffffff16815260200190815260200160002060010160008463ffffffff1663ffffffff1681526020019081526020016000206000018190555061471b858585613e10565b614ff9565b600660008573ffffffffffffffffffffffffffffffffffffffff1673ffffffffffffffffffffffffffffffffffffffff16815260200190815260200160002060020160009054906101000a900463ffffffff1663ffffffff168263ffffffff1610156149315782600660008673ffffffffffffffffffffffffffffffffffffffff1673ffffffffffffffffffffffffffffffffffffffff16815260200190815260200160002060010160008463ffffffff1663ffffffff16815260200190815260200160002060000181905550600660008573ffffffffffffffffffffffffffffffffffffffff1673ffffffffffffffffffffffffffffffffffffffff16815260200190815260200160002060020160009054906101000a900463ffffffff16600660008673ffffffffffffffffffffffffffffffffffffffff1673ffffffffffffffffffffffffffffffffffffffff16815260200190815260200160002060010160008463ffffffff1663ffffffff16815260200190815260200160002060010160006101000a81548163ffffffff021916908363ffffffff16021790555081600660008673ffffffffffffffffffffffffffffffffffffffff1673ffffffffffffffffffffffffffffffffffffffff16815260200190815260200160002060020160006101000a81548163ffffffff021916908363ffffffff16021790555061492c858585613e10565b614ff9565b600660008573ffffffffffffffffffffffffffffffffffffffff1673ffffffffffffffffffffffffffffffffffffffff16815260200190815260200160002060020160049054906101000a900463ffffffff1663ffffffff168263ffffffff161115614b425782600660008673ffffffffffffffffffffffffffffffffffffffff1673ffffffffffffffffffffffffffffffffffffffff16815260200190815260200160002060010160008463ffffffff1663ffffffff1681526020019081526020016000206000018190555081600660008673ffffffffffffffffffffffffffffffffffffffff1673ffffffffffffffffffffffffffffffffffffffff1681526020019081526020016000206001016000600660008873ffffffffffffffffffffffffffffffffffffffff1673ffffffffffffffffffffffffffffffffffffffff16815260200190815260200160002060020160049054906101000a900463ffffffff1663ffffffff1663ffffffff16815260200190815260200160002060010160006101000a81548163ffffffff021916908363ffffffff16021790555081600660008673ffffffffffffffffffffffffffffffffffffffff1673ffffffffffffffffffffffffffffffffffffffff16815260200190815260200160002060020160046101000a81548163ffffffff021916908363ffffffff160217905550614b3d858585613e10565b614ff9565b600660008573ffffffffffffffffffffffffffffffffffffffff1673ffffffffffffffffffffffffffffffffffffffff16815260200190815260200160002060020160009054906101000a900463ffffffff1690505b6000600660008673ffffffffffffffffffffffffffffffffffffffff1673ffffffffffffffffffffffffffffffffffffffff16815260200190815260200160002060010160008363ffffffff1663ffffffff16815260200190815260200160002060010160009054906101000a900463ffffffff1663ffffffff1614158015614c9e57508163ffffffff16600660008673ffffffffffffffffffffffffffffffffffffffff1673ffffffffffffffffffffffffffffffffffffffff16815260200190815260200160002060010160008363ffffffff1663ffffffff16815260200190815260200160002060010160009054906101000a900463ffffffff1663ffffffff16105b15614d1d57600660008573ffffffffffffffffffffffffffffffffffffffff1673ffffffffffffffffffffffffffffffffffffffff16815260200190815260200160002060010160008263ffffffff1663ffffffff16815260200190815260200160002060010160009054906101000a900463ffffffff169050614b98565b8163ffffffff168163ffffffff161415614e1157614da683600660008773ffffffffffffffffffffffffffffffffffffffff1673ffffffffffffffffffffffffffffffffffffffff16815260200190815260200160002060010160008463ffffffff1663ffffffff168152602001908152602001600020600001546140bc90919063ffffffff16565b600660008673ffffffffffffffffffffffffffffffffffffffff1673ffffffffffffffffffffffffffffffffffffffff16815260200190815260200160002060010160008363ffffffff1663ffffffff16815260200190815260200160002060000181905550614fed565b82600660008673ffffffffffffffffffffffffffffffffffffffff1673ffffffffffffffffffffffffffffffffffffffff16815260200190815260200160002060010160008463ffffffff1663ffffffff16815260200190815260200160002060000181905550600660008573ffffffffffffffffffffffffffffffffffffffff1673ffffffffffffffffffffffffffffffffffffffff16815260200190815260200160002060010160008263ffffffff1663ffffffff16815260200190815260200160002060010160009054906101000a900463ffffffff16600660008673ffffffffffffffffffffffffffffffffffffffff1673ffffffffffffffffffffffffffffffffffffffff16815260200190815260200160002060010160008463ffffffff1663ffffffff16815260200190815260200160002060010160006101000a81548163ffffffff021916908363ffffffff16021790555081600660008673ffffffffffffffffffffffffffffffffffffffff1673ffffffffffffffffffffffffffffffffffffffff16815260200190815260200160002060010160008363ffffffff1663ffffffff16815260200190815260200160002060010160006101000a81548163ffffffff021916908363ffffffff1602179055505b614ff8858585613e10565b5b5050505050565b600061509182600260003373ffffffffffffffffffffffffffffffffffffffff1673ffffffffffffffffffffffffffffffffffffffff16815260200190815260200160002060008673ffffffffffffffffffffffffffffffffffffffff1673ffffffffffffffffffffffffffffffffffffffff168152602001908152602001600020546140bc90919063ffffffff16565b600260003373ffffffffffffffffffffffffffffffffffffffff1673ffffffffffffffffffffffffffffffffffffffff16815260200190815260200160002060008573ffffffffffffffffffffffffffffffffffffffff1673ffffffffffffffffffffffffffffffffffffffff168152602001908152602001600020819055508273ffffffffffffffffffffffffffffffffffffffff163373ffffffffffffffffffffffffffffffffffffffff167f8c5be1e5ebec7d5bd14f71427d1e84f3dd0314c0f7b2291e5b200ac8c7c3b925600260003373ffffffffffffffffffffffffffffffffffffffff1673ffffffffffffffffffffffffffffffffffffffff16815260200190815260200160002060008773ffffffffffffffffffffffffffffffffffffffff1673ffffffffffffffffffffffffffffffffffffffff168152602001908152602001600020546040518082815260200191505060405180910390a360019050929150505600a165627a7a72305820d42613bdfb7d6e27aa899e95745f709978a124a6b9ef0968ad555d8c958d611d0029",
  "source": "pragma solidity ^0.4.24;\n\n\nimport \"./StandardToken.sol\";\nimport \"./Management.sol\";\n\n\n/**\n * @title SibbayHealthToken\n */\ncontract SibbayHealthToken is StandardToken, Management {\n\n  string public constant name = \"Sibbay Health Token\"; // solium-disable-line uppercase\n  string public constant symbol = \"SHT\"; // solium-disable-line uppercase\n  uint8 public constant decimals = 18; // solium-disable-line uppercase\n\n  /**\n   * \n   * , 1tokenwei(tokenwei)\n   * */\n  uint256 constant internal MAGNITUDE = 10 ** uint256(decimals);\n\n  uint256 public constant INITIAL_SUPPLY = 1000000000 * MAGNITUDE;\n\n  // , \n  event TransferEther(\n    address indexed from,\n    address indexed to,\n    uint256 tokenValue,\n    uint256 etherValue);\n  // \n  event SetSellPrice(address indexed admin, uint256 price);\n  // \n  event SetBuyPrice(address indexed admin, uint256 price);\n  // \n  event Buy(address indexed who, uint256 etherValue, uint256 tokenValue);\n  // \n  event SetFundAccount(address indexed fund);\n\n  /**\n   * maplist\n   * value \n   * _next \n   * */\n  struct Element {\n    uint256 value;\n    uint32 next;\n  }\n\n  /**\n   * \n   * availableBalances \n   * lockedElement \n   * start_date \n   * end_date \n   * */\n  struct Account {\n      uint256 availableBalances;\n      mapping(uint32 => Element) lockedElement;\n      uint32 start_date;\n      uint32 end_date;\n  }\n\n  /**\n   * \n   * */\n  mapping(address => Account) public accounts;\n\n  /**\n   * sellPrice: token , 1 tokenwei(wei)\n   * buyPrice: token , 1 tokenwei\n   * fundAccount: tokentoken\n   * buySellFlag: \n   * */\n  uint256 public sellPrice;\n  uint256 public buyPrice;\n  address public fundAccount;\n  bool public buySellFlag;\n\n  /**\n   * \n   * \n   */\n  constructor() public {\n    totalSupply_ = INITIAL_SUPPLY;\n    balances[msg.sender] = INITIAL_SUPPLY;\n    accounts[msg.sender].availableBalances = INITIAL_SUPPLY;\n    emit Transfer(0x0, msg.sender, INITIAL_SUPPLY);\n\n    /**\n     * \n     * \n     * \n     * \n     * false\n     * */\n    sellPrice = 0;\n    buyPrice = 0;\n    fundAccount = address(0);\n    buySellFlag = false;\n  }\n\n  /**\n   * fallback\n   * buy\n   * */\n  function () external payable {\n  }\n\n  /**\n   * \n   * owner\n   * */\n  function withdraw() public onlyOwner {\n    uint256 value = address(this).balance;\n    owner.transfer(value);\n  }\n\n  /**\n   * modifier token\n   * */\n  modifier whenOpenBuySell()\n  {\n    require(buySellFlag);\n    _;\n  }\n\n  /**\n   * modifier token\n   * */\n  modifier whenCloseBuySell()\n  {\n    require(!buySellFlag);\n    _;\n  }\n\n  /**\n   * , \n   * who: \n   * */\n  function getlockedBalances(address who) internal\n  {\n    uint32 tmp_date;\n    while(accounts[who].start_date != 0 &&\n          accounts[who].start_date < now)\n    {\n        accounts[who].availableBalances = accounts[who].availableBalances.add(accounts[who].lockedElement[accounts[who].start_date].value);\n        tmp_date = accounts[who].start_date;\n        accounts[who].start_date = accounts[who].lockedElement[accounts[who].start_date].next;\n        delete accounts[who].lockedElement[tmp_date];\n    }\n\n    // 0\n    if (accounts[who].start_date == 0)\n        accounts[who].end_date = 0;\n  }\n\n  /**\n   * \n   * _from token\n   * _to token\n   * _value token\n   * */\n  function transferAvailableBalances(\n    address _from,\n    address _to,\n    uint256 _value\n  )\n    internal\n  {\n    // \n    require(_value <= accounts[_from].availableBalances);\n\n    // \n    accounts[_from].availableBalances = accounts[_from].availableBalances.sub(_value);\n    accounts[_to].availableBalances = accounts[_to].availableBalances.add(_value);\n  }\n\n  /**\n   * \n   * _from token\n   * _to token\n   * _value token\n   * */\n  function transferTotalBalances(\n    address _from,\n    address _to,\n    uint256 _value\n  )\n    internal\n  {\n    // \n    require(_value <= balances[_from]);\n\n    // \n    balances[_from] = balances[_from].sub(_value);\n    balances[_to] = balances[_to].add(_value);\n\n    // \n    if(_from == msg.sender)\n        emit Transfer(_from, _to, _value);\n    else\n        emit TransferFrom(msg.sender, _from, _to, _value);\n  }\n\n  /**\n   * , \n   * _from token\n   * _to token\n   * _value token\n   * */\n  function transferEther(\n    address _from,\n    address _to,\n    uint256 _value\n  )\n    internal\n  {\n    /**\n     *  _to \n     * */\n    if (_to != fundAccount)\n        return;\n\n    /**\n     * fundAccount\n     * */\n    require(buySellFlag);\n\n    /**\n     * 0\n     * token0\n     * */\n    require(_value > 0);\n\n    // , evalue wei\n    uint256 evalue = _value.mul(sellPrice).div(MAGNITUDE);\n    require(evalue <= address(this).balance);\n\n    // \n    if (evalue > 0)\n    {\n      _from.transfer(evalue);\n      emit TransferEther(_from, _to, _value, evalue);\n    }\n  }\n\n  /**\n   * \n   * */\n  function transfer(\n    address _to,\n    uint256 _value\n  )\n    public\n    whenNotPaused\n    returns (bool)\n  {\n    // address(0)\n    if(frozenList[msg.sender])\n      require(_to == address(0));\n    else\n    {\n      // 0\n      require(_to != address(0));\n    }\n    /**\n     * \n     * */\n    getlockedBalances(msg.sender);\n\n    // \n    transferAvailableBalances(msg.sender, _to, _value);\n\n    // \n    transferTotalBalances(msg.sender, _to,  _value);\n\n    // \n    transferEther(msg.sender, _to, _value);\n\n    return true;\n  }\n\n  /**\n   * \n   *  _from  _value  _to\n   * */\n  function transferFrom(\n    address _from,\n    address _to,\n    uint256 _value\n  )\n    public\n    whenNotPaused\n    whenNotFrozen(msg.sender)\n    whenNotFrozen(_from)\n    returns (bool)\n  {\n    // token\n    require(_to != fundAccount);\n\n    // 0\n    require(_to != address(0));\n\n    /**\n     * \n     * */\n    getlockedBalances(_from);\n\n    // \n    require(_value <= allowed[_from][msg.sender]);\n\n    // \n    transferAvailableBalances(_from, _to, _value);\n\n    // \n    transferTotalBalances(_from, _to,  _value);\n\n    // \n    allowed[_from][msg.sender] = allowed[_from][msg.sender].sub(_value);\n\n    return true;\n  }\n\n  /**\n   * \n   *  _spender  _value\n   * */\n  function approve(\n    address _spender,\n    uint256 _value\n  )\n    public\n    whenNotPaused\n    whenNotFrozen(msg.sender)\n    whenNotFrozen(_spender)\n    returns (bool)\n  {\n    return super.approve(_spender, _value);\n  }\n\n  /**\n   * \n   *  _spender  _addedValue\n   * */\n  function increaseApproval(\n    address _spender,\n    uint _addedValue\n  )\n    public\n    whenNotPaused\n    whenNotFrozen(msg.sender)\n    whenNotFrozen(_spender)\n    returns (bool success)\n  {\n    return super.increaseApproval(_spender, _addedValue);\n  }\n\n  /**\n   * \n   *  _spender  _subtractedValue\n   * */\n  function decreaseApproval(\n    address _spender,\n    uint _subtractedValue\n  )\n    public\n    whenNotPaused\n    whenNotFrozen(msg.sender)\n    whenNotFrozen(_spender)\n    returns (bool success)\n  {\n    return super.decreaseApproval(_spender, _subtractedValue);\n  }\n\n  /**\n   *  token\n   *  _receivers\n   *  _values\n   * */\n  function batchTransfer(\n    address[] _receivers,\n    uint256[] _values\n  )\n    public\n    whenNotPaused\n    whenNotFrozen(msg.sender)\n  {\n    // token\n    require(_receivers.length > 0 && _receivers.length == _values.length);\n\n    /**\n     * \n     * */\n    getlockedBalances(msg.sender);\n\n    // \n    uint32 i = 0;\n    uint256 total = 0;\n    for (i = 0; i < _values.length; i ++)\n    {\n      total = total.add(_values[i]);\n    }\n    require(total <= accounts[msg.sender].availableBalances);\n\n    //  \n    for (i = 0; i < _receivers.length; i ++)\n    {\n      // token\n      require(_receivers[i] != fundAccount);\n\n      // 0\n      require(_receivers[i] != address(0));\n\n      // \n      transferAvailableBalances(msg.sender, _receivers[i], _values[i]);\n\n      // \n      transferTotalBalances(msg.sender, _receivers[i], _values[i]);\n    }\n  }\n\n  /**\n   *  token\n   *  _from\n   *  _receivers\n   *  _values\n   * */\n  function batchTransferFrom(\n    address _from,\n    address[] _receivers,\n    uint256[] _values\n  )\n    public\n    whenNotPaused\n    whenNotFrozen(msg.sender)\n    whenNotFrozen(_from)\n  {\n    // token\n    require(_receivers.length > 0 && _receivers.length == _values.length);\n\n    /**\n     * \n     * */\n    getlockedBalances(_from);\n\n    // \n    uint32 i = 0;\n    uint256 total = 0;\n    for (i = 0; i < _values.length; i ++)\n    {\n      total = total.add(_values[i]);\n    }\n    require(total <= accounts[_from].availableBalances);\n\n    // \n    require(total <= allowed[_from][msg.sender]);\n\n    //  \n    for (i = 0; i < _receivers.length; i ++)\n    {\n      // token\n      require(_receivers[i] != fundAccount);\n\n      // 0\n      require(_receivers[i] != address(0));\n\n      // \n      transferAvailableBalances(_from, _receivers[i], _values[i]);\n\n      // \n      transferTotalBalances(_from, _receivers[i], _values[i]);\n    }\n\n    // \n    allowed[_from][msg.sender] = allowed[_from][msg.sender].sub(total);\n  }\n\n  /**\n   * , token\n   * _receiver \n   * _values \n   * _dates \n   *        UTC197011\n   * */\n  function transferByDate(\n    address _receiver,\n    uint256[] _values,\n    uint32[] _dates\n  )\n    public\n    whenNotPaused\n    whenNotFrozen(msg.sender)\n  {\n    // token\n    require(_values.length > 0 &&\n        _values.length == _dates.length);\n\n    // token\n    require(_receiver != fundAccount);\n\n    // 0\n    require(_receiver != address(0));\n\n    /**\n     * \n     * */\n    getlockedBalances(msg.sender);\n\n    // \n    uint32 i = 0;\n    uint256 total = 0;\n    for (i = 0; i < _values.length; i ++)\n    {\n      total = total.add(_values[i]);\n    }\n    require(total <= accounts[msg.sender].availableBalances);\n\n    // \n    for(i = 0; i < _values.length; i ++)\n    {\n      transferByDateSingle(msg.sender, _receiver, _values[i], _dates[i]);\n    }\n  }\n\n  /**\n   * , token\n   * _from \n   * _receiver \n   * _values \n   * _dates \n   *        UTC197011\n   * */\n  function transferFromByDate(\n    address _from,\n    address _receiver,\n    uint256[] _values,\n    uint32[] _dates\n  )\n    public\n    whenNotPaused\n    whenNotFrozen(msg.sender)\n    whenNotFrozen(_from)\n  {\n    // token\n    require(_values.length > 0 &&\n        _values.length == _dates.length);\n\n    // token\n    require(_receiver != fundAccount);\n\n    // 0\n    require(_receiver != address(0));\n\n    /**\n     * \n     * */\n    getlockedBalances(_from);\n\n    // \n    uint32 i = 0;\n    uint256 total = 0;\n    for (i = 0; i < _values.length; i ++)\n    {\n      total = total.add(_values[i]);\n    }\n    require(total <= accounts[_from].availableBalances);\n\n    // \n    require(total <= allowed[_from][msg.sender]);\n\n    // \n    for(i = 0; i < _values.length; i ++)\n    {\n      transferByDateSingle(_from, _receiver, _values[i], _dates[i]);\n    }\n\n    // \n    allowed[_from][msg.sender] = allowed[_from][msg.sender].sub(total);\n  }\n\n  /**\n   * _from token\n   * _to \n   * _value \n   * _date \n   *       UTC197011\n   * */\n  function transferByDateSingle(\n    address _from,\n    address _to,\n    uint256 _value,\n    uint32 _date\n  )\n    internal\n  {\n    /**\n     * \n     * */\n    if (_date <= now)\n    {\n      // \n      transferAvailableBalances(_from, _to, _value);\n\n      // \n      transferTotalBalances(_from, _to, _value);\n\n      return ;\n    }\n\n    // \n    if (accounts[_to].start_date == 0)\n    {\n      // \n      accounts[_to].start_date = _date;\n      accounts[_to].end_date = _date;\n      accounts[_to].lockedElement[_date].value = _value;\n\n      // \n      transferTotalBalances(_from, _to, _value);\n\n      return ;\n    }\n\n    // \n    if (_date < accounts[_to].start_date)\n    {\n      // \n      accounts[_to].lockedElement[_date].value = _value;\n      accounts[_to].lockedElement[_date].next = accounts[_to].start_date;\n      accounts[_to].start_date = _date;\n\n      // \n      transferTotalBalances(_from, _to, _value);\n\n      return ;\n    }\n\n    // \n    if (_date > accounts[_to].end_date)\n    {\n        accounts[_to].lockedElement[_date].value = _value;\n        accounts[_to].lockedElement[accounts[_to].end_date].next = _date;\n        accounts[_to].end_date = _date;\n\n      // \n      transferTotalBalances(_from, _to, _value);\n\n      return ;\n    }\n\n    /**\n     *  \n     * \n     * \n     * */\n    uint32 tmp_date = accounts[_to].start_date;\n    while(accounts[_to].lockedElement[tmp_date].next != 0 &&\n          accounts[_to].lockedElement[tmp_date].next < _date)\n    {\n      tmp_date = accounts[_to].lockedElement[tmp_date].next;\n    }\n    if(tmp_date == _date)\n    {\n      accounts[_to].lockedElement[tmp_date].value = accounts[_to].lockedElement[tmp_date].value.add(_value);\n    }\n    else\n    {\n      accounts[_to].lockedElement[_date].value = _value;\n      accounts[_to].lockedElement[_date].next = accounts[_to].lockedElement[tmp_date].next;\n      accounts[_to].lockedElement[tmp_date].next = _date;\n    }\n\n    // \n    transferTotalBalances(_from, _to, _value);\n\n    return ;\n  }\n\n  /**\n   * buy tokens\n   * */\n  function buy()\n    public\n    whenOpenBuySell\n    whenNotPaused\n    whenNotFrozen(msg.sender)\n    payable\n  {\n    /**\n     * value0\n     * */\n    require(msg.value > 0);\n\n    // token\n    uint256 tvalue = msg.value.mul(MAGNITUDE).div(buyPrice);\n\n    // token\n    if (tvalue > 0)\n    {\n      // \n      fundAccount.transfer(msg.value);\n\n      // \n      transferAvailableBalances(fundAccount, msg.sender, tvalue);\n\n      // \n      transferTotalBalances(fundAccount, msg.sender, tvalue);\n\n      // Buy\n      emit Buy(msg.sender, msg.value, tvalue);\n    }\n  }\n\n  /**\n   * sell tokens\n   * */\n  function sell(uint256 _value)\n    public\n    whenOpenBuySell\n    whenNotPaused\n    whenNotFrozen(msg.sender)\n  {\n    require(fundAccount != address(0));\n    transfer(fundAccount, _value);\n  }\n\n  /**\n   * token\n   * */\n  function setSellPrice(uint256 price)\n    public\n    whenAdministrator(msg.sender)\n  {\n    require(price > 0);\n    sellPrice = price;\n\n    emit SetSellPrice(msg.sender, price);\n  }\n\n  /**\n   * token\n   * */\n  function setBuyPrice(uint256 price)\n    public\n    whenAdministrator(msg.sender)\n  {\n    require(price > 0);\n    buyPrice = price;\n\n    emit SetBuyPrice(msg.sender, price);\n  }\n\n  /**\n   * \n   * */\n  function setFundAccount(address fund)\n    public\n    onlyOwner\n  {\n    require(fund != address(0));\n    fundAccount = fund;\n\n    emit SetFundAccount(fund);\n  }\n\n  /**\n   * token\n   * */\n  function openBuySell()\n    public\n    whenCloseBuySell\n    onlyOwner\n  {\n    require(fundAccount != address(0));\n    require(sellPrice > 0);\n    require(buyPrice > 0);\n    buySellFlag = true;\n  }\n\n  /**\n   * token\n   * */\n  function closeBuySell()\n    public\n    whenOpenBuySell\n    onlyOwner\n  {\n    buySellFlag = false;\n  }\n\n}\n",
  "sourcePath": "/Users/lifei/workspaces/sibbay-ai/token/contracts/SibbayHealthToken.sol",
  "compiler": {
    "name": "solc",
    "version": "0.4.24+commit.e67f0147.Emscripten.clang"
  },
  "schemaVersion": "2.0.1",
  "updatedAt": "2018-08-25T01:12:28.037Z"
}