{
  "contractName": "SibbayHealthToken",
  "abi": [
    {
      "constant": true,
      "inputs": [],
      "name": "name",
      "outputs": [
        {
          "name": "",
          "type": "string"
        }
      ],
      "payable": false,
      "stateMutability": "view",
      "type": "function"
    },
    {
      "constant": false,
      "inputs": [
        {
          "name": "who",
          "type": "address"
        }
      ],
      "name": "delAdministrator",
      "outputs": [],
      "payable": false,
      "stateMutability": "nonpayable",
      "type": "function"
    },
    {
      "constant": true,
      "inputs": [],
      "name": "totalSupply",
      "outputs": [
        {
          "name": "",
          "type": "uint256"
        }
      ],
      "payable": false,
      "stateMutability": "view",
      "type": "function"
    },
    {
      "constant": true,
      "inputs": [
        {
          "name": "",
          "type": "address"
        }
      ],
      "name": "adminList",
      "outputs": [
        {
          "name": "",
          "type": "bool"
        }
      ],
      "payable": false,
      "stateMutability": "view",
      "type": "function"
    },
    {
      "constant": true,
      "inputs": [],
      "name": "INITIAL_SUPPLY",
      "outputs": [
        {
          "name": "",
          "type": "uint256"
        }
      ],
      "payable": false,
      "stateMutability": "view",
      "type": "function"
    },
    {
      "constant": true,
      "inputs": [],
      "name": "decimals",
      "outputs": [
        {
          "name": "",
          "type": "uint8"
        }
      ],
      "payable": false,
      "stateMutability": "view",
      "type": "function"
    },
    {
      "constant": false,
      "inputs": [],
      "name": "unpause",
      "outputs": [],
      "payable": false,
      "stateMutability": "nonpayable",
      "type": "function"
    },
    {
      "constant": true,
      "inputs": [],
      "name": "sellPrice",
      "outputs": [
        {
          "name": "",
          "type": "uint256"
        }
      ],
      "payable": false,
      "stateMutability": "view",
      "type": "function"
    },
    {
      "constant": true,
      "inputs": [],
      "name": "paused",
      "outputs": [
        {
          "name": "",
          "type": "bool"
        }
      ],
      "payable": false,
      "stateMutability": "view",
      "type": "function"
    },
    {
      "constant": true,
      "inputs": [
        {
          "name": "",
          "type": "address"
        }
      ],
      "name": "accounts",
      "outputs": [
        {
          "name": "lockedBalances",
          "type": "uint256"
        },
        {
          "name": "start_date",
          "type": "uint256"
        },
        {
          "name": "end_date",
          "type": "uint256"
        }
      ],
      "payable": false,
      "stateMutability": "view",
      "type": "function"
    },
    {
      "constant": true,
      "inputs": [
        {
          "name": "",
          "type": "address"
        }
      ],
      "name": "frozenList",
      "outputs": [
        {
          "name": "",
          "type": "bool"
        }
      ],
      "payable": false,
      "stateMutability": "view",
      "type": "function"
    },
    {
      "constant": false,
      "inputs": [],
      "name": "renounceOwnership",
      "outputs": [],
      "payable": false,
      "stateMutability": "nonpayable",
      "type": "function"
    },
    {
      "constant": true,
      "inputs": [],
      "name": "buySellFlag",
      "outputs": [
        {
          "name": "",
          "type": "bool"
        }
      ],
      "payable": false,
      "stateMutability": "view",
      "type": "function"
    },
    {
      "constant": false,
      "inputs": [],
      "name": "pause",
      "outputs": [],
      "payable": false,
      "stateMutability": "nonpayable",
      "type": "function"
    },
    {
      "constant": true,
      "inputs": [],
      "name": "buyPrice",
      "outputs": [
        {
          "name": "",
          "type": "uint256"
        }
      ],
      "payable": false,
      "stateMutability": "view",
      "type": "function"
    },
    {
      "constant": true,
      "inputs": [],
      "name": "owner",
      "outputs": [
        {
          "name": "",
          "type": "address"
        }
      ],
      "payable": false,
      "stateMutability": "view",
      "type": "function"
    },
    {
      "constant": true,
      "inputs": [],
      "name": "symbol",
      "outputs": [
        {
          "name": "",
          "type": "string"
        }
      ],
      "payable": false,
      "stateMutability": "view",
      "type": "function"
    },
    {
      "constant": false,
      "inputs": [
        {
          "name": "who",
          "type": "address"
        }
      ],
      "name": "unfroze",
      "outputs": [],
      "payable": false,
      "stateMutability": "nonpayable",
      "type": "function"
    },
    {
      "constant": false,
      "inputs": [
        {
          "name": "who",
          "type": "address"
        }
      ],
      "name": "addAdministrator",
      "outputs": [],
      "payable": false,
      "stateMutability": "nonpayable",
      "type": "function"
    },
    {
      "constant": false,
      "inputs": [
        {
          "name": "who",
          "type": "address"
        }
      ],
      "name": "froze",
      "outputs": [],
      "payable": false,
      "stateMutability": "nonpayable",
      "type": "function"
    },
    {
      "constant": true,
      "inputs": [],
      "name": "fundAccount",
      "outputs": [
        {
          "name": "",
          "type": "address"
        }
      ],
      "payable": false,
      "stateMutability": "view",
      "type": "function"
    },
    {
      "constant": true,
      "inputs": [
        {
          "name": "_owner",
          "type": "address"
        },
        {
          "name": "_spender",
          "type": "address"
        }
      ],
      "name": "allowance",
      "outputs": [
        {
          "name": "",
          "type": "uint256"
        }
      ],
      "payable": false,
      "stateMutability": "view",
      "type": "function"
    },
    {
      "constant": false,
      "inputs": [
        {
          "name": "newOwner",
          "type": "address"
        }
      ],
      "name": "transferOwnership",
      "outputs": [],
      "payable": false,
      "stateMutability": "nonpayable",
      "type": "function"
    },
    {
      "inputs": [],
      "payable": false,
      "stateMutability": "nonpayable",
      "type": "constructor"
    },
    {
      "payable": true,
      "stateMutability": "payable",
      "type": "fallback"
    },
    {
      "anonymous": false,
      "inputs": [
        {
          "indexed": true,
          "name": "from",
          "type": "address"
        },
        {
          "indexed": true,
          "name": "to",
          "type": "address"
        },
        {
          "indexed": false,
          "name": "tokenValue",
          "type": "uint256"
        },
        {
          "indexed": false,
          "name": "etherValue",
          "type": "uint256"
        }
      ],
      "name": "TransferEther",
      "type": "event"
    },
    {
      "anonymous": false,
      "inputs": [
        {
          "indexed": true,
          "name": "admin",
          "type": "address"
        },
        {
          "indexed": false,
          "name": "price",
          "type": "uint256"
        }
      ],
      "name": "SetSellPrice",
      "type": "event"
    },
    {
      "anonymous": false,
      "inputs": [
        {
          "indexed": true,
          "name": "admin",
          "type": "address"
        },
        {
          "indexed": false,
          "name": "price",
          "type": "uint256"
        }
      ],
      "name": "SetBuyPrice",
      "type": "event"
    },
    {
      "anonymous": false,
      "inputs": [
        {
          "indexed": true,
          "name": "who",
          "type": "address"
        },
        {
          "indexed": false,
          "name": "etherValue",
          "type": "uint256"
        },
        {
          "indexed": false,
          "name": "tokenValue",
          "type": "uint256"
        }
      ],
      "name": "Buy",
      "type": "event"
    },
    {
      "anonymous": false,
      "inputs": [
        {
          "indexed": true,
          "name": "fund",
          "type": "address"
        }
      ],
      "name": "SetFundAccount",
      "type": "event"
    },
    {
      "anonymous": false,
      "inputs": [
        {
          "indexed": true,
          "name": "from",
          "type": "address"
        },
        {
          "indexed": true,
          "name": "to",
          "type": "address"
        },
        {
          "indexed": false,
          "name": "values",
          "type": "uint256[]"
        },
        {
          "indexed": false,
          "name": "dates",
          "type": "uint256[]"
        }
      ],
      "name": "TransferByDate",
      "type": "event"
    },
    {
      "anonymous": false,
      "inputs": [
        {
          "indexed": true,
          "name": "spender",
          "type": "address"
        },
        {
          "indexed": true,
          "name": "from",
          "type": "address"
        },
        {
          "indexed": true,
          "name": "to",
          "type": "address"
        },
        {
          "indexed": false,
          "name": "values",
          "type": "uint256[]"
        },
        {
          "indexed": false,
          "name": "dates",
          "type": "uint256[]"
        }
      ],
      "name": "TransferFromByDate",
      "type": "event"
    },
    {
      "anonymous": false,
      "inputs": [],
      "name": "Pause",
      "type": "event"
    },
    {
      "anonymous": false,
      "inputs": [],
      "name": "Unpause",
      "type": "event"
    },
    {
      "anonymous": false,
      "inputs": [
        {
          "indexed": true,
          "name": "admin",
          "type": "address"
        },
        {
          "indexed": true,
          "name": "who",
          "type": "address"
        }
      ],
      "name": "Froze",
      "type": "event"
    },
    {
      "anonymous": false,
      "inputs": [
        {
          "indexed": true,
          "name": "admin",
          "type": "address"
        },
        {
          "indexed": true,
          "name": "who",
          "type": "address"
        }
      ],
      "name": "Unfroze",
      "type": "event"
    },
    {
      "anonymous": false,
      "inputs": [
        {
          "indexed": true,
          "name": "admin",
          "type": "address"
        }
      ],
      "name": "AddAdministrator",
      "type": "event"
    },
    {
      "anonymous": false,
      "inputs": [
        {
          "indexed": true,
          "name": "admin",
          "type": "address"
        }
      ],
      "name": "DelAdministrator",
      "type": "event"
    },
    {
      "anonymous": false,
      "inputs": [
        {
          "indexed": true,
          "name": "previousOwner",
          "type": "address"
        }
      ],
      "name": "OwnershipRenounced",
      "type": "event"
    },
    {
      "anonymous": false,
      "inputs": [
        {
          "indexed": true,
          "name": "previousOwner",
          "type": "address"
        },
        {
          "indexed": true,
          "name": "newOwner",
          "type": "address"
        }
      ],
      "name": "OwnershipTransferred",
      "type": "event"
    },
    {
      "anonymous": false,
      "inputs": [
        {
          "indexed": true,
          "name": "spender",
          "type": "address"
        },
        {
          "indexed": true,
          "name": "from",
          "type": "address"
        },
        {
          "indexed": true,
          "name": "to",
          "type": "address"
        },
        {
          "indexed": false,
          "name": "value",
          "type": "uint256"
        }
      ],
      "name": "TransferFrom",
      "type": "event"
    },
    {
      "anonymous": false,
      "inputs": [
        {
          "indexed": true,
          "name": "owner",
          "type": "address"
        },
        {
          "indexed": true,
          "name": "spender",
          "type": "address"
        },
        {
          "indexed": false,
          "name": "value",
          "type": "uint256"
        }
      ],
      "name": "Approval",
      "type": "event"
    },
    {
      "anonymous": false,
      "inputs": [
        {
          "indexed": true,
          "name": "from",
          "type": "address"
        },
        {
          "indexed": true,
          "name": "to",
          "type": "address"
        },
        {
          "indexed": false,
          "name": "value",
          "type": "uint256"
        }
      ],
      "name": "Transfer",
      "type": "event"
    },
    {
      "constant": false,
      "inputs": [],
      "name": "withdraw",
      "outputs": [],
      "payable": false,
      "stateMutability": "nonpayable",
      "type": "function"
    },
    {
      "constant": false,
      "inputs": [
        {
          "name": "_to",
          "type": "address"
        },
        {
          "name": "_value",
          "type": "uint256"
        }
      ],
      "name": "transfer",
      "outputs": [
        {
          "name": "",
          "type": "bool"
        }
      ],
      "payable": false,
      "stateMutability": "nonpayable",
      "type": "function"
    },
    {
      "constant": false,
      "inputs": [
        {
          "name": "_from",
          "type": "address"
        },
        {
          "name": "_to",
          "type": "address"
        },
        {
          "name": "_value",
          "type": "uint256"
        }
      ],
      "name": "transferFrom",
      "outputs": [
        {
          "name": "",
          "type": "bool"
        }
      ],
      "payable": false,
      "stateMutability": "nonpayable",
      "type": "function"
    },
    {
      "constant": false,
      "inputs": [
        {
          "name": "_spender",
          "type": "address"
        },
        {
          "name": "_value",
          "type": "uint256"
        }
      ],
      "name": "approve",
      "outputs": [
        {
          "name": "",
          "type": "bool"
        }
      ],
      "payable": false,
      "stateMutability": "nonpayable",
      "type": "function"
    },
    {
      "constant": false,
      "inputs": [
        {
          "name": "_spender",
          "type": "address"
        },
        {
          "name": "_addedValue",
          "type": "uint256"
        }
      ],
      "name": "increaseApproval",
      "outputs": [
        {
          "name": "success",
          "type": "bool"
        }
      ],
      "payable": false,
      "stateMutability": "nonpayable",
      "type": "function"
    },
    {
      "constant": false,
      "inputs": [
        {
          "name": "_spender",
          "type": "address"
        },
        {
          "name": "_subtractedValue",
          "type": "uint256"
        }
      ],
      "name": "decreaseApproval",
      "outputs": [
        {
          "name": "success",
          "type": "bool"
        }
      ],
      "payable": false,
      "stateMutability": "nonpayable",
      "type": "function"
    },
    {
      "constant": false,
      "inputs": [
        {
          "name": "_receivers",
          "type": "address[]"
        },
        {
          "name": "_values",
          "type": "uint256[]"
        }
      ],
      "name": "batchTransfer",
      "outputs": [],
      "payable": false,
      "stateMutability": "nonpayable",
      "type": "function"
    },
    {
      "constant": false,
      "inputs": [
        {
          "name": "_from",
          "type": "address"
        },
        {
          "name": "_receivers",
          "type": "address[]"
        },
        {
          "name": "_values",
          "type": "uint256[]"
        }
      ],
      "name": "batchTransferFrom",
      "outputs": [],
      "payable": false,
      "stateMutability": "nonpayable",
      "type": "function"
    },
    {
      "constant": false,
      "inputs": [
        {
          "name": "_receiver",
          "type": "address"
        },
        {
          "name": "_values",
          "type": "uint256[]"
        },
        {
          "name": "_dates",
          "type": "uint256[]"
        }
      ],
      "name": "transferByDate",
      "outputs": [],
      "payable": false,
      "stateMutability": "nonpayable",
      "type": "function"
    },
    {
      "constant": false,
      "inputs": [
        {
          "name": "_from",
          "type": "address"
        },
        {
          "name": "_receiver",
          "type": "address"
        },
        {
          "name": "_values",
          "type": "uint256[]"
        },
        {
          "name": "_dates",
          "type": "uint256[]"
        }
      ],
      "name": "transferFromByDate",
      "outputs": [],
      "payable": false,
      "stateMutability": "nonpayable",
      "type": "function"
    },
    {
      "constant": false,
      "inputs": [],
      "name": "buy",
      "outputs": [],
      "payable": true,
      "stateMutability": "payable",
      "type": "function"
    },
    {
      "constant": false,
      "inputs": [
        {
          "name": "_value",
          "type": "uint256"
        }
      ],
      "name": "sell",
      "outputs": [],
      "payable": false,
      "stateMutability": "nonpayable",
      "type": "function"
    },
    {
      "constant": false,
      "inputs": [
        {
          "name": "price",
          "type": "uint256"
        }
      ],
      "name": "setSellPrice",
      "outputs": [],
      "payable": false,
      "stateMutability": "nonpayable",
      "type": "function"
    },
    {
      "constant": false,
      "inputs": [
        {
          "name": "price",
          "type": "uint256"
        }
      ],
      "name": "setBuyPrice",
      "outputs": [],
      "payable": false,
      "stateMutability": "nonpayable",
      "type": "function"
    },
    {
      "constant": false,
      "inputs": [
        {
          "name": "fund",
          "type": "address"
        }
      ],
      "name": "setFundAccount",
      "outputs": [],
      "payable": false,
      "stateMutability": "nonpayable",
      "type": "function"
    },
    {
      "constant": false,
      "inputs": [],
      "name": "openBuySell",
      "outputs": [],
      "payable": false,
      "stateMutability": "nonpayable",
      "type": "function"
    },
    {
      "constant": false,
      "inputs": [],
      "name": "closeBuySell",
      "outputs": [],
      "payable": false,
      "stateMutability": "nonpayable",
      "type": "function"
    },
    {
      "constant": false,
      "inputs": [
        {
          "name": "_who",
          "type": "address"
        }
      ],
      "name": "refresh",
      "outputs": [],
      "payable": false,
      "stateMutability": "nonpayable",
      "type": "function"
    },
    {
      "constant": true,
      "inputs": [
        {
          "name": "_who",
          "type": "address"
        }
      ],
      "name": "availableBalanceOf",
      "outputs": [
        {
          "name": "",
          "type": "uint256"
        }
      ],
      "payable": false,
      "stateMutability": "view",
      "type": "function"
    },
    {
      "constant": true,
      "inputs": [
        {
          "name": "_who",
          "type": "address"
        }
      ],
      "name": "lockedBalanceOf",
      "outputs": [
        {
          "name": "",
          "type": "uint256"
        }
      ],
      "payable": false,
      "stateMutability": "view",
      "type": "function"
    },
    {
      "constant": true,
      "inputs": [
        {
          "name": "_who",
          "type": "address"
        },
        {
          "name": "date",
          "type": "uint256"
        }
      ],
      "name": "lockedBalanceOfByDate",
      "outputs": [
        {
          "name": "",
          "type": "uint256"
        },
        {
          "name": "",
          "type": "uint256"
        }
      ],
      "payable": false,
      "stateMutability": "view",
      "type": "function"
    },
    {
      "constant": true,
      "inputs": [
        {
          "name": "_owner",
          "type": "address"
        }
      ],
      "name": "balanceOf",
      "outputs": [
        {
          "name": "",
          "type": "uint256"
        }
      ],
      "payable": false,
      "stateMutability": "view",
      "type": "function"
    }
  ],
  "bytecode": "0x60806040526000600360146101000a81548160ff02191690831515021790555034801561002b57600080fd5b5033600360006101000a81548173ffffffffffffffffffffffffffffffffffffffff021916908373ffffffffffffffffffffffffffffffffffffffff160217905550600160056000600360009054906101000a900473ffffffffffffffffffffffffffffffffffffffff1673ffffffffffffffffffffffffffffffffffffffff1673ffffffffffffffffffffffffffffffffffffffff16815260200190815260200160002060006101000a81548160ff021916908315150217905550601260ff16600a0a633b9aca0002600181905550601260ff16600a0a633b9aca00026000803373ffffffffffffffffffffffffffffffffffffffff1673ffffffffffffffffffffffffffffffffffffffff168152602001908152602001600020819055503373ffffffffffffffffffffffffffffffffffffffff1660007fddf252ad1be2c89b69c2b068fc378daa952ba7f163c4a11628f55a4df523b3ef601260ff16600a0a633b9aca00026040518082815260200191505060405180910390a3600060078190555060006008819055506000600960006101000a81548173ffffffffffffffffffffffffffffffffffffffff021916908373ffffffffffffffffffffffffffffffffffffffff1602179055506000600960146101000a81548160ff021916908315150217905550615197806102246000396000f300608060405260043610610225576000357c0100000000000000000000000000000000000000000000000000000000900463ffffffff16806306fdde0314610227578063095ea7b3146102b75780630afb04091461031c578063113ee9641461035f57806315dfaccd1461044857806318160ddd1461048b57806323b872dd146104b657806325d998bb1461053b57806327304dfd146105925780632ff2e9dc146105ed578063313ce567146106185780633ccfd60b146106495780633f4ba83a146106605780634885b254146106775780634b75033414610740578063593557361461076b5780635c975abb146107c25780635e5c06e2146107f157806363ae8d6c14610856578063661884631461088357806369ea5cda146108e85780636a8269b4146108ff5780636b1bfd331461095a57806370a082311461099d578063715018a6146109f45780637ab2af0914610a0b5780638456cb5914610a3a5780638620410b14610a5157806388d695b214610a7c5780638da5cb5b14610b255780639226237514610b7c57806395d89b4114610c45578063a6f2ae3a14610cd5578063a9059cbb14610cdf578063b5632cec14610d44578063c999117614610d87578063d6b5082f14610dca578063d73dd62314610e0d578063d9a8748c14610e72578063dd62ed3e14610ec9578063e1fac58d14610f40578063e4849b3214610fa8578063f2fde38b14610fd5578063f87589a214611018578063fc6634b91461102f575b005b34801561023357600080fd5b5061023c61105c565b6040518080602001828103825283818151815260200191508051906020019080838360005b8381101561027c578082015181840152602081019050610261565b50505050905090810190601f1680156102a95780820380516001836020036101000a031916815260200191505b509250505060405180910390f35b3480156102c357600080fd5b50610302600480360381019080803573ffffffffffffffffffffffffffffffffffffffff16906020019092919080359060200190929190505050611095565b604051808215151515815260200191505060405180910390f35b34801561032857600080fd5b5061035d600480360381019080803573ffffffffffffffffffffffffffffffffffffffff16906020019092919050505061117b565b005b34801561036b57600080fd5b50610446600480360381019080803573ffffffffffffffffffffffffffffffffffffffff169060200190929190803573ffffffffffffffffffffffffffffffffffffffff1690602001909291908035906020019082018035906020019080806020026020016040519081016040528093929190818152602001838360200280828437820191505050505050919291929080359060200190820180359060200190808060200260200160405190810160405280939291908181526020018383602002808284378201915050505050509192919290505050611187565b005b34801561045457600080fd5b50610489600480360381019080803573ffffffffffffffffffffffffffffffffffffffff1690602001909291905050506116db565b005b34801561049757600080fd5b506104a06117cc565b6040518082815260200191505060405180910390f35b3480156104c257600080fd5b50610521600480360381019080803573ffffffffffffffffffffffffffffffffffffffff169060200190929190803573ffffffffffffffffffffffffffffffffffffffff169060200190929190803590602001909291905050506117d6565b604051808215151515815260200191505060405180910390f35b34801561054757600080fd5b5061057c600480360381019080803573ffffffffffffffffffffffffffffffffffffffff169060200190929190505050611b05565b6040518082815260200191505060405180910390f35b34801561059e57600080fd5b506105d3600480360381019080803573ffffffffffffffffffffffffffffffffffffffff169060200190929190505050611b4d565b604051808215151515815260200191505060405180910390f35b3480156105f957600080fd5b50610602611b6d565b6040518082815260200191505060405180910390f35b34801561062457600080fd5b5061062d611b7e565b604051808260ff1660ff16815260200191505060405180910390f35b34801561065557600080fd5b5061065e611b83565b005b34801561066c57600080fd5b50610675611c67565b005b34801561068357600080fd5b5061073e600480360381019080803573ffffffffffffffffffffffffffffffffffffffff1690602001909291908035906020019082018035906020019080806020026020016040519081016040528093929190818152602001838360200280828437820191505050505050919291929080359060200190820180359060200190808060200260200160405190810160405280939291908181526020018383602002808284378201915050505050509192919290505050611d27565b005b34801561074c57600080fd5b506107556121ca565b6040518082815260200191505060405180910390f35b34801561077757600080fd5b506107ac600480360381019080803573ffffffffffffffffffffffffffffffffffffffff1690602001909291905050506121d0565b6040518082815260200191505060405180910390f35b3480156107ce57600080fd5b506107d761221c565b604051808215151515815260200191505060405180910390f35b3480156107fd57600080fd5b50610832600480360381019080803573ffffffffffffffffffffffffffffffffffffffff16906020019092919050505061222f565b60405180848152602001838152602001828152602001935050505060405180910390f35b34801561086257600080fd5b5061088160048036038101908080359060200190929190505050612259565b005b34801561088f57600080fd5b506108ce600480360381019080803573ffffffffffffffffffffffffffffffffffffffff1690602001909291908035906020019092919050505061231a565b604051808215151515815260200191505060405180910390f35b3480156108f457600080fd5b506108fd612400565b005b34801561090b57600080fd5b50610940600480360381019080803573ffffffffffffffffffffffffffffffffffffffff169060200190929190505050612515565b604051808215151515815260200191505060405180910390f35b34801561096657600080fd5b5061099b600480360381019080803573ffffffffffffffffffffffffffffffffffffffff169060200190929190505050612535565b005b3480156109a957600080fd5b506109de600480360381019080803573ffffffffffffffffffffffffffffffffffffffff169060200190929190505050612654565b6040518082815260200191505060405180910390f35b348015610a0057600080fd5b50610a096126e0565b005b348015610a1757600080fd5b50610a206127e5565b604051808215151515815260200191505060405180910390f35b348015610a4657600080fd5b50610a4f6127f8565b005b348015610a5d57600080fd5b50610a666128b9565b6040518082815260200191505060405180910390f35b348015610a8857600080fd5b50610b2360048036038101908080359060200190820180359060200190808060200260200160405190810160405280939291908181526020018383602002808284378201915050505050509192919290803590602001908201803590602001908080602002602001604051908101604052809392919081815260200183836020028082843782019150505050505091929192905050506128bf565b005b348015610b3157600080fd5b50610b3a612b6c565b604051808273ffffffffffffffffffffffffffffffffffffffff1673ffffffffffffffffffffffffffffffffffffffff16815260200191505060405180910390f35b348015610b8857600080fd5b50610c43600480360381019080803573ffffffffffffffffffffffffffffffffffffffff1690602001909291908035906020019082018035906020019080806020026020016040519081016040528093929190818152602001838360200280828437820191505050505050919291929080359060200190820180359060200190808060200260200160405190810160405280939291908181526020018383602002808284378201915050505050509192919290505050612b92565b005b348015610c5157600080fd5b50610c5a612ed9565b6040518080602001828103825283818151815260200191508051906020019080838360005b83811015610c9a578082015181840152602081019050610c7f565b50505050905090810190601f168015610cc75780820380516001836020036101000a031916815260200191505b509250505060405180910390f35b610cdd612f12565b005b348015610ceb57600080fd5b50610d2a600480360381019080803573ffffffffffffffffffffffffffffffffffffffff169060200190929190803590602001909291905050506130de565b604051808215151515815260200191505060405180910390f35b348015610d5057600080fd5b50610d85600480360381019080803573ffffffffffffffffffffffffffffffffffffffff1690602001909291905050506131fd565b005b348015610d9357600080fd5b50610dc8600480360381019080803573ffffffffffffffffffffffffffffffffffffffff169060200190929190505050613303565b005b348015610dd657600080fd5b50610e0b600480360381019080803573ffffffffffffffffffffffffffffffffffffffff1690602001909291905050506133fd565b005b348015610e1957600080fd5b50610e58600480360381019080803573ffffffffffffffffffffffffffffffffffffffff1690602001909291908035906020019092919050505061350c565b604051808215151515815260200191505060405180910390f35b348015610e7e57600080fd5b50610e876135f2565b604051808273ffffffffffffffffffffffffffffffffffffffff1673ffffffffffffffffffffffffffffffffffffffff16815260200191505060405180910390f35b348015610ed557600080fd5b50610f2a600480360381019080803573ffffffffffffffffffffffffffffffffffffffff169060200190929190803573ffffffffffffffffffffffffffffffffffffffff169060200190929190505050613618565b6040518082815260200191505060405180910390f35b348015610f4c57600080fd5b50610f8b600480360381019080803573ffffffffffffffffffffffffffffffffffffffff1690602001909291908035906020019092919050505061369f565b604051808381526020018281526020019250505060405180910390f35b348015610fb457600080fd5b50610fd36004803603810190808035906020019092919050505061375b565b005b348015610fe157600080fd5b50611016600480360381019080803573ffffffffffffffffffffffffffffffffffffffff16906020019092919050505061387b565b005b34801561102457600080fd5b5061102d6139d3565b005b34801561103b57600080fd5b5061105a60048036038101908080359060200190929190505050613a67565b005b6040805190810160405280601381526020017f536962626179204865616c746820546f6b656e0000000000000000000000000081525081565b6000600360149054906101000a900460ff161515156110b357600080fd5b33600460008273ffffffffffffffffffffffffffffffffffffffff1673ffffffffffffffffffffffffffffffffffffffff16815260200190815260200160002060009054906101000a900460ff1615151561110d57600080fd5b83600460008273ffffffffffffffffffffffffffffffffffffffff1673ffffffffffffffffffffffffffffffffffffffff16815260200190815260200160002060009054906101000a900460ff1615151561116757600080fd5b6111718585613b28565b9250505092915050565b61118481613c1a565b50565b600080600360149054906101000a900460ff161515156111a657600080fd5b33600460008273ffffffffffffffffffffffffffffffffffffffff1673ffffffffffffffffffffffffffffffffffffffff16815260200190815260200160002060009054906101000a900460ff1615151561120057600080fd5b86600460008273ffffffffffffffffffffffffffffffffffffffff1673ffffffffffffffffffffffffffffffffffffffff16815260200190815260200160002060009054906101000a900460ff1615151561125a57600080fd5b6000865111801561126c575084518651145b151561127757600080fd5b600960009054906101000a900473ffffffffffffffffffffffffffffffffffffffff1673ffffffffffffffffffffffffffffffffffffffff168773ffffffffffffffffffffffffffffffffffffffff16141515156112d457600080fd5b600073ffffffffffffffffffffffffffffffffffffffff168773ffffffffffffffffffffffffffffffffffffffff161415151561131057600080fd5b61131988613c1a565b61132287613c1a565b6000935060009250600093505b85518463ffffffff16101561137d5761136e868563ffffffff1681518110151561135557fe5b906020019060200201518461401e90919063ffffffff16565b9250838060010194505061132f565b6000808973ffffffffffffffffffffffffffffffffffffffff1673ffffffffffffffffffffffffffffffffffffffff1681526020019081526020016000205483111515156113ca57600080fd5b600260008973ffffffffffffffffffffffffffffffffffffffff1673ffffffffffffffffffffffffffffffffffffffff16815260200190815260200160002060003373ffffffffffffffffffffffffffffffffffffffff1673ffffffffffffffffffffffffffffffffffffffff16815260200190815260200160002054831115151561145557600080fd5b6114e483600260008b73ffffffffffffffffffffffffffffffffffffffff1673ffffffffffffffffffffffffffffffffffffffff16815260200190815260200160002060003373ffffffffffffffffffffffffffffffffffffffff1673ffffffffffffffffffffffffffffffffffffffff1681526020019081526020016000205461403a90919063ffffffff16565b600260008a73ffffffffffffffffffffffffffffffffffffffff1673ffffffffffffffffffffffffffffffffffffffff16815260200190815260200160002060003373ffffffffffffffffffffffffffffffffffffffff1673ffffffffffffffffffffffffffffffffffffffff16815260200190815260200160002081905550600093505b85518463ffffffff1610156115cb576115be8888888763ffffffff1681518110151561159157fe5b90602001906020020151888863ffffffff168151811015156115af57fe5b90602001906020020151614053565b8380600101945050611569565b8673ffffffffffffffffffffffffffffffffffffffff168873ffffffffffffffffffffffffffffffffffffffff163373ffffffffffffffffffffffffffffffffffffffff167fd7d630f8e1116ad40a06dd9a7299871e9fd7cc0a2f65a808251c764eebdcd0a78989604051808060200180602001838103835285818151815260200191508051906020019060200280838360005b8381101561167a57808201518184015260208101905061165f565b50505050905001838103825284818151815260200191508051906020019060200280838360005b838110156116bc5780820151818401526020810190506116a1565b5050505090500194505050505060405180910390a45050505050505050565b600360009054906101000a900473ffffffffffffffffffffffffffffffffffffffff1673ffffffffffffffffffffffffffffffffffffffff163373ffffffffffffffffffffffffffffffffffffffff1614151561173757600080fd5b600560008273ffffffffffffffffffffffffffffffffffffffff1673ffffffffffffffffffffffffffffffffffffffff16815260200190815260200160002060006101000a81549060ff02191690558073ffffffffffffffffffffffffffffffffffffffff167fa5afe14290b6481c42b0941584b7c9093cc3d4cf9dc885904881f063e012e31360405160405180910390a250565b6000600154905090565b6000600360149054906101000a900460ff161515156117f457600080fd5b33600460008273ffffffffffffffffffffffffffffffffffffffff1673ffffffffffffffffffffffffffffffffffffffff16815260200190815260200160002060009054906101000a900460ff1615151561184e57600080fd5b84600460008273ffffffffffffffffffffffffffffffffffffffff1673ffffffffffffffffffffffffffffffffffffffff16815260200190815260200160002060009054906101000a900460ff161515156118a857600080fd5b600960009054906101000a900473ffffffffffffffffffffffffffffffffffffffff1673ffffffffffffffffffffffffffffffffffffffff168573ffffffffffffffffffffffffffffffffffffffff161415151561190557600080fd5b600073ffffffffffffffffffffffffffffffffffffffff168573ffffffffffffffffffffffffffffffffffffffff161415151561194157600080fd5b61194a86613c1a565b61195385613c1a565b600260008773ffffffffffffffffffffffffffffffffffffffff1673ffffffffffffffffffffffffffffffffffffffff16815260200190815260200160002060003373ffffffffffffffffffffffffffffffffffffffff1673ffffffffffffffffffffffffffffffffffffffff1681526020019081526020016000205484111515156119de57600080fd5b611a6d84600260008973ffffffffffffffffffffffffffffffffffffffff1673ffffffffffffffffffffffffffffffffffffffff16815260200190815260200160002060003373ffffffffffffffffffffffffffffffffffffffff1673ffffffffffffffffffffffffffffffffffffffff1681526020019081526020016000205461403a90919063ffffffff16565b600260008873ffffffffffffffffffffffffffffffffffffffff1673ffffffffffffffffffffffffffffffffffffffff16815260200190815260200160002060003373ffffffffffffffffffffffffffffffffffffffff1673ffffffffffffffffffffffffffffffffffffffff16815260200190815260200160002081905550611af88686866146da565b6001925050509392505050565b60008060008373ffffffffffffffffffffffffffffffffffffffff1673ffffffffffffffffffffffffffffffffffffffff168152602001908152602001600020549050919050565b60056020528060005260406000206000915054906101000a900460ff1681565b601260ff16600a0a633b9aca000281565b601281565b6000600360009054906101000a900473ffffffffffffffffffffffffffffffffffffffff1673ffffffffffffffffffffffffffffffffffffffff163373ffffffffffffffffffffffffffffffffffffffff16141515611be157600080fd5b3073ffffffffffffffffffffffffffffffffffffffff16319050600360009054906101000a900473ffffffffffffffffffffffffffffffffffffffff1673ffffffffffffffffffffffffffffffffffffffff166108fc829081150290604051600060405180830381858888f19350505050158015611c63573d6000803e3d6000fd5b5050565b600360009054906101000a900473ffffffffffffffffffffffffffffffffffffffff1673ffffffffffffffffffffffffffffffffffffffff163373ffffffffffffffffffffffffffffffffffffffff16141515611cc357600080fd5b600360149054906101000a900460ff161515611cde57600080fd5b6000600360146101000a81548160ff0219169083151502179055507f7805862f689e2f13df9f062ff482ad3ad112aca9e0847911ed832e158c525b3360405160405180910390a1565b600080600360149054906101000a900460ff16151515611d4657600080fd5b33600460008273ffffffffffffffffffffffffffffffffffffffff1673ffffffffffffffffffffffffffffffffffffffff16815260200190815260200160002060009054906101000a900460ff16151515611da057600080fd5b85600460008273ffffffffffffffffffffffffffffffffffffffff1673ffffffffffffffffffffffffffffffffffffffff16815260200190815260200160002060009054906101000a900460ff16151515611dfa57600080fd5b60008651118015611e0c575084518651145b1515611e1757600080fd5b611e2087613c1a565b6000935060009250600093505b84518463ffffffff161015611e7b57611e6c858563ffffffff16815181101515611e5357fe5b906020019060200201518461401e90919063ffffffff16565b92508380600101945050611e2d565b6000808873ffffffffffffffffffffffffffffffffffffffff1673ffffffffffffffffffffffffffffffffffffffff168152602001908152602001600020548311151515611ec857600080fd5b600260008873ffffffffffffffffffffffffffffffffffffffff1673ffffffffffffffffffffffffffffffffffffffff16815260200190815260200160002060003373ffffffffffffffffffffffffffffffffffffffff1673ffffffffffffffffffffffffffffffffffffffff168152602001908152602001600020548311151515611f5357600080fd5b611fe283600260008a73ffffffffffffffffffffffffffffffffffffffff1673ffffffffffffffffffffffffffffffffffffffff16815260200190815260200160002060003373ffffffffffffffffffffffffffffffffffffffff1673ffffffffffffffffffffffffffffffffffffffff1681526020019081526020016000205461403a90919063ffffffff16565b600260008973ffffffffffffffffffffffffffffffffffffffff1673ffffffffffffffffffffffffffffffffffffffff16815260200190815260200160002060003373ffffffffffffffffffffffffffffffffffffffff1673ffffffffffffffffffffffffffffffffffffffff16815260200190815260200160002081905550600093505b85518463ffffffff1610156121c157600960009054906101000a900473ffffffffffffffffffffffffffffffffffffffff1673ffffffffffffffffffffffffffffffffffffffff16868563ffffffff168151811015156120c357fe5b9060200190602002015173ffffffffffffffffffffffffffffffffffffffff16141515156120f057600080fd5b600073ffffffffffffffffffffffffffffffffffffffff16868563ffffffff1681518110151561211c57fe5b9060200190602002015173ffffffffffffffffffffffffffffffffffffffff161415151561214957600080fd5b61216f868563ffffffff1681518110151561216057fe5b90602001906020020151613c1a565b6121b487878663ffffffff1681518110151561218757fe5b90602001906020020151878763ffffffff168151811015156121a557fe5b906020019060200201516146da565b8380600101945050612067565b50505050505050565b60075481565b6000600660008373ffffffffffffffffffffffffffffffffffffffff1673ffffffffffffffffffffffffffffffffffffffff168152602001908152602001600020600001549050919050565b600360149054906101000a900460ff1681565b60066020528060005260406000206000915090508060000154908060020154908060030154905083565b33600560008273ffffffffffffffffffffffffffffffffffffffff1673ffffffffffffffffffffffffffffffffffffffff16815260200190815260200160002060009054906101000a900460ff1615156122b257600080fd5b6000821115156122c157600080fd5b816008819055503373ffffffffffffffffffffffffffffffffffffffff167f8d10f638f8d24cb1079a79c932f23795987d49aebc819317bc4b18a084d02809836040518082815260200191505060405180910390a25050565b6000600360149054906101000a900460ff1615151561233857600080fd5b33600460008273ffffffffffffffffffffffffffffffffffffffff1673ffffffffffffffffffffffffffffffffffffffff16815260200190815260200160002060009054906101000a900460ff1615151561239257600080fd5b83600460008273ffffffffffffffffffffffffffffffffffffffff1673ffffffffffffffffffffffffffffffffffffffff16815260200190815260200160002060009054906101000a900460ff161515156123ec57600080fd5b6123f6858561496d565b9250505092915050565b600960149054906101000a900460ff1615151561241c57600080fd5b600360009054906101000a900473ffffffffffffffffffffffffffffffffffffffff1673ffffffffffffffffffffffffffffffffffffffff163373ffffffffffffffffffffffffffffffffffffffff1614151561247857600080fd5b600073ffffffffffffffffffffffffffffffffffffffff16600960009054906101000a900473ffffffffffffffffffffffffffffffffffffffff1673ffffffffffffffffffffffffffffffffffffffff16141515156124d657600080fd5b60006007541115156124e757600080fd5b60006008541115156124f857600080fd5b6001600960146101000a81548160ff021916908315150217905550565b60046020528060005260406000206000915054906101000a900460ff1681565b600360009054906101000a900473ffffffffffffffffffffffffffffffffffffffff1673ffffffffffffffffffffffffffffffffffffffff163373ffffffffffffffffffffffffffffffffffffffff1614151561259157600080fd5b600073ffffffffffffffffffffffffffffffffffffffff168173ffffffffffffffffffffffffffffffffffffffff16141515156125cd57600080fd5b80600960006101000a81548173ffffffffffffffffffffffffffffffffffffffff021916908373ffffffffffffffffffffffffffffffffffffffff1602179055508073ffffffffffffffffffffffffffffffffffffffff167fdd7881875c2171524331608073ba5fba2a6ff96cf8341d25f9ea84b5c003669060405160405180910390a250565b6000600660008373ffffffffffffffffffffffffffffffffffffffff1673ffffffffffffffffffffffffffffffffffffffff168152602001908152602001600020600001546000808473ffffffffffffffffffffffffffffffffffffffff1673ffffffffffffffffffffffffffffffffffffffff16815260200190815260200160002054019050919050565b600360009054906101000a900473ffffffffffffffffffffffffffffffffffffffff1673ffffffffffffffffffffffffffffffffffffffff163373ffffffffffffffffffffffffffffffffffffffff1614151561273c57600080fd5b600360009054906101000a900473ffffffffffffffffffffffffffffffffffffffff1673ffffffffffffffffffffffffffffffffffffffff167ff8df31144d9c2f0f6b59d69b8b98abd5459d07f2742c4df920b25aae33c6482060405160405180910390a26000600360006101000a81548173ffffffffffffffffffffffffffffffffffffffff021916908373ffffffffffffffffffffffffffffffffffffffff160217905550565b600960149054906101000a900460ff1681565b600360009054906101000a900473ffffffffffffffffffffffffffffffffffffffff1673ffffffffffffffffffffffffffffffffffffffff163373ffffffffffffffffffffffffffffffffffffffff1614151561285457600080fd5b600360149054906101000a900460ff1615151561287057600080fd5b6001600360146101000a81548160ff0219169083151502179055507f6985a02210a168e66602d3235cb6db0e70f92b3ba4d376a33c0f3d9434bff62560405160405180910390a1565b60085481565b600080600360149054906101000a900460ff161515156128de57600080fd5b33600460008273ffffffffffffffffffffffffffffffffffffffff1673ffffffffffffffffffffffffffffffffffffffff16815260200190815260200160002060009054906101000a900460ff1615151561293857600080fd5b6000855111801561294a575083518551145b151561295557600080fd5b61295e33613c1a565b6000925060009150600092505b83518363ffffffff1610156129b9576129aa848463ffffffff1681518110151561299157fe5b906020019060200201518361401e90919063ffffffff16565b9150828060010193505061296b565b6000803373ffffffffffffffffffffffffffffffffffffffff1673ffffffffffffffffffffffffffffffffffffffff168152602001908152602001600020548211151515612a0657600080fd5b600092505b84518363ffffffff161015612b6557600960009054906101000a900473ffffffffffffffffffffffffffffffffffffffff1673ffffffffffffffffffffffffffffffffffffffff16858463ffffffff16815181101515612a6757fe5b9060200190602002015173ffffffffffffffffffffffffffffffffffffffff1614151515612a9457600080fd5b600073ffffffffffffffffffffffffffffffffffffffff16858463ffffffff16815181101515612ac057fe5b9060200190602002015173ffffffffffffffffffffffffffffffffffffffff1614151515612aed57600080fd5b612b13858463ffffffff16815181101515612b0457fe5b90602001906020020151613c1a565b612b5833868563ffffffff16815181101515612b2b57fe5b90602001906020020151868663ffffffff16815181101515612b4957fe5b906020019060200201516146da565b8280600101935050612a0b565b5050505050565b600360009054906101000a900473ffffffffffffffffffffffffffffffffffffffff1681565b600080600360149054906101000a900460ff16151515612bb157600080fd5b33600460008273ffffffffffffffffffffffffffffffffffffffff1673ffffffffffffffffffffffffffffffffffffffff16815260200190815260200160002060009054906101000a900460ff16151515612c0b57600080fd5b60008551118015612c1d575083518551145b1515612c2857600080fd5b600960009054906101000a900473ffffffffffffffffffffffffffffffffffffffff1673ffffffffffffffffffffffffffffffffffffffff168673ffffffffffffffffffffffffffffffffffffffff1614151515612c8557600080fd5b600073ffffffffffffffffffffffffffffffffffffffff168673ffffffffffffffffffffffffffffffffffffffff1614151515612cc157600080fd5b612cca33613c1a565b612cd386613c1a565b6000925060009150600092505b84518363ffffffff161015612d2e57612d1f858463ffffffff16815181101515612d0657fe5b906020019060200201518361401e90919063ffffffff16565b91508280600101935050612ce0565b6000803373ffffffffffffffffffffffffffffffffffffffff1673ffffffffffffffffffffffffffffffffffffffff168152602001908152602001600020548211151515612d7b57600080fd5b600092505b84518363ffffffff161015612de257612dd53387878663ffffffff16815181101515612da857fe5b90602001906020020151878763ffffffff16815181101515612dc657fe5b90602001906020020151614053565b8280600101935050612d80565b8573ffffffffffffffffffffffffffffffffffffffff163373ffffffffffffffffffffffffffffffffffffffff167fac28db1fddd8287fcb23de0acaedca2873fdec9b7bca405eeae4e84f59c64b408787604051808060200180602001838103835285818151815260200191508051906020019060200280838360005b83811015612e7a578082015181840152602081019050612e5f565b50505050905001838103825284818151815260200191508051906020019060200280838360005b83811015612ebc578082015181840152602081019050612ea1565b5050505090500194505050505060405180910390a3505050505050565b6040805190810160405280600381526020017f534854000000000000000000000000000000000000000000000000000000000081525081565b6000600960149054906101000a900460ff161515612f2f57600080fd5b600360149054906101000a900460ff16151515612f4b57600080fd5b33600460008273ffffffffffffffffffffffffffffffffffffffff1673ffffffffffffffffffffffffffffffffffffffff16815260200190815260200160002060009054906101000a900460ff16151515612fa557600080fd5b600034111515612fb457600080fd5b612fe2600854612fd4601260ff16600a0a34614bfe90919063ffffffff16565b614c3690919063ffffffff16565b915060008211156130da57600960009054906101000a900473ffffffffffffffffffffffffffffffffffffffff1673ffffffffffffffffffffffffffffffffffffffff166108fc349081150290604051600060405180830381858888f19350505050158015613055573d6000803e3d6000fd5b50613083600960009054906101000a900473ffffffffffffffffffffffffffffffffffffffff1633846146da565b3373ffffffffffffffffffffffffffffffffffffffff167f1cbc5ab135991bd2b6a4b034a04aa2aa086dac1371cb9b16b8b5e2ed6b036bed3484604051808381526020018281526020019250505060405180910390a25b5050565b6000600360149054906101000a900460ff161515156130fc57600080fd5b600460003373ffffffffffffffffffffffffffffffffffffffff1673ffffffffffffffffffffffffffffffffffffffff16815260200190815260200160002060009054906101000a900460ff161561318e57600073ffffffffffffffffffffffffffffffffffffffff168373ffffffffffffffffffffffffffffffffffffffff1614151561318957600080fd5b6131cb565b600073ffffffffffffffffffffffffffffffffffffffff168373ffffffffffffffffffffffffffffffffffffffff16141515156131ca57600080fd5b5b6131d433613c1a565b6131dd83613c1a565b6131e83384846146da565b6131f3338484614c4c565b6001905092915050565b33600560008273ffffffffffffffffffffffffffffffffffffffff1673ffffffffffffffffffffffffffffffffffffffff16815260200190815260200160002060009054906101000a900460ff16151561325657600080fd5b600460008373ffffffffffffffffffffffffffffffffffffffff1673ffffffffffffffffffffffffffffffffffffffff16815260200190815260200160002060006101000a81549060ff02191690558173ffffffffffffffffffffffffffffffffffffffff163373ffffffffffffffffffffffffffffffffffffffff167fa8ca4c1e2e1ebc26164949943a221a5199219743fcc8533fdb005f039ed4785b60405160405180910390a35050565b600360009054906101000a900473ffffffffffffffffffffffffffffffffffffffff1673ffffffffffffffffffffffffffffffffffffffff163373ffffffffffffffffffffffffffffffffffffffff1614151561335f57600080fd5b6001600560008373ffffffffffffffffffffffffffffffffffffffff1673ffffffffffffffffffffffffffffffffffffffff16815260200190815260200160002060006101000a81548160ff0219169083151502179055508073ffffffffffffffffffffffffffffffffffffffff167f6e5eedde7d0d690d55dea362660be04ef1eb36252e48817545afb1ae6b245a4060405160405180910390a250565b33600560008273ffffffffffffffffffffffffffffffffffffffff1673ffffffffffffffffffffffffffffffffffffffff16815260200190815260200160002060009054906101000a900460ff16151561345657600080fd5b6001600460008473ffffffffffffffffffffffffffffffffffffffff1673ffffffffffffffffffffffffffffffffffffffff16815260200190815260200160002060006101000a81548160ff0219169083151502179055508173ffffffffffffffffffffffffffffffffffffffff163373ffffffffffffffffffffffffffffffffffffffff167f2ae3d8beb1529a220b658a87b905671775be575d98eb1c786b4b9da45a2d7aea60405160405180910390a35050565b6000600360149054906101000a900460ff1615151561352a57600080fd5b33600460008273ffffffffffffffffffffffffffffffffffffffff1673ffffffffffffffffffffffffffffffffffffffff16815260200190815260200160002060009054906101000a900460ff1615151561358457600080fd5b83600460008273ffffffffffffffffffffffffffffffffffffffff1673ffffffffffffffffffffffffffffffffffffffff16815260200190815260200160002060009054906101000a900460ff161515156135de57600080fd5b6135e88585614def565b9250505092915050565b600960009054906101000a900473ffffffffffffffffffffffffffffffffffffffff1681565b6000600260008473ffffffffffffffffffffffffffffffffffffffff1673ffffffffffffffffffffffffffffffffffffffff16815260200190815260200160002060008373ffffffffffffffffffffffffffffffffffffffff1673ffffffffffffffffffffffffffffffffffffffff16815260200190815260200160002054905092915050565b600080600660008573ffffffffffffffffffffffffffffffffffffffff1673ffffffffffffffffffffffffffffffffffffffff168152602001908152602001600020600101600084815260200190815260200160002060000154600660008673ffffffffffffffffffffffffffffffffffffffff1673ffffffffffffffffffffffffffffffffffffffff168152602001908152602001600020600101600085815260200190815260200160002060010154915091509250929050565b600960149054906101000a900460ff16151561377657600080fd5b600360149054906101000a900460ff1615151561379257600080fd5b33600460008273ffffffffffffffffffffffffffffffffffffffff1673ffffffffffffffffffffffffffffffffffffffff16815260200190815260200160002060009054906101000a900460ff161515156137ec57600080fd5b600073ffffffffffffffffffffffffffffffffffffffff16600960009054906101000a900473ffffffffffffffffffffffffffffffffffffffff1673ffffffffffffffffffffffffffffffffffffffff161415151561384a57600080fd5b613876600960009054906101000a900473ffffffffffffffffffffffffffffffffffffffff16836130de565b505050565b600360009054906101000a900473ffffffffffffffffffffffffffffffffffffffff1673ffffffffffffffffffffffffffffffffffffffff163373ffffffffffffffffffffffffffffffffffffffff161415156138d757600080fd5b600073ffffffffffffffffffffffffffffffffffffffff168173ffffffffffffffffffffffffffffffffffffffff161415151561391357600080fd5b8073ffffffffffffffffffffffffffffffffffffffff16600360009054906101000a900473ffffffffffffffffffffffffffffffffffffffff1673ffffffffffffffffffffffffffffffffffffffff167f8be0079c531659141344cd1fd0a4f28419497f9722a3daafe3b4186f6b6457e060405160405180910390a380600360006101000a81548173ffffffffffffffffffffffffffffffffffffffff021916908373ffffffffffffffffffffffffffffffffffffffff16021790555050565b600960149054906101000a900460ff1615156139ee57600080fd5b600360009054906101000a900473ffffffffffffffffffffffffffffffffffffffff1673ffffffffffffffffffffffffffffffffffffffff163373ffffffffffffffffffffffffffffffffffffffff16141515613a4a57600080fd5b6000600960146101000a81548160ff021916908315150217905550565b33600560008273ffffffffffffffffffffffffffffffffffffffff1673ffffffffffffffffffffffffffffffffffffffff16815260200190815260200160002060009054906101000a900460ff161515613ac057600080fd5b600082111515613acf57600080fd5b816007819055503373ffffffffffffffffffffffffffffffffffffffff167f73e1698972cbdd48a48c8e5a4541f0ba2a3ccc27d9e839124219e655fc351f42836040518082815260200191505060405180910390a25050565b600081600260003373ffffffffffffffffffffffffffffffffffffffff1673ffffffffffffffffffffffffffffffffffffffff16815260200190815260200160002060008573ffffffffffffffffffffffffffffffffffffffff1673ffffffffffffffffffffffffffffffffffffffff168152602001908152602001600020819055508273ffffffffffffffffffffffffffffffffffffffff163373ffffffffffffffffffffffffffffffffffffffff167f8c5be1e5ebec7d5bd14f71427d1e84f3dd0314c0f7b2291e5b200ac8c7c3b925846040518082815260200191505060405180910390a36001905092915050565b600080600080600660008673ffffffffffffffffffffffffffffffffffffffff1673ffffffffffffffffffffffffffffffffffffffff168152602001908152602001600020600201549350600660008673ffffffffffffffffffffffffffffffffffffffff1673ffffffffffffffffffffffffffffffffffffffff1681526020019081526020016000206001016000858152602001908152602001600020600001549250600091505b60008414158015613cd45750428411155b15613e0e57613cec838361401e90919063ffffffff16565b9150839050600660008673ffffffffffffffffffffffffffffffffffffffff1673ffffffffffffffffffffffffffffffffffffffff1681526020019081526020016000206001016000858152602001908152602001600020600101549350600660008673ffffffffffffffffffffffffffffffffffffffff1673ffffffffffffffffffffffffffffffffffffffff1681526020019081526020016000206001016000858152602001908152602001600020600001549250600660008673ffffffffffffffffffffffffffffffffffffffff1673ffffffffffffffffffffffffffffffffffffffff168152602001908152602001600020600101600082815260200190815260200160002060008082016000905560018201600090555050613cc3565b83600660008773ffffffffffffffffffffffffffffffffffffffff1673ffffffffffffffffffffffffffffffffffffffff16815260200190815260200160002060020181905550613eaa82600660008873ffffffffffffffffffffffffffffffffffffffff1673ffffffffffffffffffffffffffffffffffffffff1681526020019081526020016000206000015461403a90919063ffffffff16565b600660008773ffffffffffffffffffffffffffffffffffffffff1673ffffffffffffffffffffffffffffffffffffffff16815260200190815260200160002060000181905550613f41826000808873ffffffffffffffffffffffffffffffffffffffff1673ffffffffffffffffffffffffffffffffffffffff1681526020019081526020016000205461401e90919063ffffffff16565b6000808773ffffffffffffffffffffffffffffffffffffffff1673ffffffffffffffffffffffffffffffffffffffff168152602001908152602001600020819055506000600660008773ffffffffffffffffffffffffffffffffffffffff1673ffffffffffffffffffffffffffffffffffffffff168152602001908152602001600020600201541415614017576000600660008773ffffffffffffffffffffffffffffffffffffffff1673ffffffffffffffffffffffffffffffffffffffff168152602001908152602001600020600301819055505b5050505050565b6000818301905082811015151561403157fe5b80905092915050565b600082821115151561404857fe5b818303905092915050565b600080600080600660008873ffffffffffffffffffffffffffffffffffffffff1673ffffffffffffffffffffffffffffffffffffffff168152602001908152602001600020600201549350600660008873ffffffffffffffffffffffffffffffffffffffff1673ffffffffffffffffffffffffffffffffffffffff168152602001908152602001600020600301549250600660008873ffffffffffffffffffffffffffffffffffffffff1673ffffffffffffffffffffffffffffffffffffffff1681526020019081526020016000206001016000868152602001908152602001600020600001549150600086141561414a576146d0565b42851115156141635761415e8888886146da565b6146d0565b600084141561425a5784600660008973ffffffffffffffffffffffffffffffffffffffff1673ffffffffffffffffffffffffffffffffffffffff1681526020019081526020016000206002018190555084600660008973ffffffffffffffffffffffffffffffffffffffff1673ffffffffffffffffffffffffffffffffffffffff1681526020019081526020016000206003018190555085600660008973ffffffffffffffffffffffffffffffffffffffff1673ffffffffffffffffffffffffffffffffffffffff1681526020019081526020016000206001016000878152602001908152602001600020600001819055506146c4565b60008211156142d557614276868361401e90919063ffffffff16565b600660008973ffffffffffffffffffffffffffffffffffffffff1673ffffffffffffffffffffffffffffffffffffffff1681526020019081526020016000206001016000878152602001908152602001600020600001819055506146c3565b838510156143df5785600660008973ffffffffffffffffffffffffffffffffffffffff1673ffffffffffffffffffffffffffffffffffffffff16815260200190815260200160002060010160008781526020019081526020016000206000018190555083600660008973ffffffffffffffffffffffffffffffffffffffff1673ffffffffffffffffffffffffffffffffffffffff16815260200190815260200160002060010160008781526020019081526020016000206001018190555084600660008973ffffffffffffffffffffffffffffffffffffffff1673ffffffffffffffffffffffffffffffffffffffff168152602001908152602001600020600201819055506146c2565b828511156144e95785600660008973ffffffffffffffffffffffffffffffffffffffff1673ffffffffffffffffffffffffffffffffffffffff16815260200190815260200160002060010160008781526020019081526020016000206000018190555084600660008973ffffffffffffffffffffffffffffffffffffffff1673ffffffffffffffffffffffffffffffffffffffff16815260200190815260200160002060010160008581526020019081526020016000206001018190555084600660008973ffffffffffffffffffffffffffffffffffffffff1673ffffffffffffffffffffffffffffffffffffffff168152602001908152602001600020600301819055506146c1565b839050600660008873ffffffffffffffffffffffffffffffffffffffff1673ffffffffffffffffffffffffffffffffffffffff16815260200190815260200160002060010160008281526020019081526020016000206001015491505b848210156145af57819050600660008873ffffffffffffffffffffffffffffffffffffffff1673ffffffffffffffffffffffffffffffffffffffff1681526020019081526020016000206001016000828152602001908152602001600020600101549150614546565b85600660008973ffffffffffffffffffffffffffffffffffffffff1673ffffffffffffffffffffffffffffffffffffffff16815260200190815260200160002060010160008781526020019081526020016000206000018190555081600660008973ffffffffffffffffffffffffffffffffffffffff1673ffffffffffffffffffffffffffffffffffffffff16815260200190815260200160002060010160008781526020019081526020016000206001018190555084600660008973ffffffffffffffffffffffffffffffffffffffff1673ffffffffffffffffffffffffffffffffffffffff1681526020019081526020016000206001016000838152602001908152602001600020600101819055505b5b5b5b6146cf888888614feb565b5b5050505050505050565b6000808473ffffffffffffffffffffffffffffffffffffffff1673ffffffffffffffffffffffffffffffffffffffff16815260200190815260200160002054811115151561472757600080fd5b614778816000808673ffffffffffffffffffffffffffffffffffffffff1673ffffffffffffffffffffffffffffffffffffffff1681526020019081526020016000205461403a90919063ffffffff16565b6000808573ffffffffffffffffffffffffffffffffffffffff1673ffffffffffffffffffffffffffffffffffffffff1681526020019081526020016000208190555061480b816000808573ffffffffffffffffffffffffffffffffffffffff1673ffffffffffffffffffffffffffffffffffffffff1681526020019081526020016000205461401e90919063ffffffff16565b6000808473ffffffffffffffffffffffffffffffffffffffff1673ffffffffffffffffffffffffffffffffffffffff168152602001908152602001600020819055503373ffffffffffffffffffffffffffffffffffffffff168373ffffffffffffffffffffffffffffffffffffffff1614156148eb578173ffffffffffffffffffffffffffffffffffffffff168373ffffffffffffffffffffffffffffffffffffffff167fddf252ad1be2c89b69c2b068fc378daa952ba7f163c4a11628f55a4df523b3ef836040518082815260200191505060405180910390a3614968565b8173ffffffffffffffffffffffffffffffffffffffff168373ffffffffffffffffffffffffffffffffffffffff163373ffffffffffffffffffffffffffffffffffffffff167f5f7542858008eeb041631f30e6109ae94b83a58e9a58261dd2c42c508850f939846040518082815260200191505060405180910390a45b505050565b600080600260003373ffffffffffffffffffffffffffffffffffffffff1673ffffffffffffffffffffffffffffffffffffffff16815260200190815260200160002060008573ffffffffffffffffffffffffffffffffffffffff1673ffffffffffffffffffffffffffffffffffffffff16815260200190815260200160002054905080831115614a7e576000600260003373ffffffffffffffffffffffffffffffffffffffff1673ffffffffffffffffffffffffffffffffffffffff16815260200190815260200160002060008673ffffffffffffffffffffffffffffffffffffffff1673ffffffffffffffffffffffffffffffffffffffff16815260200190815260200160002081905550614b12565b614a91838261403a90919063ffffffff16565b600260003373ffffffffffffffffffffffffffffffffffffffff1673ffffffffffffffffffffffffffffffffffffffff16815260200190815260200160002060008673ffffffffffffffffffffffffffffffffffffffff1673ffffffffffffffffffffffffffffffffffffffff168152602001908152602001600020819055505b8373ffffffffffffffffffffffffffffffffffffffff163373ffffffffffffffffffffffffffffffffffffffff167f8c5be1e5ebec7d5bd14f71427d1e84f3dd0314c0f7b2291e5b200ac8c7c3b925600260003373ffffffffffffffffffffffffffffffffffffffff1673ffffffffffffffffffffffffffffffffffffffff16815260200190815260200160002060008873ffffffffffffffffffffffffffffffffffffffff1673ffffffffffffffffffffffffffffffffffffffff168152602001908152602001600020546040518082815260200191505060405180910390a3600191505092915050565b600080831415614c115760009050614c30565b8183029050818382811515614c2257fe5b04141515614c2c57fe5b8090505b92915050565b60008183811515614c4357fe5b04905092915050565b6000600960009054906101000a900473ffffffffffffffffffffffffffffffffffffffff1673ffffffffffffffffffffffffffffffffffffffff168373ffffffffffffffffffffffffffffffffffffffff16141515614caa57614de9565b600960149054906101000a900460ff161515614cc557600080fd5b600082111515614cd457600080fd5b614d02601260ff16600a0a614cf460075485614bfe90919063ffffffff16565b614c3690919063ffffffff16565b90503073ffffffffffffffffffffffffffffffffffffffff16318111151515614d2a57600080fd5b6000811115614de8578373ffffffffffffffffffffffffffffffffffffffff166108fc829081150290604051600060405180830381858888f19350505050158015614d79573d6000803e3d6000fd5b508273ffffffffffffffffffffffffffffffffffffffff168473ffffffffffffffffffffffffffffffffffffffff167fbc9daf30c1dc1e97765d5edfb5cb2a9207827910a091ecd75cc56dc45e6f02b68484604051808381526020018281526020019250505060405180910390a35b5b50505050565b6000614e8082600260003373ffffffffffffffffffffffffffffffffffffffff1673ffffffffffffffffffffffffffffffffffffffff16815260200190815260200160002060008673ffffffffffffffffffffffffffffffffffffffff1673ffffffffffffffffffffffffffffffffffffffff1681526020019081526020016000205461401e90919063ffffffff16565b600260003373ffffffffffffffffffffffffffffffffffffffff1673ffffffffffffffffffffffffffffffffffffffff16815260200190815260200160002060008573ffffffffffffffffffffffffffffffffffffffff1673ffffffffffffffffffffffffffffffffffffffff168152602001908152602001600020819055508273ffffffffffffffffffffffffffffffffffffffff163373ffffffffffffffffffffffffffffffffffffffff167f8c5be1e5ebec7d5bd14f71427d1e84f3dd0314c0f7b2291e5b200ac8c7c3b925600260003373ffffffffffffffffffffffffffffffffffffffff1673ffffffffffffffffffffffffffffffffffffffff16815260200190815260200160002060008773ffffffffffffffffffffffffffffffffffffffff1673ffffffffffffffffffffffffffffffffffffffff168152602001908152602001600020546040518082815260200191505060405180910390a36001905092915050565b6000808473ffffffffffffffffffffffffffffffffffffffff1673ffffffffffffffffffffffffffffffffffffffff16815260200190815260200160002054811115151561503857600080fd5b615089816000808673ffffffffffffffffffffffffffffffffffffffff1673ffffffffffffffffffffffffffffffffffffffff1681526020019081526020016000205461403a90919063ffffffff16565b6000808573ffffffffffffffffffffffffffffffffffffffff1673ffffffffffffffffffffffffffffffffffffffff1681526020019081526020016000208190555061512081600660008573ffffffffffffffffffffffffffffffffffffffff1673ffffffffffffffffffffffffffffffffffffffff1681526020019081526020016000206000015461401e90919063ffffffff16565b600660008473ffffffffffffffffffffffffffffffffffffffff1673ffffffffffffffffffffffffffffffffffffffff168152602001908152602001600020600001819055505050505600a165627a7a72305820e4dfcc3cba2486c5d033aa1bbd2d503325b483693a8b04fc44ca2d986f3173050029",
  "source": "pragma solidity ^0.4.24;\r\n\r\n\r\nimport \"./StandardToken.sol\";\r\nimport \"./Management.sol\";\r\n\r\n\r\n/**\r\n * @title SibbayHealthToken\r\n */\r\ncontract SibbayHealthToken is StandardToken, Management {\r\n\r\n  string public constant name = \"Sibbay Health Token\"; // solium-disable-line uppercase\r\n  string public constant symbol = \"SHT\"; // solium-disable-line uppercase\r\n  uint8 public constant decimals = 18; // solium-disable-line uppercase\r\n\r\n  /**\r\n   * \r\n   * , 1tokenwei(tokenwei)\r\n   * */\r\n  uint256 constant internal MAGNITUDE = 10 ** uint256(decimals);\r\n\r\n  uint256 public constant INITIAL_SUPPLY = 1000000000 * MAGNITUDE;\r\n\r\n  // , \r\n  event TransferEther(\r\n    address indexed from,\r\n    address indexed to,\r\n    uint256 tokenValue,\r\n    uint256 etherValue);\r\n  // \r\n  event SetSellPrice(address indexed admin, uint256 price);\r\n  // \r\n  event SetBuyPrice(address indexed admin, uint256 price);\r\n  // \r\n  event Buy(address indexed who, uint256 etherValue, uint256 tokenValue);\r\n  // \r\n  event SetFundAccount(address indexed fund);\r\n  // \r\n  event TransferByDate(address indexed from, address indexed to, uint256[] values, uint256[] dates);\r\n  event TransferFromByDate(address indexed spender, address indexed from, address indexed to, uint256[] values, uint256[] dates);\r\n\r\n  /**\r\n   * maplist\r\n   * value \r\n   * _next \r\n   * */\r\n  struct Element {\r\n    uint256 value;\r\n    uint256 next;\r\n  }\r\n\r\n  /**\r\n   * \r\n   * lockedBalances \r\n   * lockedElement \r\n   * start_date \r\n   * end_date \r\n   * */\r\n  struct Account {\r\n    uint256 lockedBalances;\r\n    mapping(uint256 => Element) lockedElement;\r\n    uint256 start_date;\r\n    uint256 end_date;\r\n  }\r\n\r\n  /**\r\n   * \r\n   * */\r\n  mapping(address => Account) public accounts;\r\n\r\n  /**\r\n   * sellPrice: token , 1 tokenwei(wei)\r\n   * buyPrice: token , 1 tokenwei\r\n   * fundAccount: tokentoken\r\n   * buySellFlag: \r\n   * */\r\n  uint256 public sellPrice;\r\n  uint256 public buyPrice;\r\n  address public fundAccount;\r\n  bool public buySellFlag;\r\n\r\n  /**\r\n   * \r\n   * \r\n   */\r\n  constructor() public {\r\n    totalSupply_ = INITIAL_SUPPLY;\r\n    balances[msg.sender] = INITIAL_SUPPLY;\r\n    emit Transfer(0x0, msg.sender, INITIAL_SUPPLY);\r\n\r\n    /**\r\n     * \r\n     * \r\n     * \r\n     * \r\n     * false\r\n     * */\r\n    sellPrice = 0;\r\n    buyPrice = 0;\r\n    fundAccount = address(0);\r\n    buySellFlag = false;\r\n  }\r\n\r\n  /**\r\n   * fallback\r\n   * buy\r\n   * */\r\n  function () external payable {\r\n  }\r\n\r\n  /**\r\n   * \r\n   * owner\r\n   * */\r\n  function withdraw() public onlyOwner {\r\n    uint256 value = address(this).balance;\r\n    owner.transfer(value);\r\n  }\r\n\r\n  /**\r\n   * modifier token\r\n   * */\r\n  modifier whenOpenBuySell()\r\n  {\r\n    require(buySellFlag);\r\n    _;\r\n  }\r\n\r\n  /**\r\n   * modifier token\r\n   * */\r\n  modifier whenCloseBuySell()\r\n  {\r\n    require(!buySellFlag);\r\n    _;\r\n  }\r\n\r\n  /**\r\n   * , \r\n   * _who: \r\n   * */\r\n  function refreshlockedBalances(address _who) internal\r\n  {\r\n    uint256 tmp_date = accounts[_who].start_date;\r\n    uint256 tmp_value = accounts[_who].lockedElement[tmp_date].value;\r\n    uint256 tmp_balances = 0;\r\n    uint256 tmp_var;\r\n\r\n    // \r\n    while(tmp_date != 0 &&\r\n          tmp_date <= now)\r\n    {\r\n      // \r\n      tmp_balances = tmp_balances.add(tmp_value);\r\n\r\n      //  tmp_date\r\n      tmp_var = tmp_date;\r\n\r\n      // \r\n      tmp_date = accounts[_who].lockedElement[tmp_date].next;\r\n      tmp_value = accounts[_who].lockedElement[tmp_date].value;\r\n\r\n      // delete \r\n      delete accounts[_who].lockedElement[tmp_var];\r\n    }\r\n\r\n    // \r\n    accounts[_who].start_date = tmp_date;\r\n    accounts[_who].lockedBalances = accounts[_who].lockedBalances.sub(tmp_balances);\r\n    balances[_who] = balances[_who].add(tmp_balances);\r\n\r\n    // 0\r\n    if (accounts[_who].start_date == 0)\r\n        accounts[_who].end_date = 0;\r\n  }\r\n\r\n  /**\r\n   * \r\n   * _from token\r\n   * _to token\r\n   * _value token\r\n   * */\r\n  function transferAvailableBalances(\r\n    address _from,\r\n    address _to,\r\n    uint256 _value\r\n  )\r\n    internal\r\n  {\r\n    // \r\n    require(_value <= balances[_from]);\r\n\r\n    // \r\n    balances[_from] = balances[_from].sub(_value);\r\n    balances[_to] = balances[_to].add(_value);\r\n\r\n    // \r\n    if(_from == msg.sender)\r\n      emit Transfer(_from, _to, _value);\r\n    else\r\n      emit TransferFrom(msg.sender, _from, _to, _value);\r\n  }\r\n\r\n  /**\r\n   * \r\n   * _from token\r\n   * _to token\r\n   * _value token\r\n   * */\r\n  function transferLockedBalances(\r\n    address _from,\r\n    address _to,\r\n    uint256 _value\r\n  )\r\n    internal\r\n  {\r\n    // \r\n    require(_value <= balances[_from]);\r\n\r\n    // \r\n    balances[_from] = balances[_from].sub(_value);\r\n    accounts[_to].lockedBalances = accounts[_to].lockedBalances.add(_value);\r\n  }\r\n\r\n  /**\r\n   * , \r\n   * _from token\r\n   * _to token\r\n   * _value token\r\n   * */\r\n  function transferEther(\r\n    address _from,\r\n    address _to,\r\n    uint256 _value\r\n  )\r\n    internal\r\n  {\r\n    /**\r\n     *  _to \r\n     * returnrevert\r\n     * , ether\r\n     * */\r\n    if (_to != fundAccount)\r\n        return ;\r\n\r\n    /**\r\n     * fundAccount\r\n     * */\r\n    require(buySellFlag);\r\n\r\n    /**\r\n     * 0\r\n     * token0\r\n     * */\r\n    require(_value > 0);\r\n\r\n    // , evalue wei\r\n    uint256 evalue = _value.mul(sellPrice).div(MAGNITUDE);\r\n    require(evalue <= address(this).balance);\r\n\r\n    // \r\n    if (evalue > 0)\r\n    {\r\n      _from.transfer(evalue);\r\n      emit TransferEther(_from, _to, _value, evalue);\r\n    }\r\n  }\r\n\r\n  /**\r\n   * \r\n   * */\r\n  function transfer(\r\n    address _to,\r\n    uint256 _value\r\n  )\r\n    public\r\n    whenNotPaused\r\n    returns (bool)\r\n  {\r\n    // address(0)\r\n    if(frozenList[msg.sender])\r\n      require(_to == address(0));\r\n    else\r\n    {\r\n      // 0\r\n      require(_to != address(0));\r\n    }\r\n    /**\r\n     * \r\n     * */\r\n    refreshlockedBalances(msg.sender);\r\n    refreshlockedBalances(_to);\r\n\r\n\r\n    // \r\n    transferAvailableBalances(msg.sender, _to, _value);\r\n\r\n    // \r\n    transferEther(msg.sender, _to, _value);\r\n\r\n    return true;\r\n  }\r\n\r\n  /**\r\n   * \r\n   *  _from  _value  _to\r\n   * */\r\n  function transferFrom(\r\n    address _from,\r\n    address _to,\r\n    uint256 _value\r\n  )\r\n    public\r\n    whenNotPaused\r\n    whenNotFrozen(msg.sender)\r\n    whenNotFrozen(_from)\r\n    returns (bool)\r\n  {\r\n    // token\r\n    require(_to != fundAccount);\r\n\r\n    // 0\r\n    require(_to != address(0));\r\n\r\n    /**\r\n     * \r\n     * */\r\n    refreshlockedBalances(_from);\r\n    refreshlockedBalances(_to);\r\n\r\n    // \r\n    require(_value <= allowed[_from][msg.sender]);\r\n\r\n    // \r\n    allowed[_from][msg.sender] = allowed[_from][msg.sender].sub(_value);\r\n\r\n    // \r\n    transferAvailableBalances(_from, _to, _value);\r\n\r\n    return true;\r\n  }\r\n\r\n  /**\r\n   * \r\n   *  _spender  _value\r\n   * */\r\n  function approve(\r\n    address _spender,\r\n    uint256 _value\r\n  )\r\n    public\r\n    whenNotPaused\r\n    whenNotFrozen(msg.sender)\r\n    whenNotFrozen(_spender)\r\n    returns (bool)\r\n  {\r\n    return super.approve(_spender, _value);\r\n  }\r\n\r\n  /**\r\n   * \r\n   *  _spender  _addedValue\r\n   * */\r\n  function increaseApproval(\r\n    address _spender,\r\n    uint _addedValue\r\n  )\r\n    public\r\n    whenNotPaused\r\n    whenNotFrozen(msg.sender)\r\n    whenNotFrozen(_spender)\r\n    returns (bool success)\r\n  {\r\n    return super.increaseApproval(_spender, _addedValue);\r\n  }\r\n\r\n  /**\r\n   * \r\n   *  _spender  _subtractedValue\r\n   * */\r\n  function decreaseApproval(\r\n    address _spender,\r\n    uint _subtractedValue\r\n  )\r\n    public\r\n    whenNotPaused\r\n    whenNotFrozen(msg.sender)\r\n    whenNotFrozen(_spender)\r\n    returns (bool success)\r\n  {\r\n    return super.decreaseApproval(_spender, _subtractedValue);\r\n  }\r\n\r\n  /**\r\n   *  token\r\n   *  _receivers\r\n   *  _values\r\n   * */\r\n  function batchTransfer(\r\n    address[] _receivers,\r\n    uint256[] _values\r\n  )\r\n    public\r\n    whenNotPaused\r\n    whenNotFrozen(msg.sender)\r\n  {\r\n    // token\r\n    require(_receivers.length > 0 && _receivers.length == _values.length);\r\n\r\n    /**\r\n     * \r\n     * */\r\n    refreshlockedBalances(msg.sender);\r\n\r\n    // \r\n    uint32 i = 0;\r\n    uint256 total = 0;\r\n    for (i = 0; i < _values.length; i ++)\r\n    {\r\n      total = total.add(_values[i]);\r\n    }\r\n    require(total <= balances[msg.sender]);\r\n\r\n    //  \r\n    for (i = 0; i < _receivers.length; i ++)\r\n    {\r\n      // token\r\n      require(_receivers[i] != fundAccount);\r\n\r\n      // 0\r\n      require(_receivers[i] != address(0));\r\n\r\n      refreshlockedBalances(_receivers[i]);\r\n      // \r\n      transferAvailableBalances(msg.sender, _receivers[i], _values[i]);\r\n    }\r\n  }\r\n\r\n  /**\r\n   *  token\r\n   *  _from\r\n   *  _receivers\r\n   *  _values\r\n   * */\r\n  function batchTransferFrom(\r\n    address _from,\r\n    address[] _receivers,\r\n    uint256[] _values\r\n  )\r\n    public\r\n    whenNotPaused\r\n    whenNotFrozen(msg.sender)\r\n    whenNotFrozen(_from)\r\n  {\r\n    // token\r\n    require(_receivers.length > 0 && _receivers.length == _values.length);\r\n\r\n    /**\r\n     * \r\n     * */\r\n    refreshlockedBalances(_from);\r\n\r\n    // \r\n    uint32 i = 0;\r\n    uint256 total = 0;\r\n    for (i = 0; i < _values.length; i ++)\r\n    {\r\n      total = total.add(_values[i]);\r\n    }\r\n    require(total <= balances[_from]);\r\n\r\n    // \r\n    require(total <= allowed[_from][msg.sender]);\r\n\r\n    // \r\n    allowed[_from][msg.sender] = allowed[_from][msg.sender].sub(total);\r\n\r\n    //  \r\n    for (i = 0; i < _receivers.length; i ++)\r\n    {\r\n      // token\r\n      require(_receivers[i] != fundAccount);\r\n\r\n      // 0\r\n      require(_receivers[i] != address(0));\r\n\r\n      refreshlockedBalances(_receivers[i]);\r\n      // \r\n      transferAvailableBalances(_from, _receivers[i], _values[i]);\r\n    }\r\n  }\r\n\r\n  /**\r\n   * , token\r\n   * _receiver \r\n   * _values \r\n   * _dates \r\n   *        UTC197011\r\n   * */\r\n  function transferByDate(\r\n    address _receiver,\r\n    uint256[] _values,\r\n    uint256[] _dates\r\n  )\r\n    public\r\n    whenNotPaused\r\n    whenNotFrozen(msg.sender)\r\n  {\r\n    // token\r\n    require(_values.length > 0 &&\r\n        _values.length == _dates.length);\r\n\r\n    // token\r\n    require(_receiver != fundAccount);\r\n\r\n    // 0\r\n    require(_receiver != address(0));\r\n\r\n    /**\r\n     * \r\n     * */\r\n    refreshlockedBalances(msg.sender);\r\n    refreshlockedBalances(_receiver);\r\n\r\n    // \r\n    uint32 i = 0;\r\n    uint256 total = 0;\r\n    for (i = 0; i < _values.length; i ++)\r\n    {\r\n      total = total.add(_values[i]);\r\n    }\r\n    require(total <= balances[msg.sender]);\r\n\r\n    // \r\n    for(i = 0; i < _values.length; i ++)\r\n    {\r\n      transferByDateSingle(msg.sender, _receiver, _values[i], _dates[i]);\r\n    }\r\n\r\n    emit TransferByDate(msg.sender, _receiver, _values, _dates);\r\n  }\r\n\r\n  /**\r\n   * , token\r\n   * _from \r\n   * _receiver \r\n   * _values \r\n   * _dates \r\n   *        UTC197011\r\n   * */\r\n  function transferFromByDate(\r\n    address _from,\r\n    address _receiver,\r\n    uint256[] _values,\r\n    uint256[] _dates\r\n  )\r\n    public\r\n    whenNotPaused\r\n    whenNotFrozen(msg.sender)\r\n    whenNotFrozen(_from)\r\n  {\r\n    // token\r\n    require(_values.length > 0 &&\r\n        _values.length == _dates.length);\r\n\r\n    // token\r\n    require(_receiver != fundAccount);\r\n\r\n    // 0\r\n    require(_receiver != address(0));\r\n\r\n    /**\r\n     * \r\n     * */\r\n    refreshlockedBalances(_from);\r\n    refreshlockedBalances(_receiver);\r\n\r\n    // \r\n    uint32 i = 0;\r\n    uint256 total = 0;\r\n    for (i = 0; i < _values.length; i ++)\r\n    {\r\n      total = total.add(_values[i]);\r\n    }\r\n    require(total <= balances[_from]);\r\n\r\n    // \r\n    require(total <= allowed[_from][msg.sender]);\r\n\r\n    // \r\n    allowed[_from][msg.sender] = allowed[_from][msg.sender].sub(total);\r\n\r\n    // \r\n    for(i = 0; i < _values.length; i ++)\r\n    {\r\n      transferByDateSingle(_from, _receiver, _values[i], _dates[i]);\r\n    }\r\n\r\n    emit TransferFromByDate(msg.sender, _from, _receiver, _values, _dates);\r\n  }\r\n\r\n  /**\r\n   * _from token\r\n   * _to \r\n   * _value \r\n   * _date \r\n   *       UTC197011\r\n   * */\r\n  function transferByDateSingle(\r\n    address _from,\r\n    address _to,\r\n    uint256 _value,\r\n    uint256 _date\r\n  )\r\n    internal\r\n  {\r\n    uint256 start_date = accounts[_to].start_date;\r\n    uint256 end_date = accounts[_to].end_date;\r\n    uint256 tmp_var = accounts[_to].lockedElement[_date].value;\r\n    uint256 tmp_date;\r\n\r\n    if (_value == 0)\r\n    {\r\n        // \r\n        return ;\r\n    }\r\n\r\n    if (_date <= now)\r\n    {\r\n      // \r\n      // \r\n      transferAvailableBalances(_from, _to, _value);\r\n\r\n      return ;\r\n    }\r\n\r\n    if (start_date == 0)\r\n    {\r\n      // \r\n      // \r\n      accounts[_to].start_date = _date;\r\n      accounts[_to].end_date = _date;\r\n      accounts[_to].lockedElement[_date].value = _value;\r\n    }\r\n    else if (tmp_var > 0)\r\n    {\r\n      // \r\n      accounts[_to].lockedElement[_date].value = tmp_var.add(_value);\r\n    }\r\n    else if (_date < start_date)\r\n    {\r\n      // \r\n      // \r\n      accounts[_to].lockedElement[_date].value = _value;\r\n      accounts[_to].lockedElement[_date].next = start_date;\r\n      accounts[_to].start_date = _date;\r\n    }\r\n    else if (_date > end_date)\r\n    {\r\n      // \r\n      // \r\n      accounts[_to].lockedElement[_date].value = _value;\r\n      accounts[_to].lockedElement[end_date].next = _date;\r\n      accounts[_to].end_date = _date;\r\n    }\r\n    else\r\n    {\r\n      /**\r\n       *  \r\n       * \r\n       * \r\n       * tmp_var  tmp_next\r\n       * */\r\n      tmp_date = start_date;\r\n      tmp_var = accounts[_to].lockedElement[tmp_date].next;\r\n      while(tmp_var < _date)\r\n      {\r\n        tmp_date = tmp_var;\r\n        tmp_var = accounts[_to].lockedElement[tmp_date].next;\r\n      }\r\n\r\n      // \r\n      accounts[_to].lockedElement[_date].value = _value;\r\n      accounts[_to].lockedElement[_date].next = tmp_var;\r\n      accounts[_to].lockedElement[tmp_date].next = _date;\r\n    }\r\n\r\n    // \r\n    transferLockedBalances(_from, _to, _value);\r\n\r\n    return ;\r\n  }\r\n\r\n  /**\r\n   * buy tokens\r\n   * */\r\n  function buy()\r\n    public\r\n    whenOpenBuySell\r\n    whenNotPaused\r\n    whenNotFrozen(msg.sender)\r\n    payable\r\n  {\r\n    /**\r\n     * value0\r\n     * */\r\n    require(msg.value > 0);\r\n\r\n    // token\r\n    uint256 tvalue = msg.value.mul(MAGNITUDE).div(buyPrice);\r\n\r\n    // token\r\n    if (tvalue > 0)\r\n    {\r\n      // \r\n      fundAccount.transfer(msg.value);\r\n\r\n      // \r\n      transferAvailableBalances(fundAccount, msg.sender, tvalue);\r\n\r\n      // Buy\r\n      emit Buy(msg.sender, msg.value, tvalue);\r\n    }\r\n  }\r\n\r\n  /**\r\n   * sell tokens\r\n   * */\r\n  function sell(uint256 _value) public whenOpenBuySell whenNotPaused whenNotFrozen(msg.sender) {\r\n    require(fundAccount != address(0));\r\n    transfer(fundAccount, _value);\r\n  }\r\n\r\n  /**\r\n   * token\r\n   * */\r\n  function setSellPrice(uint256 price) public whenAdministrator(msg.sender) {\r\n    require(price > 0);\r\n    sellPrice = price;\r\n\r\n    emit SetSellPrice(msg.sender, price);\r\n  }\r\n\r\n  /**\r\n   * token\r\n   * */\r\n  function setBuyPrice(uint256 price) public whenAdministrator(msg.sender) {\r\n    require(price > 0);\r\n    buyPrice = price;\r\n\r\n    emit SetBuyPrice(msg.sender, price);\r\n  }\r\n\r\n  /**\r\n   * \r\n   * */\r\n  function setFundAccount(address fund) public onlyOwner {\r\n    require(fund != address(0));\r\n    fundAccount = fund;\r\n\r\n    emit SetFundAccount(fund);\r\n  }\r\n\r\n  /**\r\n   * token\r\n   * */\r\n  function openBuySell() public whenCloseBuySell onlyOwner {\r\n    require(fundAccount != address(0));\r\n    require(sellPrice > 0);\r\n    require(buyPrice > 0);\r\n    buySellFlag = true;\r\n  }\r\n\r\n  /**\r\n   * token\r\n   * */\r\n  function closeBuySell() public whenOpenBuySell onlyOwner {\r\n    buySellFlag = false;\r\n  }\r\n\r\n  /**\r\n   * lockbalance\r\n   * */\r\n  function refresh(address _who) public  {\r\n    refreshlockedBalances(_who);\r\n  }\r\n\r\n  /**\r\n   * \r\n   * */\r\n  function availableBalanceOf(address _who) public view returns (uint256) {\r\n    return balances[_who];\r\n  }\r\n\r\n  /**\r\n   * \r\n   * */\r\n  function lockedBalanceOf(address _who) public view returns (uint256) {\r\n    return accounts[_who].lockedBalances;\r\n  }\r\n\r\n  /**\r\n   * \r\n   * \r\n   * */\r\n  function lockedBalanceOfByDate(address _who, uint256 date) public view returns (uint256, uint256) {\r\n    return (accounts[_who].lockedElement[date].value, accounts[_who].lockedElement[date].next);\r\n  }\r\n\r\n  /**\r\n   * \r\n   * */\r\n  function balanceOf(address _owner) public view returns (uint256) {\r\n    return balances[_owner] + accounts[_owner].lockedBalances;\r\n  }\r\n\r\n}",
  "sourcePath": "C:\\tokentest\\contracts\\SibbayHealthToken.sol",
  "compiler": {
    "name": "solc",
    "version": "0.4.24+commit.e67f0147.Emscripten.clang"
  },
  "schemaVersion": "2.0.1",
  "updatedAt": "2018-10-06T02:25:42.004Z"
}